:100000006F00E04613000000130000001300000022
:100010001300000013000000130000001300000094
:100020001300000013000000130000001300000084
:08003000130000007300100032
:100038000000000000000000F8030000FA030000C0
:1000480000000000FC0300000000000000000000A9
:10005800FE03000000040000000000000000000093
:10006800020400000000000004040000000000007A
:1000780006040000080400000A0400000C04000044
:100088000E04000010040000120400001404000014
:1000980016040000180400001A0400001C040000E4
:1000A8001E040000200400002204000024040000B4
:1000B80026040000280400002A0400002C04000084
:1000C8002E04000030040000320400003404000054
:1000D80036040000380400003A0400003C04000024
:1000E8003E040000400400004204000044040000F4
:1000F80046040000480400004A0400004C040000C4
:100108004E04000050040000520400005404000093
:1001180056040000580400005A0400005C04000063
:100128005E0400006004000062040000000000009B
:1001380000000000640400006A0400006C04000071
:1001480066040000680400000000000000000000D1
:100158000000000000000000000000000000000097
:100168000000000000000000000000000000000087
:0801780000000000000000007F
:10018000411122C406C60008B3C7A5008D8BB30871
:10019000C500BDE71336460025E6937735002A876C
:1001A000E5E313F6C8FFB306E6409307000263CD0C
:1001B000D706AE86BA876371C70203A80600910707
:1001C000910623AE07FFE3EAC7FE7D16198E719AEA
:1001D00091051107B295329763671703B240224425
:1001E00041018142014381438145014681460147E6
:1001F000814701488148014E814E014F814F8280E5
:100200002A87E37D15FD83C7050005078505A30F34
:10021000F7FEE385E8FC83C7050005078505A30F06
:10022000F7FEE392E8FE5DBF945183A3050083A22D
:10023000450083AF850003AFC50083AE050103AE63
:10024000450103A3850103A8C50113074702232E17
:10025000D7FE232E77FCB306E640232057FE232249
:10026000F7FF2324E7FF2326D7FF2328C7FF232AEE
:1002700067FE232C07FF93854502E3C7D7FA15BF16
:1002800083C60500050793773700A30FD7FE8505C2
:1002900089DB83C60500050793773700A30FD7FED8
:1002A0008505F9FFFDBD011122CC001006CE3146B7
:1002B00093054060130544FEE13537150140930571
:1002C00044FE130505C03120F2406244014505613A
:1002D0008280411122C406C600089C4513F707011D
:1002E00013F8F70001C7D8413368E8003727024008
:1002F000145B3717014013D686013D8A71EE85469F
:10030000170600202300D6D06317E50003D70500A9
:1003100035832390E50083D5050013F7F50F39C326
:1003200018418146854E3D4F930F80029302800411
:10033000214E3396DE00B3F8C5006311160393987F
:10034000260033131F011343F3FF3377E300B31881
:10035000180133E7E8006399F70950C98506E39A65
:10036000C6FD18C11307F00F6376B7045441014668
:10037000854E3D4F930F800293028004214E130758
:1003800086003397EE00B3F8E50063111703931866
:10039000260033131F011343F3FFB376D300B318C2
:1003A0001801B3E6D8006395F70558C90506E318A8
:1003B000C6FD54C1B240224441018142014301457E
:1003C0008145014681460147814701488148014EE8
:1003D000814E014F814F8280E31FE5F21707002015
:1003E000034747C20DDB1DB7E39A57F610C9BDB7E7
:1003F000E39E57FA18C95DBF01A001A001A001A0AA
:1004000001A001A001A001A001A001A001A001A0E4
:1004100001A001A001A001A001A001A001A001A0D4
:1004200001A001A001A001A001A001A001A001A0C4
:1004300001A001A001A001A001A001A001A001A0B4
:1004400001A001A001A001A001A001A001A001A0A4
:1004500001A001A001A001A001A001A001A001A094
:1004600001A001A001A001A001A001A001A097018D
:10047000002093812139175100201301A1B81305E1
:100480000061970500209385E5B717060020130645
:1004900066B763FAC5008322050023A05500110545
:1004A0009105E3EAC5FE170500201305A5B59705DC
:1004B0000020938565B56377B500232005001105FD
:1004C000E36DB5FEFD42739002BC8D427390428095
:1004D0009302800873A0023097020000938202B654
:1004E00093E2320073905230EF0040019702000017
:1004F0009382A2DB73901234730020300111B7177E
:10050000024022CC06CE00109843B706FFF837060B
:1005100002001367170098C3D843758FD8C3984358
:10052000B706F7FEFD16758F98C39843B706FCFF14
:10053000FD16758F98C3D843B70681FFFD16758FDA
:10054000D8C337079F0098C7232404FE232604FE40
:100550009843C166558F98C385669843718F23264B
:10056000E4FE032784FE05072324E4FE0327C4FEDC
:1005700009E7032784FEE312D7FE984385479316C5
:10058000E70063DD06062326F4FE0327C4FE631F8F
:10059000F704B7170240D843B706C1FFFD16D8C30A
:1005A000D843D8C3D84313670740D8C3D843758FFF
:1005B000D8C3D843B7062900558FD8C39843B70688
:1005C0000001558F98C3984393166700E3DD06FE3C
:1005D000D843B7160240719BD8C3D843136727008E
:1005E000D8C32147DC42B18BE39EE7FEF240624470
:1005F000056101468146014781478280232604FE2A
:1006000069B700000F0000000100000010000000AA
:00000001FF
