:100000006F00C03713000000130000001300000051
:100010001300000013000000130000001300000094
:100020001300000013000000130000001300000084
:08003000130000007300100032
:1000380000000000000000000603000008030000A4
:10004800000000000A03000000000000000000009B
:100058000C0300000E030000000000000000000078
:100068001003000000000000120300000000000060
:100078001403000016030000180300001A03000010
:100088001C0300001E0300002003000022030000E0
:100098002403000026030000280300002A030000B0
:1000A8002C0300002E030000300300003203000080
:1000B8003403000036030000380300003A03000050
:1000C8003C0300003E030000400300004203000020
:1000D8004403000046030000480300004A030000F0
:1000E8004C0300004E0300005003000052030000C0
:1000F8005403000056030000580300005A03000090
:100108005C0300005E03000060030000620300005F
:100118006403000066030000680300006A0300002F
:100128006C0300006E030000700300000000000074
:100138000000000072030000780300007A0300004A
:1001480074030000760300000000000000000000B7
:100158000000000000000000000000000000000097
:100168000000000000000000000000000000000087
:0801780000000000000000007F
:10018000011122CC001006CE314693050051130513
:1001900044FE292837150140930544FE130505C088
:1001A0008120F2406244014505618280411122C4F0
:1001B00006C600088147631BF600B2402244410195
:1001C0008145014681460147814782803387F5009A
:1001D000834607003307F50085072300D700E1BFFA
:1001E000411122C406C600089C4513F7070113F805
:1001F000F70001C7D8413368E80037270240145B95
:100200003717014013D686013D8A71EE85461706E1
:1002100000202309D6DE6317E50003D705003583E8
:100220002390E50083D5050013F7F50F39C3184176
:100230008146854E3D4F930F800293028004214EEC
:100240003396DE00B3F8C5006311160393982600B9
:1002500033131F011343F3FF3377E300B31818017F
:1002600033E7E8006399F70950C98506E39AC6FDAC
:1002700018C11307F00F6376B70454410146854E49
:100280003D4F930F800293028004214E1307860096
:100290003397EE00B3F8E5006311170393182600B7
:1002A00033131F011343F3FFB376D300B3181801C0
:1002B000B3E6D8006395F70558C90506E318C6FDEF
:1002C00054C1B2402244410181420143014581456C
:1002D000014681460147814701488148014E814ED0
:1002E000014F814F8280E31FE5F21707002003478B
:1002F00067D10DDB1DB7E39A57F610C9BDB7E39E72
:1003000057FA18C95DBF01A001A001A001A001A07A
:1003100001A001A001A001A001A001A001A001A0D5
:1003200001A001A001A001A001A001A001A001A0C5
:1003300001A001A001A001A001A001A001A001A0B5
:1003400001A001A001A001A001A001A001A001A0A5
:1003500001A001A001A001A001A001A001A001A095
:1003600001A001A001A001A001A001A001A001A085
:1003700001A001A001A001A001A001A097010020FF
:1003800093814148175100201301C1C71305C05183
:1003900097050020938505C717060020130686C61B
:1003A00063FAC5008322050023A0550011059105BD
:1003B000E3EAC5FE170500201305C5C49705002014
:1003C000938585C46377B500232005001105E36D8F
:1003D000B5FEFD42739002BC8D4273904280930241
:1003E000800873A0023097020000938222C593E236
:1003F000320073905230EF00400197020000938268
:1004000062D873901234730020300111B717024084
:1004100022CC06CE00109843B706FFF8370602003C
:100420001367170098C3D843758FD8C39843B7068E
:10043000F7FEFD16758F98C39843B706FCFFFD16AF
:10044000758F98C3D843B70681FFFD16758FD8C343
:1004500037079F0098C7232404FE232604FE9843F1
:10046000C166558F98C385669843718F2326E4FE35
:10047000032784FE05072324E4FE0327C4FE09E7BF
:10048000032784FEE312D7FE984385479316E700BF
:1004900063DD06062326F4FE0327C4FE631FF7046C
:1004A000B7170240D843B706C1FFFD16D8C3D843DB
:1004B000D8C3D84313670740D8C3D843758FD8C370
:1004C000D843B7062900558FD8C39843B706000113
:1004D000558F98C3984393166700E3DD06FED84313
:1004E000B7160240719BD8C3D84313672700D8C3FF
:1004F0002147DC42B18BE39EE7FEF2406244056196
:1005000001468146014781478280232604FE69B760
:0C0510000F0000000100000010000000BF
:00000001FF
