:100000006F00A03813000000130000001300000070
:100010001300000013000000130000001300000094
:100020001300000013000000130000001300000084
:08003000130000007300100032
:1000380000000000000000001E0300002003000074
:100048000000000022030000000000000000000083
:100058002403000026030000000000000000000048
:1000680028030000000000002A0300000000000030
:100078002C0300002E0300003003000032030000B0
:100088003403000036030000380300003A03000080
:100098003C0300003E030000400300004203000050
:1000A8004403000046030000480300004A03000020
:1000B8004C0300004E0300005003000052030000F0
:1000C8005403000056030000580300005A030000C0
:1000D8005C0300005E030000600300006203000090
:1000E8006403000066030000680300006A03000060
:1000F8006C0300006E030000700300007203000030
:100108007403000076030000780300007A030000FF
:100118007C0300007E0300008003000082030000CF
:10012800840300008603000088030000000000002C
:080138000000000000000000BF
:10014000011106CEAD229305C06E31464800A921AB
:10015000371501404C00130505C025203715014017
:10016000BD45130505C0212A1305401F952A3715E3
:100170000140BD45130505C0392A1305401F8D22D6
:10018000F1BF9C4513F7070113F8F70001C7D841E9
:100190003368E80037270240145B3717014013D655
:1001A00086013D8A4DEE8546170600202300D6E6DF
:1001B0006317E50003D7050035832390E50083D559
:1001C000050013F7F50F39C318418146854E3D4FA1
:1001D000930F800293028004214E3396DE00B3F821
:1001E000C500631116039398260033131F011343B0
:1001F000F3FF3377E300B318180133E7E80063989F
:10020000F70750C98506E39AC6FD18C11307F00F1A
:100210006376B70454410146854E3D4F930F8002EB
:1002200093028004214E130786003397EE00B3F843
:10023000E500631117039318260033131F011343BE
:10024000F3FFB376D300B3181801B3E6D800639474
:10025000F70358C90506E318C6FD54C18280E310B0
:10026000E5F617070020034767DA31DBA1B7E39B08
:1002700057F810C941BFE39F57FC18C9E1BFB71732
:1002800001406318F5009707002083C727D891C362
:10029000B5810CC98280B71701406318F500970734
:1002A000002083C7A7D691C3B5814CC98280970728
:1002B000002083A727D537177A0013070720B3D765
:1002C000E70293F7F70F170700202303F7D413076C
:1002D000803EB387E70217070020231AF7D28280F7
:1002E000B7F700E0D8438146799BD8C317070020B1
:1002F0000357E7D13306A70290CBD4CB98431367BB
:10030000070198C398431367170298C3D843058B16
:1003100075DF9843799B98C382808280828001A098
:1003200001A001A001A001A001A001A001A001A0C5
:1003300001A001A001A001A001A001A001A001A0B5
:1003400001A001A001A001A001A001A001A001A0A5
:1003500001A001A001A001A001A001A001A001A095
:1003600001A001A001A001A001A001A001A001A085
:1003700001A001A001A001A001A001A001A001A075
:1003800001A001A001A001A001A09701002093817C
:10039000E147175100201301E1C61305806F97054F
:1003A0000020938525C617060020130626C663FA8B
:1003B000C5008322050023A0550011059105E3EA3D
:1003C000C5FE17050020130565C497050020938519
:1003D000A5DD6377B500232005001105E36DB5FEAB
:1003E000FD42739002BC8D4273904280930280085C
:1003F00073A0023097020000938242C493E232005D
:10040000739052301705000013054516E5280122A8
:10041000EF004001970200009382C2D27390123421
:1004200073002030B717024098434111B706FFF818
:100430001367170098C3D84337060200758FD8C3D7
:100440009843B706F7FEFD16758F98C39843B70615
:10045000FCFFFD16758F98C3D843B70681FFFD16C4
:10046000758FD8C337079F0098C702C402C6984348
:10047000C166558F98C385669843718F3AC62247E7
:1004800005073AC4324701E72247E317D7FE9843EE
:1004900085479316E70063D506063EC63247631FBD
:1004A000F704B7170240D843B706C1FFFD16D8C3FB
:1004B000D843D8C3D84313670740D8C3D843758FF0
:1004C000D8C3D843B7061100558FD8C39843B70691
:1004D0000001558F98C3984393166700E3DD06FE2D
:1004E000D843B7160240719BD8C3D843136727007F
:1004F000D8C32147DC42B18BE39EE7FE41018280F5
:1005000002C669BFAA8581460146014595AA4111E7
:1005100022C44AC006C626C2130900001304000004
:10052000630D8900330989401359294081441C40D7
:10053000850411048297E3EC24FF130900001304DF
:100540000000630D89003309894013592940814413
:100550001C40850411048297E3EC24FFB24022443E
:100560009244024941018280411122C49307000054
:1005700013040000818F26C206C693D4274081C889
:1005800071143E941C40FD1471148297E5FCB24036
:100590002244924441018280B3C7A5008D8BB308E9
:1005A000C500B1E71336460039E2937735002A8754
:1005B000CDE713F6C8FFB306E6409307000263C415
:1005C000D704AE86BA876371C70203A806009107F5
:1005D000910623AE07FFE3EAC7FE7D16198E719AD6
:1005E00091051107B29532976366170182802A87B9
:1005F000E37E15FF83C7050005078505A30FF7FEFA
:10060000E39AE8FE8280944183A2450083AF85008F
:1006100003AFC50083AE050103AE450103A3850109
:1006200003A8C50114C3945113074702232057FEA2
:10063000232ED7FE2322F7FFB306E6402324E7FF4D
:100640002326D7FF2328C7FF232A67FE232C07FF73
:1006500093854502E3C9D7FAADB783C60500050700
:1006600093773700A30FD7FE8505A1D783C6050072
:10067000050793773700A30FD7FE8505F9FF15BF50
:1006800083A78180A1C3D8437D48634FE804131832
:1006900027001DC1338307012324C30883A88718BB
:1006A00005463316E600B3E8C80023A4171923242F
:1006B000D3108946630FD5000507D8C3C2978CC7EE
:1006C00001458280B70700209387470123A4F1806A
:1006D0005DBF83A6C7180507D8C3D18E23A6D71838
:1006E000C2978CC7014582807D5582800F00000033
:0806F0000100000010000000F1
:0806F8000100000000000000F9
:00000001FF
