:100000006F00E06113000000130000001300000007
:100010001300000013000000130000001300000094
:100020001300000013000000130000001300000084
:08003000130000007300100032
:100038000000000000000000B2050000B405000048
:1000480000000000B60500000000000000000000ED
:10005800B8050000BA05000000000000000000001C
:10006800BC05000000000000BE0500000000000004
:10007800C0050000C2050000C4050000C605000058
:10008800C8050000CA050000CC050000CE05000028
:10009800D0050000D2050000D4050000D6050000F8
:1000A800D8050000DA050000DC050000DE050000C8
:1000B800E0050000E2050000E4050000E605000098
:1000C800E8050000EA050000EC050000EE05000068
:1000D800F0050000F2050000F4050000F605000038
:1000E800F8050000FA050000FC050000FE05000008
:1000F80000060000020600000406000006060000D4
:10010800080600000A0600000C0600000E060000A3
:100118001006000012060000140600001606000073
:10012800180600001A0600001C0600000000000067
:080138000000000000000000BF
:10014000411122C406C600082244B240AA85814655
:1001500001460145410145A0011122CC26CA4EC6E7
:1001600006CE4AC800109309000093040000638D76
:100170009900B389994093D9294001499C400509C8
:1001800091048297E36C39FF930900009304000007
:10019000638D9900B389994093D9294001499C40C6
:1001A000050991048297E36C39FFF2406244D2441E
:1001B0004249B249056181478280411126C29307B5
:1001C00000009304000022C44AC006C60008858FC0
:1001D00013D92740630A0900F114BE949C407D198D
:1001E000F1148297E31C09FEB24022449244024972
:1001F000410181478280797122D426D200184AD0E9
:100200004ECE52CC06D6B70400202A8903A504009E
:10021000232EB4FCB289368AC520370700208327F5
:10022000C7008325C4FDADCBD843FD4603A504001C
:1002300063C9E60693162700631709020507D8C3AA
:10024000B6978CC7E5280145B25022549254025902
:10025000F249624A4561814501468146014781472D
:10026000014881488280B388D70023A4380903A8B5
:10027000871805463316E6003368C80023A407191B
:1002800023A448110948E31B09FB03A8C7183366D8
:10029000C80023A6C7185DB7938781822326F7007D
:1002A00061B769287D554DB7411122C406C60008C3
:1002B000B240224441018280411122C406C6000896
:1002C000B240224441018280411122C406C6000886
:1002D000B240224441018280411122C406C6000876
:1002E000B240224441018280411122C406C6000866
:1002F000B240224441018280411122C406C6000856
:10030000B240224441018280411122C406C6000845
:10031000B2402244054541018280411122C406C6F3
:100320000008B2402244054541018280411122C4A7
:1003300006C60008B240224441018280411122C415
:1003400006C60008B240224441018280011122CC3D
:1003500006CE0010854541456D2AA1672322F4FE93
:100360008D472324F4FE930544FEC1473715014011
:100370002326F4FE0520A165371501403D2A13050B
:10038000401F7D2AA16537150140B12A1305401F82
:10039000452AD5B7411122C406C600089C4513F76B
:1003A000070113F8F70001C7D8413368E800372781
:1003B0000240145B3717014013D686013D8A71EE67
:1003C0008546170600202303D6C46317E50003D72C
:1003D000050035832390E50083D5050013F7F50F5D
:1003E00039C318418146854E3D4F930F80029302D9
:1003F0008004214E3396DE00B3F8C5006311160366
:100400009398260033131F011343F3FF3377E30060
:10041000B318180133E7E8006399F70950C9850656
:10042000E39AC6FD18C11307F00F6376B704544171
:100430000146854E3D4F930F800293028004214E6A
:10044000130786003397EE00B3F8E5006311170336
:100450009318260033131F011343F3FFB376D30021
:10046000B3181801B3E6D8006395F70558C9050617
:10047000E318C6FD54C1B240224441018142014308
:100480000145814501468146014781470148814830
:10049000014E814E014F814F8280E31FE5F2170725
:1004A00000200347A7B60DDB1DB7E39A57F610C926
:1004B000BDB7E39E57FA18C95DBF411122C406C6F5
:1004C0000008B71701406318F5009707002083C79D
:1004D000E7B391C3B581B24022440CC94101014543
:1004E000814581478280411122C406C60008B717A2
:1004F00001406318F5009707002083C727B191C317
:10050000B581B24022444CC9410101458145814732
:100510008280411122C406C60008B7170240984FD6
:1005200099C9498F98CFB240224441010145814584
:100530000147814782801345F5FF798D88CFE5B764
:100540004111B7F700E022C406C60008D84381462F
:10055000799BD8C317070020035767AB3306A70260
:1005600090CBD4CB98431367070198C39843136784
:10057000170298C3D843058B75DF9843B2402244D5
:10058000799B98C341010145014681460147814756
:100590008280411122C406C60008B24022444101B3
:1005A0008280411122C406C60008B24022444101A3
:1005B000828001A001A001A001A001A001A001A0D2
:1005C00001A001A001A001A001A001A001A001A023
:1005D00001A001A001A001A001A001A001A001A013
:1005E00001A001A001A001A001A001A001A001A003
:1005F00001A001A001A001A001A001A001A001A0F3
:1006000001A001A001A001A001A001A001A001A0E2
:1006100001A001A001A001A001A001A001A09701DB
:1006200000209381A11E175100201301A19D1305E5
:10063000007C970500209385E59C17060020130693
:10064000E69C63FAC5008322050023A0550011052E
:100650009105E3EAC5FE170500201305259B9705C4
:100660000020938525B66377B5002320050011058A
:10067000E36DB5FEFD42739002BC8D4273904280E3
:100680009302800873A00230970200009382029BBD
:1006900093E232007390523017050000130525B223
:1006A00045345D3CEF00400197020000938242CA4E
:1006B00073901234730020300111B717024022CC1E
:1006C00006CE00109843B706FFF8370602001367FE
:1006D000170098C3D843758FD8C39843B706F7FE61
:1006E000FD16758F98C39843B706FCFFFD16758FEE
:1006F00098C3D843B70681FFFD16758FD8C3370757
:100700009F0098C7232404FE232604FE9843C16655
:10071000558F98C385669843718F2326E4FE03277F
:1007200084FE05072324E4FE0327C4FE09E703270C
:1007300084FEE312D7FE984385479316E70063DDF6
:1007400006062326F4FE0327C4FE631FF704B7172B
:100750000240D843B706C1FFFD16D8C3D843D8C35B
:10076000D84313670740D8C3D843758FD8C3D8433D
:10077000B7062900558FD8C39843B7060001558F97
:1007800098C3984393166700E3DD06FED843B71677
:100790000240719BD8C3D84313672700D8C32147B1
:1007A000DC42B18BE39EE7FEF24062440561014604
:1007B0008146014781478280232604FE69B70000F5
:0807C0002800002000000000E9
:00000001FF
