:100000006F00C04513000000130000001300000043
:100010001300000013000000130000001300000094
:100020001300000013000000130000001300000084
:08003000130000007300100032
:100038000000000000000000E6030000E8030000E4
:1000480000000000EA0300000000000000000000BB
:10005800EC030000EE0300000000000000000000B8
:10006800F003000000000000F203000000000000A0
:10007800F4030000F6030000F8030000FA03000090
:10008800FC030000FE03000000040000020400005E
:100098000404000006040000080400000A0400002C
:1000A8000C0400000E0400001004000012040000FC
:1000B8001404000016040000180400001A040000CC
:1000C8001C0400001E04000020040000220400009C
:1000D8002404000026040000280400002A0400006C
:1000E8002C0400002E04000030040000320400003C
:1000F8003404000036040000380400003A0400000C
:100108003C0400003E0400004004000042040000DB
:100118004404000046040000480400004A040000AB
:100128004C0400004E0400005004000000000000D1
:100138000000000052040000580400005A040000A7
:1001480054040000560400000000000000000000F5
:100158000000000000000000000000000000000097
:100168000000000000000000000000000000000087
:0801780000000000000000007F
:10018000011122CC06CE0010854541456D2AA1679C
:100190002322F4FE8D472324F4FE930544FEC14739
:1001A000371501402326F4FE0520A16537150140CF
:1001B0003D2A1305401F7D2AA16537150140B12A4C
:1001C0001305401F452AD5B7411122C406C60008B1
:1001D0009C4513F7070113F8F70001C7D8413368AE
:1001E000E80037270240145B3717014013D6860119
:1001F0003D8A71EE8546170600202305D6E0631779
:10020000E50003D7050035832390E50083D505007D
:1002100013F7F50F39C318418146854E3D4F930FB3
:10022000800293028004214E3396DE00B3F8C500AD
:10023000631116039398260033131F011343F3FF32
:100240003377E300B318180133E7E8006399F7093F
:1002500050C98506E39AC6FD18C11307F00F6376EF
:10026000B70454410146854E3D4F930F80029302DF
:100270008004214E130786003397EE00B3F8E500A3
:10028000631117039318260033131F011343F3FF61
:10029000B376D300B3181801B3E6D8006395F70519
:1002A00058C90506E318C6FD54C1B24022444101B5
:1002B000814201430145814501468146014781470D
:1002C00001488148014E814E014F814F8280E31FDA
:1002D000E5F2170700200347E7D20DDB1DB7E39ACD
:1002E00057F610C9BDB7E39E57FA18C95DBF411153
:1002F00022C406C60008B71701406318F500970727
:10030000002083C727D091C3B581B24022440CC9D5
:1003100041010145814581478280411122C406C6C1
:100320000008B71701406318F5009707002083C73E
:1003300067CD91C3B581B24022444CC9410101450A
:10034000814581478280411122C406C60008B71743
:100350000240984F99C9498F98CFB2402244410139
:10036000014581450147814782801345F5FF798D1D
:1003700088CFE5B74111B7F700E022C406C60008F0
:10038000D8438146799BD8C3170700200357A7C7D6
:100390003306A70290CBD4CB98431367070198C3C9
:1003A00098431367170298C3D843058B75DF9843AA
:1003B000B2402244799B98C34101014501468146E0
:1003C000014781478280411122C406C60008B2401D
:1003D000224441018280411122C406C60008B24075
:1003E00022444101828001A001A001A001A001A03E
:1003F00001A001A001A001A001A001A001A001A0F5
:1004000001A001A001A001A001A001A001A001A0E4
:1004100001A001A001A001A001A001A001A001A0D4
:1004200001A001A001A001A001A001A001A001A0C4
:1004300001A001A001A001A001A001A001A001A0B4
:1004400001A001A001A001A001A001A001A001A0A4
:1004500001A001A001A001A001A001A0970100201E
:100460009381413A175100201301C1B91305005F70
:1004700097050020938505B917060020130686B856
:1004800063FAC5008322050023A0550011059105DC
:10049000E3EAC5FE170500201305C5B69705002041
:1004A000938585B66377B500232005001105E36DBC
:1004B000B5FEFD42739002BC8D4273904280930260
:1004C000800873A0023097020000938222B793E263
:1004D000320073905230EF00400197020000938287
:1004E00062CA73901234730020300111B7170240B2
:1004F00022CC06CE00109843B706FFF8370602005C
:100500001367170098C3D843758FD8C39843B706AD
:10051000F7FEFD16758F98C39843B706FCFFFD16CE
:10052000758F98C3D843B70681FFFD16758FD8C362
:1005300037079F0098C7232404FE232604FE984310
:10054000C166558F98C385669843718F2326E4FE54
:10055000032784FE05072324E4FE0327C4FE09E7DE
:10056000032784FEE312D7FE984385479316E700DE
:1005700063DD06062326F4FE0327C4FE631FF7048B
:10058000B7170240D843B706C1FFFD16D8C3D843FA
:10059000D8C3D84313670740D8C3D843758FD8C38F
:1005A000D843B7062900558FD8C39843B706000132
:1005B000558F98C3984393166700E3DD06FED84332
:1005C000B7160240719BD8C3D84313672700D8C31E
:1005D0002147DC42B18BE39EE7FEF24062440561B5
:1005E00001468146014781478280232604FE69B780
:00000001FF
