:100000006F00F01613000000130000001300000042
:100010001300000013000000130000001300000094
:100020001300000013000000130000001300000084
:08003000130000007300100032
:100038000000000000000000DE060000EE060000E0
:1000480000000000B40800000000000000000000EC
:10005800B6080000B808000000000000000000001A
:10006800BA08000000000000BC0800000000000002
:10007800BE080000C0080000C2080000C408000054
:10008800C6080000C8080000CA080000CC08000024
:10009800CE080000D0080000D2080000D4080000F4
:1000A800D6080000D8080000DA080000DC080000C4
:1000B800DE080000E0080000E2080000E408000094
:1000C800E6080000E8080000EA080000EC08000064
:1000D800EE080000F0080000F2080000F408000034
:1000E800F6080000F8080000FA080000FC08000004
:1000F800FE080000000900000209000004090000D1
:1001080006090000080900000A0900000C0900009F
:100118000E0900001009000012090000140900006F
:1001280016090000180900001A0900001C0900003F
:100138001E0900002009000022090000240900000F
:1001480026090000280900002A0900002C090000DF
:100158002E090000300900003209000034090000AF
:1001680036090000380900003A0900003C0900007F
:100178003E0900004009000042090000440900004F
:1001880046090000480900004A0900004C0900001F
:100198004E090000500900005209000054090000EF
:1001A80056090000580900005A0900005C090000BF
:1001B8005E0900006009000062090000640900008F
:1001C80066090000680900006A0900006C0900005F
:1001D8000000000000000000000000000000000017
:1001E8000000000000000000000000000000000007
:0801F8000000000000000000FF
:10020000411122C406C600082244B240AA85814694
:10021000014601454101C9AA011122CC26CA4EC698
:1002200006CE4AC8001085698564938949A49384E1
:1002300044A4638D9900B389994093D92940014919
:100240009C40050991048297E36C39FF85698564B8
:10025000938989A4938444A4638D9900B3899940B8
:1002600093D9294001499C40050991048297E36C88
:1002700039FFF2406244D2444249B24905618147A4
:100280008280411126C285678564938787A4938401
:1002900084A422C44AC006C60008858F13D927400B
:1002A000630A0900F114BE949C407D19F1148297F1
:1002B000E31C09FEB24022449244024941018147B5
:1002C0008280411122C406C60008B3C7A5008D8BE9
:1002D000B308C500BDE71336460025E69377350021
:1002E0002A87E5E313F6C8FFB306E640930700024A
:1002F00063CDD706AE86BA876371C70203A806002E
:100300009107910623AE07FFE3EAC7FE7D16198E1B
:10031000719A91051107B295329763671703B2403E
:100320002244410181420143814381450146814686
:100330000147814701488148014E814E014F814F5D
:1003400082802A87E37D15FD83C7050005078505A3
:10035000A30FF7FEE385E8FC83C7050005078505C5
:10036000A30FF7FEE392E8FE5DBF945183A305005F
:1003700083A2450083AF850003AFC50083AE0501AE
:1003800003AE450103A3850103A8C5011307470276
:10039000232ED7FE232E77FCB306E640232057FEFC
:1003A0002322F7FF2324E7FF2326D7FF2328C7FFB5
:1003B000232A67FE232C07FF93854502E3C7D7FA5C
:1003C00015BF83C60500050793773700A30FD7FE37
:1003D000850589DB83C60500050793773700A30FE2
:1003E000D7FE8505F9FFFDBD797122D426D200180C
:1003F0004AD04ECE52CC06D6B70400202A8903A597
:100400004400232EB4FCB289368AF12883A70181E7
:100410008325C4FDADCBD843FD4603A5440063C985
:10042000E60693162700631709020507D8C3B69797
:100430008CC7E5280145B250225492540259F24922
:10044000624A45618145014681460147814701482D
:1004500081488280B388D70023A4380903A887186D
:1004600005463316E6003368C80023A4071923A401
:1004700048110948E31B09FB03A8C7183366C800E5
:1004800023A6C7185DB79387418323A8F18061B77E
:1004900069287D554DB7411122C406C60008B240F7
:1004A000224441018280411122C406C60008B240A4
:1004B000224441018280411122C406C60008B24094
:1004C000224441018280411122C406C60008B24084
:1004D000224441018280411122C406C60008B24074
:1004E000224441018280411122C406C60008B24064
:1004F000224441018280411122C406C60008B24054
:100500002244054541018280411122C406C60008EB
:10051000B2402244054541018280411122C406C6F1
:100520000008B240224441018280411122C406C623
:100530000008B240224441018280011106CE22CC43
:1005400009450010552A3926B71702409843C1665D
:10055000558F98C398439316E700E3DD06FED84312
:10056000D166938606C0558FD8C39843B70600015D
:10057000558F98C3B7170240984393166700E3DD81
:1005800006FED843B7160240719BD8C3D843136701
:100590002700D8C32147DC42B18BE39EE7FE8545A7
:1005A0004145BD2297050000938545493146130515
:1005B00044FE013B930544FE3715014021280546C2
:1005C000A16537150140ED280146A16537150140A9
:1005D000C528F5B7411122C406C600089C4513F78B
:1005E000070113F8F70001C7D8413368E80083D545
:1005F000050013F7F50F39C318418146854E3D4F6D
:10060000930F800293028004214E3396DE00B3F8EC
:10061000C500631116039398260033131F0113437B
:10062000F3FF3377E300B318180133E7E800639171
:10063000F70950C98506E39AC6FD18C11307F00FE4
:100640006376B70454410146854E3D4F930F8002B7
:1006500093028004214E130786003397EE00B3F80F
:10066000E500631117039318260033131F0113438A
:10067000F3FFB376D300B3181801B3E6D800639D37
:10068000F70358C90506E318C6FD54C1B240224419
:1006900041018142014301458145014681460147AF
:1006A000814701488148014E814E014F814F828030
:1006B000E39257F810C9BDBFE39657FC18C9D9B7E4
:1006C000411122C406C6000809CA0CC9B24022441E
:1006D000410101458145014682804CC9C5BF411198
:1006E00022C406C60008B240224441018280411162
:1006F00022C406C6000801A0411122C406C6000893
:10070000B240224423A4A180410101458147828057
:10071000411122C406C60008B7170240984F99C974
:10072000498F98CFB240224441010145814501479C
:10073000814782801345F5FF798D88CFE5B7011198
:10074000B717024022CC06CE00109843B706FFF838
:10075000370602001367170098C3D843758FD8C3B4
:100760009843B706F7FEFD16758F98C39843B706F2
:10077000FCFFFD16758F98C3D843B70681FFFD16A1
:10078000758FD8C39843B70600ECFD16758F98C3D4
:100790003707FF0098C723A60702232404FE232659
:1007A00004FE9843C166558F98C385669843718F40
:1007B0002326E4FE032784FE05072324E4FE032703
:1007C000C4FE09E7032784FEE312D7FE984385475A
:1007D0009316E70063DD06062326F4FE0327C4FE16
:1007E000631FF704B7170240D843B706C1FFFD16D1
:1007F000D8C3D843D8C3D84313670740D8C3D84316
:10080000758FD8C3D843B7062900558FD8C39843EE
:10081000B7060001558F98C3984393166700E3DD30
:1008200006FED843B7160240719BD8C3D84313675E
:100830002700D8C32147DC42B18BE39EE7FEF2409C
:100840006244056101468146014781478280232633
:1008500004FE69B7411122C406C6000897F7FF1FBE
:1008600083A7477A37177A0013070720B3D7E70221
:10087000B240224493F7F70F2387F1801307803E9D
:10088000B387E7022396F1804101014781478280C7
:10089000411122C406C60008B240224441018280B0
:1008A000411122C406C60008B240224441018280A0
:1008B00001A001A001A001A001A001A001A001A030
:1008C00001A001A001A001A001A001A001A001A020
:1008D00001A001A001A001A001A001A001A001A010
:1008E00001A001A001A001A001A001A001A001A000
:1008F00001A001A001A001A001A001A001A001A0F0
:1009000001A001A001A001A001A001A001A001A0DF
:1009100001A001A001A001A001A001A001A001A0CF
:1009200001A001A001A001A001A001A001A001A0BF
:1009300001A001A001A001A001A001A001A001A0AF
:1009400001A001A001A001A001A001A001A001A09F
:1009500001A001A001A001A001A001A001A001A08F
:1009600001A001A001A001A001A001A001A0970188
:100970000020938121E9177100201301A168170558
:1009800000001305A50C97F5FF1F9385A56717F6C3
:10099000FF1F1306A66763FAC5008322050023A084
:1009A000550011059105E3EAC5FE13858180970581
:1009B0000020938565816377B5002320050011052C
:1009C000E36DB5FEFD42739002BCAD427390428070
:1009D00099629382820873A0023097F2FFFF93829C
:1009E000E26593E232007390523017050000130560
:1009F0008589EFF0FF80EFF03F82EFF05FD4970240
:100A000000009382C2B373901234730020304111FE
:100A100022C406C600089307000081CB2244B240DE
:100A20001305202841016FF0AFFDB240224441017F
:100A30000145814782800000008000000300000023
:040A400010000000A2
:040A44000E0A000096
:080A480000D8B8052C000020C5
:00000001FF
