:100000006F00C0691300000013000000130000001F
:100010001300000013000000130000001300000094
:100020001300000013000000130000001300000084
:08003000130000007300100032
:1000380000000000000000007404000084040000B8
:1000480000000000F60500000000000000000000AD
:10005800F8050000FA05000000000000000000009C
:10006800FC05000000000000FE0500000000000084
:100078000006000002060000040600000606000054
:10008800080600000A0600000C0600000E06000024
:1000980010060000120600001406000016060000F4
:1000A800180600001A0600001C0600001E060000C4
:1000B8002006000022060000240600002606000094
:1000C800280600002A0600002C0600002E06000064
:1000D8003006000032060000340600003606000034
:1000E800380600003A0600003C0600003E06000004
:1000F80040060000420600004406000046060000D4
:10010800480600004A0600004C0600004E060000A3
:1001180050060000520600000000000054060000CF
:1001280056060000580600005A0600005C0600004B
:100138005E0600006006000062060000640600001B
:1001480066060000680600006A0600006C060000EB
:100158006E060000700600007206000074060000BB
:10016800760600000000000000000000000000000B
:1001780000000000000000000000000078060000F9
:100188000000000000000000000000007A060000E7
:100198007C0600007E060000800600008206000043
:1001A8008406000086060000880600008A06000013
:1001B8008C0600008E0600009006000092060000E3
:1001C8009406000096060000980600009A060000B3
:1001D8000000000000000000000000000000000017
:1001E8000000000000000000000000000000000007
:0801F8000000000000000000FF
:10020000411122C406C60008B3C7A5008D8BB308F0
:10021000C500BDE71336460025E6937735002A87EB
:10022000E5E313F6C8FFB306E6409307000263CD8B
:10023000D706AE86BA876371C70203A80600910786
:10024000910623AE07FFE3EAC7FE7D16198E719A69
:1002500091051107B295329763671703B2402244A4
:100260004101814201438143814501468146014765
:10027000814701488148014E814E014F814F828064
:100280002A87E37D15FD83C7050005078505A30FB4
:10029000F7FEE385E8FC83C7050005078505A30F86
:1002A000F7FEE392E8FE5DBF945183A3050083A2AD
:1002B000450083AF850003AFC50083AE050103AEE3
:1002C000450103A3850103A8C50113074702232E97
:1002D000D7FE232E77FCB306E640232057FE2322C9
:1002E000F7FF2324E7FF2326D7FF2328C7FF232A6E
:1002F00067FE232C07FF93854502E3C7D7FA15BF96
:1003000083C60500050793773700A30FD7FE850541
:1003100089DB83C60500050793773700A30FD7FE57
:100320008505F9FFFDBD011106CE22CC85450010E3
:100330004145B12A9305C0723146130544FEC935C3
:10034000930544FE371501401128A165371501407A
:10035000E528A165371501401922C5BF411122C406
:1003600006C600089C4513F7070113F8F70001C7FC
:10037000D8413368E80083D5050013F7F50F39C37A
:1003800018418146854E3D4F930F800293028004B1
:10039000214E3396DE00B3F8C5006311160393981F
:1003A000260033131F011343F3FF3377E300B31821
:1003B000180133E7E8006391F70950C98506E39A0D
:1003C000C6FD18C11307F00F6376B7045441014608
:1003D000854E3D4F930F800293028004214E1307F8
:1003E00086003397EE00B3F8E50063111703931806
:1003F000260033131F011343F3FFB376D300B31862
:100400001801B3E6D800639DF70358C90506E31841
:10041000C6FD54C1B240224441018142014301451D
:100420008145014681460147814701488148014E87
:10043000814E014F814F8280E39257F810C9BDBFB2
:10044000E39657FC18C9D9B7411122C406C6000863
:10045000B24022440CC941010145814582804111CD
:1004600022C406C60008B24022444CC941010145DD
:1004700081458280411122C406C60008B240224450
:1004800041018280411122C406C6000801A0411129
:1004900022C406C60008B7170240984F99C9498F71
:1004A00098CFB2402244410101458145014781472F
:1004B00082801345F5FF798D88CFE5B70111B71715
:1004C000024022CC06CE00109843B706FFF837064C
:1004D00002001367170098C3D843758FD8C3984399
:1004E000B706F7FEFD16758F98C39843B706FCFF55
:1004F000FD16758F98C3D843B70681FFFD16758F1B
:10050000D8C39843B70600ECFD16758F98C337071C
:10051000FF0098C723A60702232404FE232604FE17
:100520009843C166558F98C385669843718F23267B
:10053000E4FE032784FE05072324E4FE0327C4FE0C
:1005400009E7032784FEE312D7FE984385479316F5
:10055000E70063DD06062326F4FE0327C4FE631FBF
:10056000F704B7170240D843B706C1FFFD16D8C33A
:10057000D843D8C3D84313670740D8C3D843758F2F
:10058000D8C3D843B7062900558FD8C39843B706B8
:100590000001558F98C3984393166700E3DD06FE6C
:1005A000D843B7160240719BD8C3D84313672700BE
:1005B000D8C32147DC42B18BE39EE7FEF2406244A0
:1005C000056101468146014781478280232604FE5A
:1005D00069B7411122C406C60008B2402244410155
:1005E0008280411122C406C60008B2402244410163
:1005F000828001A001A001A001A001A001A001A092
:1006000001A001A001A001A001A001A001A001A0E2
:1006100001A001A001A001A001A001A001A001A0D2
:1006200001A001A001A001A001A001A001A001A0C2
:1006300001A001A001A001A001A001A001A001A0B2
:1006400001A001A001A001A001A001A001A001A0A2
:1006500001A001A001A001A001A001A001A001A092
:1006600001A001A001A001A001A001A001A001A082
:1006700001A001A001A001A001A001A001A001A072
:1006800001A001A001A001A001A001A001A001A062
:1006900001A001A001A001A001A001A097010020DC
:1006A00093814116178100201301C19513058073B2
:1006B000970500209385059517060020130686945C
:1006C00063FAC5008322050023A05500110591059A
:1006D000E3EAC5FE170500201305C5929705002023
:1006E000938545926377B500232005001105E36DDE
:1006F000B5FEFD42739002BCAD4273904280996298
:100700009382820873A002309702000093820293C2
:1007100093E2320073905230EFF05FDA97020000FC
:100720009382A2C0739012347300203000800000C6
:080730000200000010000000AF
:00000001FF
