:100000006F00804E1300000013000000130000007A
:100010001300000013000000130000001300000094
:100020001300000013000000130000001300000084
:08003000130000007300100032
:1000380000000000000000003E0400004004000032
:100048000000000042040000000000000000000062
:100058004404000046040000000000000000000006
:1000680048040000000000004A04000000000000EE
:100078004C0400004E04000050040000520400002C
:100088005404000056040000580400005A040000FC
:100098005C0400005E0400006004000062040000CC
:1000A8006404000066040000680400006A0400009C
:1000B8006C0400006E04000070040000720400006C
:1000C8007404000076040000780400007A0400003C
:1000D8007C0400007E04000080040000820400000C
:1000E8008404000086040000880400008A040000DC
:1000F8008C0400008E0400009004000092040000AC
:100108009404000096040000980400009A0400007B
:100118009C0400009E04000000000000A0040000F1
:10012800A2040000A4040000A6040000A804000023
:10013800AA040000AC040000AE040000B0040000F3
:10014800B2040000B4040000B6040000B8040000C3
:10015800BA040000BC040000BE040000C004000093
:10016800C2040000000000000000000000000000C1
:10017800000000000000000000000000C4040000AF
:10018800000000000000000000000000C60400009D
:10019800C8040000CA040000CC040000CE0400001B
:1001A800D0040000D2040000D4040000D6040000EB
:1001B800D8040000DA040000DC040000DE040000BB
:1001C800E0040000E2040000E4040000E60400008B
:1001D8000000000000000000000000000000000017
:1001E8000000000000000000000000000000000007
:0801F8000000000000000000FF
:10020000411122C406C60008B3C7A5008D8BB308F0
:10021000C500BDE71336460025E6937735002A87EB
:10022000E5E313F6C8FFB306E6409307000263CD8B
:10023000D706AE86BA876371C70203A80600910786
:10024000910623AE07FFE3EAC7FE7D16198E719A69
:1002500091051107B295329763671703B2402244A4
:100260004101814201438143814501468146014765
:10027000814701488148014E814E014F814F828064
:100280002A87E37D15FD83C7050005078505A30FB4
:10029000F7FEE385E8FC83C7050005078505A30F86
:1002A000F7FEE392E8FE5DBF945183A3050083A2AD
:1002B000450083AF850003AFC50083AE050103AEE3
:1002C000450103A3850103A8C50113074702232E97
:1002D000D7FE232E77FCB306E640232057FE2322C9
:1002E000F7FF2324E7FF2326D7FF2328C7FF232A6E
:1002F00067FE232C07FF93854502E3C7D7FA15BF96
:1003000083C60500050793773700A30FD7FE850541
:1003100089DB83C60500050793773700A30FD7FE57
:100320008505F9FFFDBD011122CC001006CE314636
:1003300093050069130544FEE13537150140930527
:1003400044FE130505C03120F240624401450561B9
:100350008280411122C406C600089C4513F707019C
:1003600013F8F70001C7D8413368E80083D50500CA
:1003700013F7F50F39C318418146854E3D4F930F52
:10038000800293028004214E3396DE00B3F8C5004C
:10039000631116039398260033131F011343F3FFD1
:1003A0003377E300B318180133E7E8006391F709E6
:1003B00050C98506E39AC6FD18C11307F00F63768E
:1003C000B70454410146854E3D4F930F800293027E
:1003D0008004214E130786003397EE00B3F8E50042
:1003E000631117039318260033131F011343F3FF00
:1003F000B376D300B3181801B3E6D800639DF703B2
:1004000058C90506E318C6FD54C1B2402244410153
:1004100081420143014581450146814601478147AB
:1004200001488148014E814E014F814F8280E39205
:1004300057F810C9BDBFE39657FC18C9D9B701A03A
:1004400001A001A001A001A001A001A001A001A0A4
:1004500001A001A001A001A001A001A001A001A094
:1004600001A001A001A001A001A001A001A001A084
:1004700001A001A001A001A001A001A001A001A074
:1004800001A001A001A001A001A001A001A001A064
:1004900001A001A001A001A001A001A001A001A054
:1004A00001A001A001A001A001A001A001A001A044
:1004B00001A001A001A001A001A001A001A001A034
:1004C00001A001A001A001A001A001A001A001A024
:1004D00001A001A001A001A001A001A001A001A014
:1004E00001A001A001A001A097010020938181310A
:1004F00017810020130101B11305C0699705002081
:10050000938545B0170600201306C6AF63FAC500F1
:100510008322050023A0550011059105E3EAC5FEDD
:1005200017050020130505AE97050020938585ADBE
:100530006377B500232005001105E36DB5FEFD428C
:10054000739002BCAD42739042809962938282089C
:1005500073A0023097020000938242AE93E2320011
:1005600073905230EF004001970200009382E2DB6B
:1005700073901234730020300111B717024022CC5F
:1005800006CE00109843B706FFF83706020013673F
:10059000170098C3D843758FD8C39843B706F7FEA2
:1005A000FD16758F98C39843B706FCFFFD16758F2F
:1005B00098C3D843B70681FFFD16758FD8C39843FB
:1005C000B70600ECFD16758F98C33707FF0098C774
:1005D00023A60702232404FE232604FE9843C166B3
:1005E000558F98C385669843718F2326E4FE0327B1
:1005F00084FE05072324E4FE0327C4FE09E703273E
:1006000084FEE312D7FE984385479316E70063DD27
:1006100006062326F4FE0327C4FE631FF704B7175C
:100620000240D843B706C1FFFD16D8C3D843D8C38C
:10063000D84313670740D8C3D843758FD8C3D8436E
:10064000B7062900558FD8C39843B7060001558FC8
:1006500098C3984393166700E3DD06FED843B716A8
:100660000240719BD8C3D84313672700D8C32147E2
:10067000DC42B18BE39EE7FEF24062440561014635
:100680008146014781478280232604FE69B7000026
:0C0690000F00000001000000100000003E
:00000001FF
