:100000006F300064130000001300000013000000B4
:100010001300000013000000130000001300000094
:100020001300000013000000130000001300000084
:08003000130000007300100032
:100038000000000000000000CA350000CC350000B8
:1000480000000000CE3500000000000000000000A5
:10005800D0350000D235000000000000000000008C
:10006800D435000000000000D63500000000000074
:10007800D8350000DA350000DC350000DE35000038
:10008800E0350000E2350000E4350000E635000008
:10009800E8350000EA350000EC350000EE350000D8
:1000A800F0350000F2350000F4350000F6350000A8
:1000B800F8350000FA350000FC350000FE35000078
:1000C8000036000002360000043600000636000044
:1000D800083600000A3600000C3600000E36000014
:1000E80010360000123600001436000016360000E4
:1000F800183600001A3600001C3600001E360000B4
:100108002036000022360000243600002636000083
:10011800283600002A3600002C3600002E36000053
:10012800303600003236000034360000000000008F
:1001380000000000363600003C3600003E36000065
:10014800383600003A3600000000000000000000C9
:100158000000000000000000000000000000000097
:100168000000000000000000000000000000000087
:0801780000000000000000007F
:10018000797122D426D200184AD006D62A892E8523
:10019000AE84D9229167032749031308150093877A
:1001A00007838545130604FE8946232094FE2322F7
:1001B000A4FE232E04FD2324F4FE2326B4FE232ACA
:1001C000C4FC232CD4FC8324890079C3FC500397FE
:1001D000C40093F61700ADC29316270163CB060641
:1001E000F976FD160966F58F518FFCD02396E40051
:1001F000139727016341070A4A85130644FDA68524
:100200004D233337A000FC503307E0401369A700AB
:10021000858B91E783D7C40093F70720A9C3B25019
:10022000225492544A8502594561814501468146CE
:10023000014781470148828093760720A1C2931627
:100240002701E3DF06F813972701E35707FA7D59E3
:10025000D1B713972701E35107FA7D59C9B7A84CC5
:10026000E520B250225492544A8502594561814595
:10027000014681460147814701488280A84C5920A8
:100280000397C400FC5093162701E3C306F689BF09
:100290004A85992925BF7D59A5BF411122C406C6AB
:1002A0000008B70700202244B240AA8503A547569C
:1002B0004101F9B5411122C406C60008B2402244EA
:1002C00041018280411122C406C60008B240224486
:1002D00041018280411122C406C60008B240224476
:1002E00041018280411122C406C60008B240224466
:1002F00041018280411122C406C60008B240224456
:1003000041018280411122C406C60008B240224445
:1003100041018280411122C406C60008B240224435
:10032000054541018280411122C406C60008B24041
:100330002244054541018280411122C406C60008BD
:10034000B240224441018280411122C406C6000805
:10035000B240224441018280411122C406C60008F5
:10036000937735002A87B9EBB7867F7F9386F6F7B8
:10037000FD5510431107B377D600B697D18FD58FAF
:10038000E389B7FE8346C7FFB307A7401385C7FFBE
:1003900081CE8346D7FF1385D7FF99C60345E7FF74
:1003A0003335A0003E957915B24022444101814584
:1003B00001468146014781478280DDD68347070099
:1003C000050793763700F5FB098F1305F7FFE9BFA3
:1003D000411122C406C600082244B240370600205C
:1003E000896537050020130606149385C51E13057D
:1003F000050041016F000070411122C426C24AC0AD
:1004000006C600084C419384C1832A896384950001
:10041000EF10D05D83258900938784066385F500FE
:100420004A85EF10B05C8325C9009384040D638A6C
:1004300095002244B24092444A85024941016F101E
:10044000F05AB2402244924402494101014581459B
:1004500081478280FC51858B91E783D7C50093F754
:10046000072089C70145814581478280411122C407
:1004700006C60008A84D7935B24022440145410125
:10048000814581478280FC51858B91E783D7C500E8
:1004900093F7072089C70145814581478280411133
:1004A00022C406C60008A84D4535B2402244014585
:1004B0004101814581478280011106CE22CC26CAA6
:1004C0004AC84EC652C456C200109384C183114715
:1004D0009307003DD8C4214681451385C40523A454
:1004E000F18223A0040023A2040023A4040023A279
:1004F000040623A8040023AA040023AC0400856A90
:10050000EF00B03D056A85690569938A2AB7130A29
:100510006ABD9389C9C3130989C91385840523A0BA
:10052000540323A2440323A4340323A62403C4CCEA
:10053000513BC167A507214681451385440CFCD872
:1005400023A4040623A6040623A8040623A6040C59
:1005500023AC040623AE040623A00408EF00F03702
:10056000938784061385040C23A2F40823A454095A
:1005700023A6440923A8340923AA2409A133B707D1
:100580000200C9071385C4122146814523AEF40C2D
:1005900023A8040C23AA040C23AC040C23AA0412E1
:1005A00023A0040E23A2040E23A4040EEF00F032B5
:1005B0009387040D624423A8540F23AA440F23AC4D
:1005C000340F23AE240FF2404249B249224A924AE4
:1005D00023A6F40E13858412D2440561E5B1797126
:1005E0004AD022D44ECE06D626D20018AA89138528
:1005F0004182093B83A78182E9CF37080020130895
:100600000814FD5683274800FD1763C0070883249C
:10061000880029A0938484066389D7060397C400C1
:10062000FD176DFBC1778507DCC41385840523A204
:100630000406493913854182013B1385C40523A073
:10064000040023A4040023A2040023A8040023AA76
:10065000040023AC040021468145EF00102823A8A4
:10066000040223AA040223A2040423A40404B25013
:1006700022540259F249268592544561814501462A
:10068000814601478147014882808324080099C040
:1006900026888DBF9305C01A4E85232E04FDEF00DA
:1006A000F0730328C4FDAA841DC591475CC13105C0
:1006B00023A0040088C41306001A8145232E04FDDC
:1006C000EF00B0210328C4FDFD56232098002688A2
:1006D00015BFDD331DB72320080013854182AD31DE
:1006E000B14723A0F90061B7411126C222C44AC014
:1006F00006C600082A8913854182293183274903C8
:1007000081EB03A781829307803F232AF90209CB5B
:100710002244B240024913854182924441012DB1E5
:10072000613B2244B2400249138541829244410117
:1007300021B9411122C406C600082244B2401385E3
:1007400041824101C1B6411122C406C600082244BB
:10075000B240138541824101C5BE411122C406C683
:10076000000813854182793E2244B24037060020BA
:10077000130606149305404501454101A5AE4111FC
:100780003706002022C406C6000813060614930587
:100790006048014585262244B240138541824101CB
:1007A00065B61C466380071A397122DC26DA56D2F8
:1007B0005AD006DE80008396C500AE84AA8A93F7DD
:1007C0008600328BA5CF9C49B5CB4AD84ED652D4A1
:1007D0005ECE93F7260003290B00C9C3B70B008038
:1007E000938B0BC0014A8149528656856386091452
:1007F000CE8663F63B01B7060080938606C0DC50C8
:10080000CC4C8297635DA02C83278B002A9AB389F6
:10081000A940898F2324FB00E1FB4259B259225A97
:10082000F24B0145F2506254D254925A025B21615C
:10083000814501468146014781478280A6855685CC
:10084000B5216313051C8396C4004AD84ED652D4F2
:100850005ECE93F7260003290B00C9F362CC66CA6B
:1008600093F71600FDE79C4037070080930CF7FFD5
:10087000814B014A630C0A0A13F7062083A98400FE
:100880003E85630507184E8C636A3A1F13F70648C6
:1008900035CBD0488C481317160032979359F7017F
:1008A000338CB740BA9993071C0093D91940D2975B
:1008B0004E8663F4F900BE893E8693F60640638552
:1008C000061EB2855685EF007051630D05208C48D9
:1008D00062862326A4FCEF00D00A83D7C400032736
:1008E000C4FC93F7F7B793E707082396F400B387A0
:1008F00089413305870123AA340198C888C09CC464
:10090000D289528CDE856286C92598449C40330783
:10091000374198C403278B00E2979CC033074741B7
:100920002324EB00630A071A8396C400832B090073
:10093000032A490021093DBF032A090083294900F0
:1009400021095DB501458145014681460147814741
:100950008280814B014C0145814C638E0B0425C57F
:10096000E2875E8A63F377013E8AD44883A98400D4
:1009700088409C48B69963F4A70063C0490763495F
:10098000DA10DC50CC4C668656858297AA89635172
:10099000A006330C3C41054563050C0E83278B00F4
:1009A000B38737412324FB0063880712B38B3B4195
:1009B000CE9CE3960BFA832B4900CA872109E38C6E
:1009C0000BFE83AC07005E86A9456685DD2E6301BC
:1009D00005100505330C954161B7E6854E86F52374
:1009E0009C40A6855685CE979CC0EF10502D55D1C2
:1009F0008397C400624CD24C4259B259225AF24BEE
:100A000093E707042396F4007D5529BD9848636257
:100A1000F704D848636FEA02D28663F34C01E68696
:100A200033E7E602DC50CC4C5E865685998E829781
:100A3000E350A0FCAA8983278B00330A3A41B3878D
:100A400037412324FB00C9CB8396C4009C40CE9B36
:100A500015B563733A01D2893E854E86DE85B5238E
:100A60009C409844CE97330737419CC098C461F7A7
:100A7000A6855685EF10B0245DDD9DBFD289528CCE
:100A800051B5A6855685EF109023E30905F08DB783
:100A90005286E6851D2B98449C40D28933074741F6
:100AA000D29798C49CC0F5B55685EF1040262A878A
:100AB000E31F05E28C485685EF00100E83D7C40073
:100AC0003147624CD24C23A0EA0093F7F7F72DB7D9
:100AD00093871B003E8C71B5624CD24C3DBB839713
:100AE000C40019BFB14723A0FA00624C8397C40029
:100AF000D24C19B7797122D44ECE52CC56CA5AC8AC
:100B00005EC662C406D626D24AD00018328BAA8BA3
:100B10002E8C814A054AFD5903294B007D196346F5
:100B2000090283248B0083D7C400637BFA00839778
:100B3000E400A6855E8563853701029CB3EAAA00BE
:100B40007D1993848406E31039FF032B0B00E31512
:100B50000BFCB250225492540259F249624A424B61
:100B6000B24B224C5685D24A4561814501468147A8
:100B70008280411122C426C206C60008AE84839535
:100B8000E500512E634F0500BC48B2402244AA97AD
:100B9000BCC89244410181450146814601478147D5
:100BA000828083D7C4007D77B24022447D17F98FBD
:100BB0002396F40092444101814501468146014754
:100BC00081478280411122C406C60008B2402244F7
:100BD000014541018280011122CC06CE001083978D
:100BE000C50036832E8793F60710B2882A8899EEBF
:100BF000FD766244FD16F240F58F8315E70023165B
:100C0000F7009A864686428505619DA68395E50094
:100C10002322C4FE89460146232064FE2326E4FEE7
:100C20002324A4FE612C0327C4FE032304FE83288F
:100C300044FE8317C700032884FE5DBF411122C410
:100C400026C206C60008AE848395E500852C7D5734
:100C50008397C4006301E502B24022440567D98F3F
:100C6000A8C82396F400924441018145014681467B
:100C700001478147828013070580B2402244130751
:100C80000780F98F2396F400924441018145014683
:100C90008146014781478280411122C406C600086F
:100CA0002244B2408395E5004101D9A2011122CC32
:100CB000B707002006CE001003A747562A86AE8746
:100CC00019C3545BF9CA0397C700937687008DCA8E
:100CD000944BB9C20397C700137617003DC2D04B9F
:100CE00023A4070001453306C04090CFBDC2F240A7
:100CF0006244056181450146814601478147828002
:100D000093760701DDC693764700A9EE944B1367EF
:100D100087002396E700DDFED84793050020137770
:100D20000728E309B7FA3285BE852326F4FEEF10C3
:100D3000D00E8327C4FE0397C700944B1376170089
:100D400059FE13762700814511E2CC4B8CC7014533
:100D5000D9FE93760708C1DE136707042396E700E0
:100D60007D5571B78C5B9DC193860704638ED5005A
:100D700032852324F4FE2326C4FE392D832784FEE6
:100D80000326C4FE0397C70023A80702944B1377DA
:100D9000B7FD23A2070094C39DBF2326A4FE3A8576
:100DA0002324B4FEEFF05F94832784FE0326C4FE61
:100DB00019BFA5461367070414C22396E7007D55A3
:100DC0003DB7411122C406C600089377350013F7DA
:100DD000F50F99CB49C2834705007D166381E7066D
:100DE000050593773500FDF70D486370C80493F54A
:100DF000F50F93978500AE9713930701B708FFFE91
:100E0000B78580803E939388F8EF938505081C4151
:100E1000B347F300B386170193C7F7FFF58FED8F44
:100E200091E771161105E364C8FE15C62A9621A044
:100E300005056302C50283470500E39BE7FEB24058
:100E400022444101014381450146814601478147D2
:100E5000014881488280B24022440145410101435A
:100E6000814501468146014781470148814882808A
:100E7000411122C426C24AC006C600082A892E850E
:100E800023A60182EF105029FD57630BF500B240F5
:100E900022449244024941018145014781478280B1
:100EA00083A7C182EDD7B24022442320F9009244A7
:100EB0000249410181450147814782804111AE8746
:100EC00022C426C24AC006C60008B28536862A89D0
:100ED0003E8523A60182EF10F02FFD57630DF5002C
:100EE000B240224492440249410181450146814673
:100EF00001478147828083A7C182FDD3B24022444B
:100F00002320F9009244024941018145014681466E
:100F10000147814782804111AE8722C426C24AC060
:100F200006C60008B28536862A893E8523A6018238
:100F3000EF10702EFD57630DF500B240224492442D
:100F4000024941018145014681460147814782802E
:100F500083A7C182FDD3B24022442320F9009244EA
:100F6000024941018145014681460147814782800E
:100F70004111AE8722C426C24AC006C60008B28507
:100F800036862A893E8523A60182EF20A058FD5788
:100F9000630DF500B240224492440249410181456B
:100FA0000146814601478147828083A7C182FDD3E4
:100FB000B24022442320F900924402494101814574
:100FC00001468146014781478280411122C406C6FD
:100FD000000863FDA502B387C5006379F50211CA55
:100FE0002A9603C7F7FF7D16FD172300E600E31AD4
:100FF000C5FEB2402244410101438145014681467C
:101000000147814701488148014E8280BD4763ED19
:10101000C702AA879306F6FF69DE8506BE9603C758
:10102000050085078505A38FE7FEE39AD7FEB2404A
:1010300022444101014381450146814601478147E0
:1010400001488148014E8280B367B5008D8BAE8820
:10105000BDEF93574600139847002A98FD172A873B
:101060009441C10541072328D7FE83A645FF232AC3
:10107000D7FE83A685FF232CD7FE83A6C5FF232E8C
:10108000D7FEE31F07FD920733871701930507017A
:10109000AA971378C600C1072E8E9376F600630CCC
:1010A0000802F116F19A369751073308154103A348
:1010B0000500B3880501910523A06800E399E5FECA
:1010C00013874600B305C701BA970D8AA1B79306E7
:1010D000F6FFAA8799B7368635BF3D432A876373E3
:1010E000C3029377F700BDEFADE5937606FF3D8A27
:1010F000BA960CC34CC30CC74CC74107E36BD7FE71
:1011000011E28280B306C3408A06970200009696D9
:101110006780A6002307B700A306B7002306B70021
:10112000A305B7002305B700A304B7002304B70045
:10113000A303B7002303B700A302B7002302B7003D
:10114000A301B7002301B700A300B7002300B70035
:10115000828093F5F50F93968500D58D93960501C2
:10116000D58D61B7939627009702000096968682E8
:10117000E78086FA9680C1171D8F3E96E374C3F808
:10118000A5B7411122C406C60008B3C7A5008D8BC0
:10119000B308C500BDE71336460025E69377350052
:1011A0002A87E5E313F6C8FFB306E640930700027B
:1011B00063CDD706AE86BA876371C70203A806005F
:1011C0009107910623AE07FFE3EAC7FE7D16198E4D
:1011D000719A91051107B295329763671703B24070
:1011E00022444101814201438143814501468146B8
:1011F0000147814701488148014E814E014F814F8F
:1012000082802A87E37D15FD83C7050005078505D4
:10121000A30FF7FEE385E8FC83C7050005078505F6
:10122000A30FF7FEE392E8FE5DBF945183A3050090
:1012300083A2450083AF850003AFC50083AE0501DF
:1012400003AE450103A3850103A8C50113074702A7
:10125000232ED7FE232E77FCB306E640232057FE2D
:101260002322F7FF2324E7FF2326D7FF2328C7FFE6
:10127000232A67FE232C07FF93854502E3C7D7FA8D
:1012800015BF83C60500050793773700A30FD7FE68
:10129000850589DB83C60500050793773700A30F13
:1012A000D7FE8505F9FFFDBD011122CC26CA4AC82B
:1012B0004EC652C406CE0010B7090020AE842A8A5A
:1012C0009389C914EF00F02183A78900056703A95A
:1012D00047001379C9FF9307F97F9387077FB3848A
:1012E0009740B180FD14B20463CBE4008145528580
:1012F000EF10C05D83A78900CA976303F50252858A
:10130000EF00901FF2406244D2444249B249224A5F
:10131000014505618145014681460147814782803B
:10132000B30590405285EF10605AFD576300F504F5
:1013300083A6890083A7419733099940136919004F
:101340005285858F23A2260123AAF196EF00D01A99
:10135000F2406244D2444249B249224A05450561FD
:1013600081450146814601478147828081455285FA
:10137000EF10C05503A78900BD46B307E540E3D091
:10138000F6F8B706002003A6865693E71700118DDE
:101390005CC323AAA196A5B7FDC5011122CC26CA1C
:1013A000001006CEAA842326B4FEEF0090138325F6
:1013B000C4FE370500201305C51403A8C5FF138715
:1013C00085FF832885009377E8FF3306F7005442B2
:1013D00013731800F19A638DC81254C2B308D60073
:1013E00083A8480093F818006319030603A385FF38
:1013F000B70500209385451533076740032887000C
:101400009A97630AB80E0323C70023266800232493
:1014100003016389081293E6170054C31CC29306A4
:10142000F01F63E5F60893F687FFA1064C41AA96E4
:10143000904213D857008547B3970701CD8F938506
:1014400086FF10C74CC75CC198C258C66244F240C0
:101450002685D24405616F00300A63900804B70501
:101460000020B69793854515144693E81700330876
:10147000F7006385B6105046D0C614C62322170164
:101480002320F80069BF014301458145014681469B
:10149000014781470148814882801368180023AEC4
:1014A00005FF1CC29306F01FE3FFF6F693D69700E4
:1014B0001146636BD60893D66700938596038E0515
:1014C00013868603AA959441E1156396D500C1A0C1
:1014D00094466386D500D042719AE3EBC7FECC46B2
:1014E0004CC714C76244F24098C52685D244D8C67A
:1014F00005616F007000639808064C461046BE9662
:1015000093E716004CC690C55CC3369714C33DBF25
:10151000BE96631A030083A785FF1D8F1047BE96F2
:101520005C475CC690C7B707002013E6160083A788
:10153000C75650C318C5E3EBF6F083A58183268513
:10154000A53329B7B6970DB751466373D602130674
:1015500040056368D60493D6C7009385F6068E05CA
:101560001386E60685B793E6170054C31CC2F9BD7F
:101570009385C6058E051386B605A9B758C918C93F
:101580004CC70CC7232217012320F800C1B503283C
:10159000450009868547B397C700B3E707015CC1DB
:1015A00081B713064015636AD60093D6F70093857A
:1015B00086078E051386760731B713064055636A92
:1015C000D60093D627019385D6078E051386C607C6
:1015D000D5BD9305803F1306E007EDB5397122DCD8
:1015E00026DA06DE80009387B5005947AA84636B2C
:1015F000F708C14663E4B606ED25C1466147894850
:10160000370800201308C81442975C43130687FF6D
:101610006383C73CD843D0478C47719B3E97544364
:10162000D0C52326F4FE0CC693E61600268554C3C7
:10163000E1258327C4FEF2506254D25413858700FB
:1016400021610143814501468146014781470148A7
:101650008148014E814E014F814F8280B1479CC02D
:101660000145F2506254D254216101438145014643
:1016700081460147814701488148014E814E014F13
:10168000814F828093F687FFE3CA07FCE3E8B6FC4C
:101690002326D4FEB9258326C4FE9307701F63F862
:1016A000D73E93D79600638D07101147636AF736CC
:1016B00093D7660093889703138E8703139538009A
:1016C000370800201308C81442955C416115630176
:1016D000F5023D4339A0CC47635E062A630AB50094
:1016E000AE87D843719B3306D740E356C3FEF288DA
:1016F00083270801930E88006389D725D843BD4509
:10170000719B3306D74063C7C53A232AD8012328E3
:10171000D801635306381306F01F032348006361A2
:10172000E62C137687FF210642960C42135557008C
:1017300005473317A7003363E300130786FF8CC701
:10174000D8C7232268001CC2DCC593D728400545B2
:101750003315F500636DA306B377650089EF0605C1
:1017600093F8C8FFB3776500910891E70605B37752
:1017700065009108E5DF3D4E139F3800429F7A8354
:101780000327C300C68F630DE32A5043BA87584727
:10179000719AB305D640634EBE2AE3C605FE3E9657
:1017A00054428C47268593E6160054C2D8C50CC710
:1017B0002326F4FE91238327C4FE1385870055B5A5
:1017C0001305002093080004130EF003D5BD8327F2
:1017D0008800D8431373C7FF3306D3406366D30032
:1017E0001327060163060716B708002083A5818327
:1017F00003A688567D57B6956307E63605673D070D
:10180000BA957D77F98D2685232E04FD2320F4FEDD
:101810002322D4FE232464FE2326B4FEEF10000B03
:101820007D578325C4FE032384FE832644FE83273D
:1018300004FE0328C4FD2A8EB70800206300E52CAF
:1018400033876700636AE52A938E419703A60E00EB
:101850002E9623A0CE006303A73C03AF88567D5588
:101860006309AF3C3307EE40329723A0EE00137FAD
:101870007E0063050F30137E8EFF8568210EA10860
:101880003306BE00B385E841918DD205D18126850E
:101890002326D4FD232804FD232AF4FC232CD4FC86
:1018A000232E64FC2320C4FF2322E4FF2324C4FE50
:1018B0002326B4FEEF1080012A877D558325C4FEC0
:1018C000032684FE032F44FE032E04FE0323C4FDDF
:1018D000832684FD832744FD032804FD832EC4FC56
:1018E0006309A73803A60E003307C7412E97136775
:1018F00017002324C8012E962322EE0023A0CE0039
:10190000638707033D4563796532CC43130743FF83
:10191000619B8589D98DCCC39548B385E70023A207
:10192000150123A41501636BE53403274E0083A53D
:10193000418363F4C50023AAC18283A5018363F4B4
:10194000C50023A8C182F2876DAA03234800F5BB16
:1019500013E71600D8C3BE96136616002324D800DA
:101960002685D0C22326F4FE412E8327C4FEF250E2
:101970006254D25413858700216101438145014699
:1019800081460147814701488148014E814E014F00
:10199000814F828090473E9754434CC62326F4FEE5
:1019A00093E6160090C5268554C3B9268327C4FE46
:1019B000F2506254D254138587002161014381455E
:1019C000014681460147814701488148014E814EC9
:1019D000014F814F82805C478908E30BF7D01DB926
:1019E00013569700914563F1C510D14563E7C51EB5
:1019F0001305C6050E059305B60542951041611500
:101A00006316C5009DA210466306C5004C42F199BD
:101A1000E36BB7FE4846C8C790C71CC55CC635B364
:101A20005147637CF70E130740056364F71C93D797
:101A3000C6009388F706138EE7061395380049B160
:101A4000850F93F73F0021036385070E0327C3002B
:101A50001DBB884793E8160023A2170158C508C785
:101A6000BE96232AD8002328D80013E715003E96F7
:101A700023A6D60123A4D601D8C226850CC22326CC
:101A8000F4FE9D2C8327C4FE13858700D9BE93D80E
:101A9000360013878600ADB63E9754432326F4FEE6
:101AA000268593E6160054C3812C8327C4FE138534
:101AB000870045BE93E51600CCC3BE96232AD80006
:101AC0002328D800936516003E9723A6D60123A4A9
:101AD000D601CCC2268510C32326F4FE312C8327E1
:101AE000C4FE13858700B5BE135667001305960321
:101AF0000E059305860311B7638A071183278800B3
:101B0000D843719B3306D7406366D700132706017D
:101B1000E30007E42685CD22A1B69388C705138E7E
:101B2000B7051395380069BE83278F00FD186397AA
:101B3000E71B93F73800611FE5FB03274800934735
:101B4000F5FFF98F2322F80006051307F5FFE37070
:101B5000F7C83377F50011E706053377F500910FE5
:101B600065DFFE8811B9C10579B989850547331745
:101B7000B7003363E3002322680071BD3306BE0063
:101B8000B305C040D205D18126852328D4FD232A60
:101B900004FD232CF4FC232ED4FC232064FE2322FA
:101BA000C4FF2326B4FE2324C4FEEF0030522A874C
:101BB0007D558325C4FE032E44FE032304FE8326A5
:101BC000C4FD832784FD032844FD832E04FDE31B0D
:101BD000A7D0032784FE814531B39305400563E117
:101BE000C5061356C7001305F6060E059305E6064F
:101BF00029B5130740156361F70693D7F60093885C
:101C00008707138E7707139538005DBC938E419735
:101C100003A60E002E9623A0CE0081B15205E31E2E
:101C200005C2032E88009A9513E715002322EE00C3
:101C3000FDB923A4C85725B985472322FE00D9BD85
:101C40009305401563E4C5061356F7001305860790
:101C50000E059305760755B3130740556364F706E1
:101C600093D726019388D707138EC707139538009B
:101C700081BC611F3307E6018145ADB193858700C3
:101C800026852322D4FF232404FF2326D4FEEFF04D
:101C9000AFF0032884FE832E44FE8326C4FE032E69
:101CA000880003A60E0003274E0051B1930540554E
:101CB00063E1C502135627011305D6070E059305E8
:101CC000C60725BB1305803F9308F007130EE007F6
:101CD000C5BA1305803F9305E00705B38327480085
:101CE000A5B5411122C406C600082244B24013859E
:101CF000818141016FE00FE1411122C406C6000855
:101D00002244B2401385818141016FE0EFE363819A
:101D1000051A011122CC26CA00104AC806CEAE848C
:101D20002A892326C4FE753F8325C4FE594793871D
:101D3000B5006374F710E19BBE8613D7F70163ED1E
:101D4000B718631B071803A6C4FF138884FF137713
:101D5000C6FF635FD70E370300201303C314832825
:101D60008300330EE80003254E00638CC819937876
:101D7000E5FFF29883A8480093F81800639F0810C5
:101D80007199B308A70063DED80A058A0DE283AE15
:101D900084FFB30ED84103A64E00719A3295B30862
:101DA000E50063D1D828B308C70063DDD8204A8591
:101DB0002322E4FE232404FF2326F4FEEFF01F82F7
:101DC0008327C4FE032884FE032744FEAA86630DEE
:101DD000053403A6C4FF930585FF799A42966302F2
:101DE000B61C1306C7FF9307400263E5C7224D47A1
:101DF000636EC71AAA872687104390C35043D0C387
:101E0000184798C7A6854A852326D4FEEFF0CFD879
:101E10004A85DD358326C4FEF2406244D2444249FD
:101E20003685056101438145014681460147814769
:101E300001488148014E814E8280C146B6870147E4
:101E4000FDBD8326CE0003268E00468754C690C66D
:101E5000832648003305F740BD45858A3306E800F0
:101E600063EBA504D98E2322D8005C4293E71700C8
:101E70005CC24A855135A686F2406244D24442494A
:101E80003685056101438145014681460147814709
:101E900001488148014E814E8280058AE31906F08F
:101EA00083AE84FFB30ED84103A64E00719AE5BD00
:101EB000B2856FF0AFF2DD8E2322D800B305F800B3
:101EC00013651500C8C15C42A1054A8593E7170058
:101ED0005CC2EFF06FCC71BFB1472320F90081469F
:101EE000F2406244D244424936850561014381454E
:101EF000014681460147814701488148014E814E94
:101F000082807199B308E500138E070163DAC81B5C
:101F1000058AE31E06E883AE84FFB30ED84103A60C
:101F20004E00719A3295B308E500E3CEC8E783A668
:101F3000CE0083A58E001306C7FF13074002D4C549
:101F40008CC693868E00636CC720CD45368763FEB2
:101F5000C5008C406D4723A4BE00CC4023A6BE0024
:101F60006363C724A10413870E01904010C3D040BF
:101F700050C3904410C73386FE003387F8402324B3
:101F8000C3001367170058C203A74E004A852326D3
:101F9000D4FE058BD98F23A2FE00B93B8326C4FE55
:101FA000E1BD8326C5FFF19A36975DB58C406D473C
:101FB0000CC1CC404CC16365C70C138784009307E8
:101FC00085001DBD83A6CE0083A58E001306C7FF26
:101FD00013054002D4C58CC693868E00636DC50A76
:101FE000CD45368763FEC5008C406D4723A4BE00F7
:101FF000CC4023A6BE00636DC710A10413870E0159
:10200000904010C3D04050C3904410C7B684468758
:1020100076883DBDA6852326A4FEEFE01FFB832620
:10202000C4FECDB38326CE0083258E001306C7FFE2
:1020300013054002D4C58CC603A7CE0083A68E002C
:1020400013888E00D8C614C7636FC508CD46428773
:1020500063FEC60094406D4723A4DE00D44023A64F
:10206000DE006360C70EA10413870E01944014C301
:10207000D44054C3944414C7C28446877688C9BBED
:10208000984418C5D84458C56304F60A1387040158
:102090009307050195B33685A6852320D4FF232217
:1020A000F4FE232414FF2326D4FEEFE01FF2832E38
:1020B00004FE832744FE832884FE8326C4FEB9B72A
:1020C0003E983387F8402324030113671700232227
:1020D000E80003A7C4FF4A85058BD98F23AEF4FE21
:1020E0002139A68651BB4285A6852320D4FF232211
:1020F000F4FE232414FF232604FFEFE01FED032842
:10210000C4FE832884FE832744FE832E04FEADB7DD
:10211000984423A8EE00D84423AAEE00630AA6063A
:10212000C10413878E01E9BD4A85F93681464DBB4E
:102130009048138784019307850110C9D04850C97E
:1021400065B994441307400223A8DE00D44423AAAF
:10215000DE006308E606C10413878E0101BF3685E1
:10216000A6852320D4FF2322F4FE232414FF232654
:10217000D4FEEFE09FE5B70700201383C714832E3A
:1021800004FE832744FE832884FE8326C4FEE5B331
:10219000904813870E02E10423ACCE0003A6C4FFCF
:1021A00023AECE00B1BD8C441307400223A8BE006D
:1021B000CC4423AABE006301E602C10413878E014A
:1021C0006DB3944813870E02E10423ACDE0083A6AE
:1021D000C4FF23AEDE0059BD904813870E0223AC26
:1021E000CE00D048E10423AECE0041B3011122CC91
:1021F00006CE4EC60010C1CD26CA4AC8AE842A8972
:1022000019C15C59D5CBFC500397C400858BADEF49
:10221000137707204DC7A6854A85D520DC54AA89A7
:1022200091C7CC4C4A858297634D050683D7C4007D
:1022300093F70708ADEF8C5891C993870404638521
:10224000F5004A85EFF04F9523A80402EC4091C5B4
:102250004A85EFF06F9423A20404EFE08FCDFC5089
:1022600023960400858BBDCBA84CEFE0AF87EFE051
:102270008FCDF2406244D24442494E85B249056155
:10228000814501478147828059F7D2444249F24053
:10229000624481494E85B2490561814501478147C4
:1022A000828083D7C400FD5993F70708C9D78C48AB
:1022B0004A85EFF06F8E41B7EFE00FC3A9B7A84C86
:1022C000EFE04F848397C400B9F7FC50858BD5FFAE
:1022D000A84CEFE06F87D244424955BFA84CEFE0CD
:1022E000AF8659B7411122C406C60008B7070020BF
:1022F0002244B240AA8503A547564101C5BD01113C
:1023000022CC26CA52C406CE00100397C500AE8464
:102310002A8A93778700F1EF856793870780D441F6
:10232000D98F2396F500635CD01203A8840263055D
:10233000080A4AC89316370103290A0023200A0015
:1023400063C60612CC4C0146854652850298FD575D
:102350002A866304F5148397C40003A88402918B32
:1023600099C7D8409C58198E99C3DC5C1D8ECC4C03
:102370008146528502987D578397C400631AE50E03
:1023800083260A0075476365D71237074020050783
:102390003357D700058B630D071094487D771307DB
:1023A000F77F7D8F2396E40023A2040094C0139747
:1023B00037016355070083270A00E9CB8C58232097
:1023C0002A01F1C9938704046385F5005285EFE083
:1023D000BFFC424923A80402F2406244D244224A8C
:1023E0000145056181450146814601478147014814
:1023F00082804EC683A90501638809064AC803A9DD
:1024000005000D8B23A0350133093941814711E3C4
:10241000DC499CC463462001B9A0AA9963552005F4
:10242000DC50CC4CCA864E86528582973309A9402F
:10243000E345A0FE83D7C400B24993E70704F24006
:1024400062442396F4004249D244224A7D550561F4
:102450008145014681460147814701488280D45D1C
:10246000E345D0EC95BF4249B249BDB7B048C5BDC0
:1024700094487D771307F77F7D8F2396E40023A28E
:10248000040094C013973701E35A07F28C58A8C888
:1024900023202A0185F9424981B783270A00E38C6A
:1024A00007EA138737FE01CBA91791C783D7C4006A
:1024B00093E7070469B723202A01424931BF01117C
:1024C00022CC06CE00102A8719C15C59BDCF839655
:1024D000C500814795C6FC51858B81E793F60620A0
:1024E0008DCA3A852326B4FE193D8325C4FEAA87EA
:1024F000F851058B11E703D7C5001377072015C7DF
:10250000F24062443E85056181458146014781472D
:102510008280A84D2324E4FE2326B4FEEFD09FDE64
:10252000032784FE8325C4FE6DBF2326A4FEA84D89
:10253000EFD09FE18327C4FEF24062443E850561EF
:10254000814581460147814782802324B4FE2326AA
:10255000A4FEEFE06F99832584FE0327C4FE85BFA8
:1025600045C1011122CC06CE0010B707002003A7F9
:102570004756AA8519C35C5BA1C78396C5008147EE
:1025800095C6FC51858B81E793F60620B1C63A8546
:102590002326B4FEAD338325C4FEAA87F851058BEC
:1025A00011E703D7C5001377072039C3F24062440F
:1025B0003E8505618145014681460147814782800C
:1025C0002324A4FE3A852326E4FEEFE0EF91832541
:1025D00084FE0327C4FE55B7A84D2324E4FE23261A
:1025E000B4FEEFD03FD2032784FE8325C4FE45B757
:1025F0002326A4FEA84DEFD03FD58327C4FE7DB788
:1026000037060020896537050020130606149385D8
:10261000E54B130505006FE0EFCD8397C50013F779
:10262000270011CF9387350405479CC19CC9D8C9A1
:1026300001458145014681460147814782801971E4
:10264000A2DCA6DA86DE00012E878395E500AA8447
:1026500063CE0506130684F92326E4F8D12A03275E
:10266000C4F863430506930500402685CAD823268F
:10267000E4F80329C4F9EFE07FF60327C4F88317D1
:10268000C7004DC19306004093E7070854CB93560B
:10269000C9402316F70008C308CBBD8A09466393D7
:1026A000C60A8315E70026852326E4F8D92A0327DE
:1026B000C4F88317C70059C5F19B8566465993E74F
:1026C00017009386068089A08317C70093F7070831
:1026D00093B71700B307F04093F5073C93850504C3
:1026E00026852324E4F82326B4F8EFE03FEF032700
:1026F00084F88325C4F88317C70015C593E7070836
:1027000008C308CB4CCB8146D58F2316F700F65073
:102710006654D65409610145814501468146014709
:1027200081478280465993F60720F5F2F19B930684
:10273000370493E7270005462316F70014C314CB8C
:1027400050CBF1B7856646599386068075BFAE8734
:102750008395E500328763C305081971A2DC86DE24
:1027600000012324C4F8130684F92322D4F8232675
:10277000F4F87D288327C4F8032784F8832644F8D7
:10278000634A05028327C4F9BD657976ED8FB29758
:10279000F650665493B717009CC2130600400565B7
:1027A00010C3130505800961814501468146014733
:1027B0008147828083D7C70093F70708A1C3F650EB
:1027C000665481479CC21306000410C30145096189
:1027D00081450146814601478147828083D7C700F2
:1027E00093F7070895EB130600409CC2014510C300
:1027F000814501468146014781478280F6506654F3
:102800009CC21306004010C3014509618145014681
:1028100081460147814782808147130600049CC29C
:10282000014510C3814501468146014781478280A9
:102830004111AE8722C426C24AC006C60008B2852E
:102840002A893E8523A601822922FD57630CF500C3
:10285000B240224492440249410181450146014768
:102860008147828083A7C182E5D7B24022442320DA
:10287000F9009244024941018145014601478147DF
:102880008280411122C426C24AC006C600082A8995
:102890002E8523A601822122FD57630BF500B2404D
:1028A0002244924402494101814501478147828087
:1028B00083A7C182EDD7B24022442320F90092447D
:1028C000024941018145014781478280411122C46B
:1028D00026C24AC006C600082A892E8523A6018280
:1028E000EF009048FD57630BF500B240224492443C
:1028F00002494101814501478147828083A7C18206
:10290000EDD7B24022442320F9009244024941010C
:10291000814501478147828093089003730000003E
:1029200063450500814781488280011122CC06CE93
:1029300000102326A4FE752A8327C4FEF2406244B9
:10294000B307F0401CC1FD573E85056181478148B2
:102950008280357122CD06CF001126CBAE87930839
:102960000005930504F773000000AA84634F050077
:10297000930504F73E85CD20FA406A442685DA4463
:102980000D6181458147814882802326F4F6B30496
:102990009040852204C18327C4F6FD54D1BF5971EC
:1029A000A2D4801886D6930584F96537FD57630C49
:1029B000F5000325C4F9B6502654358105896561B3
:1029C000814581478280B650265401456561814525
:1029D000814782809308E00373000000634705008D
:1029E00081450146814781488280011122CC06CE73
:1029F00000102326A4FEF5288327C4FEF24062447B
:102A0000B307F0401CC1FD573E8505618145014675
:102A10008147814882809308F00373000000634778
:102A2000050081450146814781488280011122CC01
:102A300006CE00102326A4FE6D288327C4FEF24094
:102A40006244B307F0401CC1FD573E8505618145D6
:102A50000146814781488280411122C426C206C6B0
:102A6000000898419C45844983A3450183A28501C0
:102A700083AFC50103AF050283AE050303AE0504B2
:102A800003A3850303A8850483A8C504B04DF44DB2
:102A90002310E5002311F500B855FC5544C123145B
:102AA0007500231555002316F5012317E50123288A
:102AB000D5012326C50523246504232C0501232ED7
:102AC0001501B240224410D554D518DD5CDD924486
:102AD00041018142014381430145814501468146CF
:102AE0000147814701488148014E814E014F814F86
:102AF0008280411122C406C60008B2402244B707B2
:102B0000002003A54756410181478280397106DEC6
:102B100022DC26DA80004AD84ED652D4AA892E8AE0
:102B200025458545232204FC232404FC232604FC9C
:102B3000232804FC232A04FC232C04FC232E04FC5D
:102B4000F12585450945652C854537052000F52586
:102B5000371501409307001071498D44930544FCDB
:102B6000130505C02312F4FC232624FD232494FC22
:102B7000A5223715014093070020930544FC130557
:102B800005C02312F4FC232624FD232494FCA9224F
:102B9000B7070040232AF4FC375500409307004054
:102BA000231DF4FC930504FD9167130505402328BC
:102BB00034FD231C44FD231EF4FC1526375500402C
:102BC0008545130505401D21F2506254D2544259E7
:102BD000B259225A21610145814581478280011104
:102BE00006CE22CC4AC800104EC626CA52C441277F
:102BF000EF0090013715070013050580EF00300A3C
:102C000017150000130505C2EFD02FE9516589455E
:102C100013050588E53D154997E9FF1F9389C99379
:102C200037550040B7050200130505406529AA8401
:102C300065F937550040854513050540F92EB70560
:102C4000030037550040850513050540B52165D9BA
:102C50003755004001468945130505401D29B70534
:102C60000700375500409385250813050540A92125
:102C70007DD5194AB70500103755004093850508E2
:102C800013050540852109CD13054006C127B387EB
:102C9000340183C507003755004013050540F12E68
:102CA0008504E39944FDB705070037550040938537
:102CB00045081305054009217DD537550040854558
:102CC0001305054059267D191305803E1379F90F28
:102CD000B52FE31709F401A0411122C406C600086C
:102CE0009C4513F7070113F8F70001C7D841336873
:102CF000E80037270240145B3717014013D68601DE
:102D00003D8A71EE854617E6FF1F2305D6866317B9
:102D1000E50003D7050035832390E50083D5050042
:102D200013F7F50F39C318418146854E3D4F930F78
:102D3000800293028004214E3396DE00B3F8C50072
:102D4000631116039398260033131F011343F3FFF7
:102D50003377E300B318180133E7E8006399F70904
:102D600050C98506E39AC6FD18C11307F00F6376B4
:102D7000B70454410146854E3D4F930F80029302A4
:102D80008004214E130786003397EE00B3F8E50068
:102D9000631117039318260033131F011343F3FF26
:102DA000B376D300B3181801B3E6D8006395F705DE
:102DB00058C90506E318C6FD54C1B240224441017A
:102DC00081420143014581450146814601478147D2
:102DD00001488148014E814E014F814F8280E31F9F
:102DE000E5F217D7FF1F0347E7780DDB1DB7E39A1E
:102DF00057F610C9BDB7E39E57FA18C95DBF411118
:102E000022C406C60008B707014063590502DC4F1B
:102E1000935605011316050137073000BD8A41821C
:102E20003378E50063570506631AE802C1060D47CB
:102E30003317D7001347F7FFF98F2DA0372702402C
:102E4000185BDC4393568701BD8AF9F213D717004C
:102E5000F976CE07758FCD83D98F5DBF1317B50077
:102E6000E34707FC89C91357550112073317E600DA
:102E7000D98F635E0502370701405CCFB240224420
:102E8000410101458145014681460147814701488D
:102E900082806312E8023708014083264800370722
:102EA00000F17D17F98F758F2322E800CDFD3707DC
:102EB00001405CC3E1B71317B500635C07000D4721
:102EC0003317D7001347F7FF7D8FB707000FD98F50
:102ED000F1BF1357550112073317E600E5B73971F3
:102EE00022DC26DA80004AD806DE03594500C16795
:102EF000AA84938707FC1305C4FD3379F9002326C0
:102F0000B4FC152C832744FE37470F001307072412
:102F100033D7E7028325C4FC416679163369E9009B
:102F20002392240183D60400F18E2390D40094418F
:102F300061661306066A6368D6068606B3D6D702AC
:102F40001146B687C206C18263F3C600B287050781
:102F50002390E402239EF40083D704004167130703
:102F600057BF93E717002390F40083D7040083D65C
:102F7000A500F250F98F03D7450062544259558F8E
:102F8000D98F2390F40003D7850083D7C500D98F4C
:102F90002394F400D25421610145814501468146C4
:102FA00001478147828003D5650031667D1663172E
:102FB000C5020D46B386C602B3D7D7029396470122
:102FC00099E293E71700E176D58F9306C012330795
:102FD000D7029306803E3347D70295BF6546B38636
:102FE000C602B3D7D7029166D58FC9BF411122C49B
:102FF00006C600088357050089CD93E71700B24045
:1030000022442310F50041010145814501478147D4
:10301000828041677917F98FDDB7411122C406C656
:1030200000088357050089CD93E70710B24022447A
:103030002310F50041010145814501478147828008
:1030400041671307F7EFF98FD5B7411122C406C6C0
:1030500000088357050089CD93E70720B24022443A
:103060002310F500410101458145014781478280D8
:1030700041671307F7DFF98FD5B7411122C406C6A0
:103080000008B24022442318B500410101458145A2
:103090008280411122C406C6000893E7150019E298
:1030A00093F7E50FB24022442318F5004101014592
:1030B0008145014681478280411122C406C600082D
:1030C0008357450103558501B240224442055D8D79
:1030D0006D8D220521810D8D13351500410181452E
:1030E00081478280011122CC06CE0010232404FEE9
:1030F000232604FE93D7C5012326A4FE2324F4FE31
:10310000832784FEA205A18195C38327C4FED1072E
:103110002326F4FE8327C4FEF240624488436D8D6B
:103120003335A00005618145814782808327C4FE35
:10313000C181E107F1BF411122C406C6000837175B
:1031400002405443B7177A002146B18A938707207B
:103150006396C6045C435843C166C983BD8B758FB3
:103160008907C5466393D700C94701EF3747024037
:1031700003270780418B09CF37177A0013070720F1
:1031800021A83717024058439316E700E3D606FEFE
:1031900037173D0013070790B387E7021CC13716A6
:1031A000024058429706000093860669B240118398
:1031B0003D8B3697034707002244B3D7E7005CC135
:1031C000584221831D8B36970347070033D7E7000A
:1031D00018C558422D831D8BBA9603C70600970663
:1031E000000093866667B3D7E7005CC55842398311
:1031F0000D8B369703470700B3D7E7021CC941017F
:10320000014501468146014781478280411122C420
:1032100006C60008B7170240984F99C9498F98CF42
:10322000B2402244410101458145014781478280E6
:103230001345F5FF798D88CFE5B7411122C406C645
:103240000008B7170240D84F99C9498FD8CFB2406C
:103250002244410101458145014781478280134550
:10326000F5FF798DC8CFE5B70111B717024022CC21
:1032700006CE00109843B706FFF837060200136722
:10328000170098C3D843758FD8C39843B706F7FE85
:10329000FD16758F98C39843B706FCFFFD16758F12
:1032A00098C3D843B70681FFFD16758FD8C337077B
:1032B0009F0098C7232404FE232604FE9843C1667A
:1032C000558F98C385669843718F2326E4FE0327A4
:1032D00084FE05072324E4FE0327C4FE09E7032731
:1032E00084FEE312D7FE984385479316E70063DD1B
:1032F00006062326F4FE0327C4FE631FF704B71750
:103300000240D843B706C1FFFD16D8C3D843D8C37F
:10331000D84313670740D8C3D843758FD8C3D84361
:10332000B7062900558FD8C39843B7060001558FBB
:1033300098C3984393166700E3DD06FED843B7169B
:103340000240719BD8C3D84313672700D8C32147D5
:10335000DC42B18BE39EE7FEF24062440561014628
:103360008146014781478280232604FE69B74111C7
:1033700022C406C60008371702405443B7177A0024
:103380002146B18A938707206396C6045C4358435D
:10339000C166C983BD8B758F8907C5466393D70006
:1033A000C94701EF3747024003270780418B09CF08
:1033B00037177A001307072021A837170240584310
:1033C0009316E700E3D606FE37173D001307079074
:1033D000B387E702371702405843970600009386E9
:1033E000A646B24011833D8B36970347070022441F
:1033F000B3D7E70017D7FF1F2324F7164101014673
:103400008146014781478280411122C406C60008D7
:1034100097D7FF1F83A7C71437177A001307072012
:10342000B3D7E702B240224493F7F70F17D7FF1F35
:103430002304F7141307803EB387E70217D7FF1F53
:10344000231BF71241010147814782804111B7F7E1
:1034500000E022C406C60008D8438146799BD8C341
:1034600017D7FF1F035727113306A70290CBD4CBE2
:1034700098431367070198C398431367170298C3CB
:10348000D843058B75DF9843B2402244799B98C39B
:10349000410101450146814601478147828079719A
:1034A00026D2AA84116506D622D4854500181105B6
:1034B000B13B93070020231AF4FC371501408D47D8
:1034C000232CF4FC930544FDE14713050580232ECE
:1034D000F4FCEFF07F8037450140B7070800930503
:1034E00004FE13050580232094FE2324F4FE2322EA
:1034F00004FE231604FEF12A3745014085451305D5
:103500000580652CB2502254925445610145814595
:1035100081478280011122CC26CA4AC84EC606CEF7
:103520000010AE893289814463CD2401F2406244A7
:10353000D244B2494A8542490561814501468147E5
:1035400082803745014093050004130505805D2CFA
:103550006DD9B387990083C507003745014013052E
:10356000058059248504C9B7411122C406C6000844
:1035700017D7FF1F130707FFAA87084397160020D6
:1035800093864668AA9763E0F60297D6FF1F938654
:10359000261863EAD7001CC3B24022444101814689
:1035A0000147814782807D55C5BF411122C406C6AF
:1035B0000008B240224441018280411122C406C663
:1035C0000008B24022444101828001A001A001A074
:1035D00001A001A001A001A001A001A001A001A0E3
:1035E00001A001A001A001A001A001A001A001A0D3
:1035F00001A001A001A001A001A001A001A001A0C3
:1036000001A001A001A001A001A001A001A001A0B2
:1036100001A001A001A001A001A001A001A001A0A2
:1036200001A001A001A001A001A001A001A001A092
:1036300001A001A001A001A001A001A001A001A082
:1036400097D1FF1F93810173172100201301819BE4
:10365000170500001305852097D5FF1F9385859AD0
:1036600017D6FF1F130606F163FAC5008322050073
:1036700023A0550011059105E3EAC5FE17D5FF1FEC
:10368000130545EF97D5FF1F938585086377B50030
:10369000232005001105E36DB5FEFD42739002BCC9
:1036A0008D42739042809302800873A0023097D2BB
:1036B000FFFF9382A29893E2320073905230EFF0B2
:1036C000BFBA97F2FFFF9382C25173901234730016
:1036D0002030397122DC26DA06DE8000035705012E
:1036E000F577FD177D8F83D76500AA842326B4FC68
:1036F000D98F2318F5000357C500FD779387379FAF
:103700007D8F83D74500D98F03D78500D98F03D705
:10371000A500D98F2316F5000357450183D7C500AF
:103720001377F7CFD98F231AF5001305C4FDEFF0F7
:103730009FA0B7470140938707808325C4FC63920D
:10374000F406832784FE83D6C4006547B387E70267
:10375000C206C186984163D906040607930640064F
:1037600003D6C400B3D7E7024206418633D7D70257
:10377000B3F7D7021207635B06028E07938727030E
:10378000B3D7D7029D8BF2506254D98F2394F400A3
:10379000D254216101458145014681460147814757
:1037A0008280832744FE45B70A074DBF920793875F
:1037B0002703B3D7D702BD8BF9B7411122C406C680
:1037C00000088357C50089CD0967D98FB2402244CC
:1037D0002316F5004101014581450147814782805B
:1037E00079777D17F98FDDB7411122C406C600082D
:1037F000B240224493F5F51F2312B5004101014563
:1038000081458280411122C406C600080355050087
:10381000B24022446D8D3335A00041018145828044
:1038200049494320486F7374206D6F64650D000033
:103830000A0000000000000001020304010203046A
:103840000607080900000000000000000102030450
:043850000607080956
:04385400020406085C
:1038580000000000AC050020140600207C060020B3
:103868000000000000000000000000000000000050
:103878000000000000000000000000000000000040
:103888000000000000000000000000000000000030
:103898000000000000000000000000000000000020
:1038A8000000000000000000000000000000000010
:1038B8000000000000000000000000000000000000
:1038C80000000000000000000000000000000000F0
:1038D80000000000000000000000000000000000E0
:1038E80000000000000000000100000000000000CF
:1038F8000E33CDAB34126DE6ECDE05000B00000094
:1039080000000000000000000000000000000000AF
:10391800000000000000000000000000000000009F
:10392800000000000000000000000000000000008F
:10393800000000000000000000000000000000007F
:10394800000000000000000000000000000000006F
:10395800000000000000000000000000000000005F
:10396800000000000000000000000000000000004F
:10397800000000000000000000000000000000003F
:10398800000000000000000000000000000000002F
:103998000000000003000000AC050020000000004B
:1039A800000000004C0100204C01002054010020C0
:1039B800540100205C0100205C010020640100200B
:1039C800640100206C0100206C01002074010020BB
:1039D800740100207C0100207C010020840100206B
:1039E800840100208C0100208C010020940100201B
:1039F800940100209C0100209C010020A4010020CB
:103A0800A4010020AC010020AC010020B40100207A
:103A1800B4010020BC010020BC010020C40100202A
:103A2800C4010020CC010020CC010020D4010020DA
:103A3800D4010020DC010020DC010020E40100208A
:103A4800E4010020EC010020EC010020F40100203A
:103A5800F4010020FC010020FC01002004020020E9
:103A6800040200200C0200200C0200201402002096
:103A7800140200201C0200201C0200202402002046
:103A8800240200202C0200202C02002034020020F6
:103A9800340200203C0200203C02002044020020A6
:103AA800440200204C0200204C0200205402002056
:103AB800540200205C0200205C0200206402002006
:103AC800640200206C0200206C02002074020020B6
:103AD800740200207C0200207C0200208402002066
:103AE800840200208C0200208C0200209402002016
:103AF800940200209C0200209C020020A4020020C6
:103B0800A4020020AC020020AC020020B402002075
:103B1800B4020020BC020020BC020020C402002025
:103B2800C4020020CC020020CC020020D4020020D5
:103B3800D4020020DC020020DC020020E402002085
:103B4800E4020020EC020020EC020020F402002035
:103B5800F4020020FC020020FC02002004030020E4
:103B6800040300200C0300200C0300201403002091
:103B7800140300201C0300201C0300202403002041
:103B8800240300202C0300202C03002034030020F1
:103B9800340300203C0300203C03002044030020A1
:103BA800440300204C0300204C0300205403002051
:103BB800540300205C0300205C0300206403002001
:103BC800640300206C0300206C03002074030020B1
:103BD800740300207C0300207C0300208403002061
:103BE800840300208C0300208C0300209403002011
:103BF800940300209C0300209C030020A4030020C1
:103C0800A4030020AC030020AC030020B403002070
:103C1800B4030020BC030020BC030020C403002020
:103C2800C4030020CC030020CC030020D4030020D0
:103C3800D4030020DC030020DC030020E403002080
:103C4800E4030020EC030020EC030020F403002030
:103C5800F4030020FC030020FC03002004040020DF
:103C6800040400200C0400200C040020140400208C
:103C7800140400201C0400201C040020240400203C
:103C8800240400202C0400202C04002034040020EC
:103C9800340400203C0400203C040020440400209C
:103CA800440400204C0400204C040020540400204C
:103CB800540400205C0400205C04002064040020FC
:103CC800640400206C0400206C04002074040020AC
:103CD800740400207C0400207C040020840400205C
:103CE800840400208C0400208C040020940400200C
:103CF800940400209C0400209C040020A4040020BC
:103D0800A4040020AC040020AC040020B40400206B
:103D1800B4040020BC040020BC040020C40400201B
:103D2800C4040020CC040020CC040020D4040020CB
:103D3800D4040020DC040020DC040020E40400207B
:103D4800E4040020EC040020EC040020F40400202B
:103D5800F4040020FC040020FC04002004050020DA
:103D6800040500200C0500200C0500201405002087
:103D7800140500201C0500201C0500202405002037
:103D8800240500202C0500202C05002034050020E7
:103D9800340500203C0500203C0500204405002097
:103DA80044050020010203040506000000D8B805F8
:103DB8000C07002000000020FFFFFFFF00000200AA
:00000001FF
