:100000006F00305A130000001300000013000000BE
:100010001300000013000000130000001300000094
:100020001300000013000000130000001300000084
:08003000130000007300100032
:100038000000000000000000E40C0000E60C0000D6
:1000480000000000E80C00000000000000000000B4
:10005800EA0C0000EC0C00000000000000000000AA
:10006800EE0C000000000000F00C00000000000092
:10007800F20C0000F40C0000F60C0000F80C000074
:10008800FA0C0000FC0C0000FE0C0000000D000043
:10009800020D0000040D0000060D0000080D000010
:1000A8000A0D00000C0D00000E0D0000100D0000E0
:1000B800120D0000140D0000160D0000180D0000B0
:1000C8001A0D00001C0D00001E0D0000200D000080
:1000D800220D0000240D0000260D0000280D000050
:1000E8002A0D00002C0D00002E0D0000300D000020
:1000F800320D0000340D0000360D0000380D0000F0
:100108003A0D00003C0D00003E0D0000400D0000BF
:10011800420D0000440D0000460D0000480D00008F
:100128004A0D00004C0D00004E0D0000500D00005F
:10013800520D0000540D0000560D0000580D00002F
:100148005A0D00005C0D00005E0D0000600D0000FF
:10015800620D0000640D0000660D0000680D0000CF
:100168006A0D00006C0D00006E0D0000700D00009F
:10017800720D0000740D0000760D0000780D00006F
:100188007A0D00007C0D00007E0D0000800D00003F
:10019800820D0000840D0000860D0000880D00000F
:1001A8008A0D00008C0D00008E0D0000900D0000DF
:1001B800920D0000940D0000960D0000980D0000AF
:1001C8009A0D00009C0D00009E0D0000A00D00007F
:1001D8000000000000000000000000000000000017
:1001E8000000000000000000000000000000000007
:0801F8000000000000000000FF
:10020000397101436EC619A0397141536AC866CA73
:1002100062CC5ECE21A00100397101535AD056D272
:1002200052D44ED64AD826DA22DC06DE33016140AB
:100230008282010041114AC026C222C406C68282BF
:10024000B24D4101024D924C224CB24B4101010092
:10025000024B924A224AB2494101010002499244AA
:100260002244B240410182802A8309CA8383050067
:10027000230073007D16050385056DFA82802A83AD
:1002800011C62300B3007D16050365FE8280EFF2E0
:100290007FFA716513050520EF005018EF00B007D5
:1002A000EF006078EF0090110965130585F5EF0008
:1002B000F046F92409651305C5F7EF0030466124BF
:1002C000A9452E85112CB12489671384C7FA22858C
:1002D00011241305803EEF001011D5BFEFF29FF5FA
:1002E0002A8413058007112601459126130504FB76
:1002F0001375F50F2D2E01451D2E41450D2E91260E
:10030000B1BFEFF23FF32A89D13F13058007F12CEB
:1003100013050004292E37040020935739009E0747
:100320001304C408930400083E9401450926B3074A
:10033000940023800700FD14EDF8212605B7EFF2A5
:100340007FEF03C56181753F83C761811305800716
:1003500085079D8B238BF180492C0145C92C130502
:10036000300DF12403C561810E051375850FC1247D
:10037000C92CEDB5EFF25FEA2A84154A3304440331
:10038000411113058007B309B0408524130500040B
:10039000792C896793870701B70400203E940149AF
:1003A0009384C408034504F6050433C5A9001375F6
:1003B000F50F2AC6AD2C83C7418103C75181324551
:1003C0008D839E07BA97CA97C207C1833387F4000B
:1003D000050908A31317090141833A89E31447FD6E
:1003E0008507C207C183BE94014523800400812490
:1003F000892C4101B1BDEFF2FFE3AA8793F707060D
:100400001375F507A5C7BD3783C77181D146850729
:1004100093F7F70F63E0F602A38BF18083C7518156
:100420009306A007990793F7F70F63E9F602A38AEB
:10043000F1802DB583C78181A38B01801D47639B0C
:10044000E700F53D03C5818183C761813E951D8924
:100450007135E9B78507238CF180EDB7A38A018058
:1004600083C74181A107238AF180E1B7A947631DB2
:10047000F502A38A018083C74181A107238AF18005
:10048000A38B018083C781811D47639BE700453DA6
:1004900003C5818183C761813E951D89813551BF27
:1004A0008507238CF180EDB7B547E314F5F8A38BEE
:1004B000018003C58181F9BFEFF2DFD741112A84A2
:1004C0000305040019E1410151BB2EC62D37B24589
:1004D0000504FDB78145CDB7EFF2DFD54111238A81
:1004E000B180A38AA1802A84130580072EC6F5282F
:1004F0000145352AB24513E5050B152A1375F4009D
:100500003D22135544001365050115221D2A4101A2
:10051000B1B3EFF23FD2814501457D3F130580071E
:10052000E92037040020130500041304C408012245
:10053000930404C00145E5287D1423000440E31B17
:1005400094FE012221BBEFF2FFCE1D281305800788
:10055000692801458964E1280144938404FF130953
:100560000002B307940088230504D120E31B24FF75
:10057000C928238B0180713F81450145B13FF9B9FD
:10058000EFF25FCB011185452545B521854509452C
:1005900079228545370520009D29371501409305AF
:1005A0000030130505C0952A096441461304C4F3BD
:1005B0003305C100A2854D39375500400C0813059D
:1005C0000540112437550040854513050540C924D1
:1005D00031469305040148004139371501404C006C
:1005E000130505C09D28056195B9B757004093874D
:1005F00007409A2F098B75FF9A23136707109AA358
:10060000B757004093870740DA2B058B75DFB75645
:100610000040370782008AAB938606400D07DE2A2A
:10062000922EC207D18FF98FE39BE7FE8280B757E6
:10063000004093870740DA2B137707086DDF8AABFA
:100640008280B757004093870740DA2B118B75DF04
:100650009A23136707209AA382809C4513F707010A
:1006600013F8F70001C7D8413368E8008E2113F76B
:10067000F50F39C318418146854E3D4F930F8002D7
:1006800093028004214E3396DE00B3F8C500631157
:1006900016039398260033131F011343F3FF337798
:1006A000E300B318180133E7E8006390F70750C977
:1006B0008506E39AC6FD18C11307F00F6376B704E9
:1006C00054410146854E3D4F930F800293028004B2
:1006D000214E130786003397EE00B3F8E50063114F
:1006E00017039318260033131F011343F3FFB37648
:1006F000D300B3181801B3E6D800639CF70158C9BA
:100700000506E318C6FD54C18280E39357FA10C969
:1007100045B7E39757FE18C9E5B70CC98280B707FC
:10072000014063590502DC4F93560501131605017C
:1007300037073000BD8A41823378E500635F0502E8
:10074000631CE800C1060D473317D7001347F7FFB6
:10075000F98F39A0DC43C9BF1317B500E34507FE85
:1007600089C91357550112073317E600D98F63540F
:100770000502370701405CCF82806312E802370828
:10078000014083264800370700F17D17F98F758FE8
:100790002322E800F9F5370701405CC38280131774
:1007A000B500635C07000D473317D7001347F7FF09
:1007B0007D8FB707000FD98FF1BF1357550112076F
:1007C0003317E600E5B7EFF2FFA646217971C1675E
:1007D0002A84938707FC6808FD8C2EC6E120925777
:1007E00037470F001307072433D7E702B2454166A6
:1007F0007916D98C46A01620F18E16A09441616618
:100800001306066A6364D6048606B3D6D702114679
:10081000B687C206C18263F3C600B28705071AB065
:100820005EAC1E204167130757BF93E717001EA059
:100830001E20B625F98FDA21558FD98F1EA09A2553
:10084000DE25D98F1EA445616FF05FA1EA213166D4
:100850007D166317C5020D46B386C602B3D7D7020D
:100860009396470199E293E71700E176D58F9306B7
:10087000C0123307D7029306803E3347D70279BFB1
:100880006546B386C602B3D7D7029166D58FC9BF76
:100890001E2189C593E717001EA182804167791741
:1008A000F98FDDBF371702405443B7177A0021464E
:1008B000B18A938707206394C6045C435843C1669A
:1008C000C983758FB7F6FF1F83A6C670BD8B8907D6
:1008D00013961601634E0606C54601466389D7087E
:1008E00045E73747024003270780418B49CB37173D
:1008F0007A0013070720B387E70211C285831CC162
:1009000037160240544209671307071F9182BD8AB8
:10091000BA969422B3D7D7005CC15442A1829D8A73
:10092000BA969422B3D6D70014C55442AD829D8A9C
:100930003697182393860181B3D7E7005CC55842E8
:1009400039830D8B36971823B3D7E7021CC98280F1
:100950008946638DD700BD45638DB700C146638D61
:10096000D70063F3F600B68701469DBF0146C9472D
:1009700085BF0546B547ADB70146AE8795B7371772
:100980003D001307079085BFB7150240D855931651
:10099000F70063DA0604D45537177A0013070720E7
:1009A0009182BD8A85063357D702D455A182BD8A6C
:1009B00089EE95463307D7020583B7160240D45611
:1009C000BD8A85063357D7023DB785456394B60087
:1009D000E546CDB7BD456396B600D1463387E602FE
:1009E000E9BF8906E5BFD45537177A0013070720FA
:1009F000BD8A8506C1BFB7170240984F81C5498F90
:100A000098CF82801345F5FF798D88CF8280B71704
:100A10000240D84F81C5498FD8CF82801345F5FF5A
:100A2000798DC8CF8280B717024098434111B7062D
:100A3000FFF81367170098C3D84337060200758F75
:100A4000D8C39843B706F7FEFD16758F98C3984331
:100A5000B706FCFFFD16758F98C3D843B70681FF14
:100A6000FD16758FD8C39843B70600ECFD16758F39
:100A700098C33707FF0098C723A6070202C402C61F
:100A80009843C166558F98C385669843718F3AC65F
:100A9000224705073AC4324701E72247E317D7FE4A
:100AA000984385479316E70063D506063EC632474E
:100AB000631FF704B7170240D843B706C1FFFD16FE
:100AC000D8C3D843D8C3D84313670740D8C3D84343
:100AD000758FD8C3D843B7062900558FD8C398431C
:100AE000B7060001558F98C3984393166700E3DD5E
:100AF00006FED843B7160240719BD8C3D84313678C
:100B00002700D8C32147DC42B18BE39EE7FE4101B9
:100B1000828002C669BF371702405443B7177A0074
:100B20002146B18A938707206397C6065C435443E6
:100B30004167C983BD8BF98E1386270089CFBD47D6
:100B40006309F60241476306E600B2876373C70094
:100B5000BA87014719A00147C94799EEB746024035
:100B600083A60680C18A85C2B7167A0093860620BE
:100B700039A80547B547D5B7B7160240D4421396F2
:100B8000E600E35306FEB7163D0093860690B38752
:100B9000D70211C3858337060020232CF6043717AC
:100BA000024054430967130707209182BD8A369794
:100BB0001823B3D7E700232CF6048280B707002060
:100BC00083A7870537177A0013070720B3D7E702F3
:100BD00093F7F70F238EF1801307803EB387E70268
:100BE000239DF1808280B7F700E0D8438146799B4E
:100BF000D8C303D7A1813306A70290CBD4CB9843A7
:100C00001367070198C398431367170298C3D84323
:100C1000058B75DF9843799B98C38280EFF28FE153
:100C20002A841165011185451105F13393070020D0
:100C30007C82371501408D473EC44C00E1471305C7
:100C400005803EC6EFF07FA137450140B707080099
:100C50000C08130505803ECC22C802CA231E0100E1
:100C6000F92A374501408545130505804124056172
:100C70006FF0CFDEEFF20FDC2E89B28401446345C2
:100C8000940026856FF08FDD374501409305000401
:100C900013050580952C6DD9B3078900838507005E
:100CA0003745014013050580C205C181912C05041B
:100CB000F9B7B7060020AA8703A5C6053787002025
:100CC00013070780AA97636BF70037070020130705
:100CD000076563E5E70023AEF60482807D558280D8
:100CE0008280828001A001A001A001A001A001A03A
:100CF00001A001A001A001A001A001A001A001A0EC
:100D000001A001A001A001A001A001A001A001A0DB
:100D100001A001A001A001A001A001A001A001A0CB
:100D200001A001A001A001A001A001A001A001A0BB
:100D300001A001A001A001A001A001A001A001A0AB
:100D400001A001A001A001A001A001A001A001A09B
:100D500001A001A001A001A001A001A001A001A08B
:100D600001A001A001A001A001A001A001A001A07B
:100D700001A001A001A001A001A001A001A001A06B
:100D800001A001A001A001A001A001A001A001A05B
:100D900001A001A001A001A001A001A001A001A04B
:100DA00001A097010020938161AB1771002013010E
:100DB0006125171500001305654B97F5FF1F9385F7
:100DC000652417F6FF1F1306A62A63FAC5008322BF
:100DD000050023A0550011059105E3EAC5FE138522
:100DE0004181970500209385E5866377B500232030
:100DF00005001105E36DB5FEFD42739002BCAD42E6
:100E00007390428099629382820873A0023097F2B5
:100E1000FFFF9382A22293E23200739052301705B3
:100E200000001305C517F520312AEFF0DFBF97F258
:100E3000FFFF938202467390123473002030EFF26A
:100E40006FBF1A29F577FD177D8FFE2179712A84EE
:100E5000D98F1EA95A25FD779387379F7D8FDE2175
:100E60002EC6D98F9A25D98FBA25D98F5EA55A2932
:100E7000DE251377F7CFD98F5EA96808EFF09FA220
:100E8000B747014093870780B2456316F404A25721
:100E900056246547B387E702C206C186984163DEE0
:100EA00006020607930640065224B3D7E70242061D
:100EB000418633D7D702B3F7D70212076351060230
:100EC0008E0793872703B3D7D7029D8BD98F1EA494
:100ED00045616FF0AFB8925765BF0A07E1B7920757
:100EE00093872703B3D7D702BD8BCDB75E2589C5BE
:100EF0000967D98F5EA5828079777D17F98FDDBF6D
:100F000093F5F51F4EA182800A216D8D3335A00027
:100F10008280AA858146014601454DA839713EDA95
:100F200083A7818032D436D62ED23AD842DC46DE30
:100F30008C4754102A863E8506CE36C6B522F2402E
:100F400021618280411122C426C20964896413048C
:100F5000842693848426818C4AC006C689840149EC
:100F60006313990209648964130484269384842694
:100F7000818C89840149631D9900B24022449244C6
:100F80000249410182801C40050911048297C9BFB2
:100F90001C40050911048297F9BF411122C426C2E1
:100FA000096489649384842613048426058C06C608
:100FB000098411E4B24022449244410182807D14AC
:100FC00093172400A6979C438297E5B783A70182D5
:100FD0002A8E81EF938741C323A0F182130500007D
:100FE00009C50327000023A4E708D8437D487D55A1
:100FF0006347E804630E0E0203A887086301080430
:1010000093182700C29823A0C800032308100546A0
:101010003316E6003363C3002320681023A0D808EA
:1010200089466317DE0083264810D18E2322D8100C
:10103000930617000A07D4C3BA978CC7014582806C
:101040001C46FD171CC663DA0700184E63C5E7008F
:10105000938765FF99E36F00807F1C422E8513877D
:10106000170018C28CA38280011122CC26CA4AC85C
:101070004EC652C406CEAA892E8A3284B304D60044
:101080007D5963149400014501A80C2052864E85B9
:10109000453F0504E31725FFF2406244D24442492C
:1010A000B249224A05618280717122D526D34ECF82
:1010B00052CD06D74AD156CB5AC95EC762C566C360
:1010C000AA89AE843284368A01C51C5191E3B12DC0
:1010D000DE24A18BF9C39C48E9C393070002A30C4B
:1010E000F10252CE93070003096A02DA230DF102DE
:1010F000FD5A130A4AFB854B294B228C83470C006F
:10110000B33CF0009387B7FDB337F000B3FCFC00AD
:1011100063980C0AB3068C40630D8C002286A6856A
:101120004E8536C691376301551BD257B246B697E6
:101130003EDA83470C006389071813041C0002D0B1
:1011400002D656D202D4A301010682DC0C20154639
:101150005285EF00D00382579306140025E513F75C
:10116000070109C713070002A301E10613F787006F
:1011700009C71307B002A301E10610201307A0025C
:10118000630AE604B257814625461820130707FD77
:101190006377E608A9CA3ED6B9A0A6854E85EF00BA
:1011A000A07305DD7D55BA502A549A540A59FA495C
:1011B0006A4ADA4A4A4BBA4B2A4C9A4C4D618280B1
:1011C000050C2DBF330545413395AB005D8D2AD00D
:1011D0003684ADBF724713064700184332CE6349C9
:1011E00007023AD6368418209307E002631AF70400
:1011F00018309307A002631AF702F2470904138715
:1012000047009C433ACE63D30700FD573ED20DA85A
:101210003307E04093E727003AD63ED0E1B7B387E3
:10122000670305048546BA978DB7050402D2814746
:10123000A5461820130707FD63F0E606E3980CFCAB
:101240000C20096C0D461305CCFBEF00407409CD52
:101250008257130CCCFB3305854113070004331769
:10126000A700D98F05043ED00C2009651946130547
:1012700005FC230CB102212F39CD930700009DE717
:101280000257F2471377071011CF91073ECED2577E
:101290000504CA973EDA95B5B38767030504854C04
:1012A000BA9741BF9D07E19BA107CDB78566780836
:1012B0009386860626860C104E8597000000E70070
:1012C00000002A89E31555FDDE2493F70704E39B0C
:1012D00007EC5255C9BD8566780893868606268632
:1012E0000C104E85192AF1BF79714ECE9C49BA89EE
:1012F000984522D44AD05AC85EC606D626D252CCC9
:1013000056CA2A8B2E843289B68B63D3E700BA87FC
:101310002320F9000347340401C785072320F9007F
:101320001C4093F7070291C78327090089072320F0
:10133000F9000440998891E8130A9401FD5A5C442D
:1013400003270900998F63CDF4041C4083463404BD
:1013500093F70702B336D000ADEB13063404DE85F5
:101360005A858299FD576304F5041C401147814456
:10137000998B639AE7008327090044449D8C93C7A7
:10138000F4FFFD87FD8C1C4418486354F700998FC7
:10139000BE94014969047D5A63982405014509A852
:1013A00085465286DE855A858299631E55017D5594
:1013B000B250225492540259F249624AD24A424BE4
:1013C000B24B4561828085049DBF3307D40013066C
:1013D0000003A301C7040347540493871600A29790
:1013E0008906A381E70495BF85462286DE855A8556
:1013F0008299E30E45FB050945B7397122DC26DAEF
:1014000052D456D206DE4AD84ED69C2DB6849306C8
:1014100080072A8A2E84B28A63EEF600930620069D
:101420001386350463EBF6006385071A930680057F
:101430006383D7161309240435A09386D7F993F64E
:10144000F60FD545E3E8D5FE89658A069385052123
:10145000AE96944282861C43130924049386470067
:101460009C4314C32301F404854779A21C4008431C
:1014700093F607089305450085C21C410CC3896695
:1014800063D807001307D002B307F040A301E404B8
:10149000938686FC294789A093F607041C410CC358
:1014A000F9DEC207C187E1BF0C40144313F50508FC
:1014B0009C42910611E593F5050499C1C207C183C9
:1014C00014C30C2C89661307F006938686FC639D73
:1014D000E50C2147A30104044C400CC463C805007B
:1014E0000840DD8D32896D9908C091CD3289B3F500
:1014F000E7027D19B6958C212300B900BE85B3D7CC
:10150000E702E3F6E5FEA147631EF7001C40858B6A
:1015100091CB58401C4863C7E70093070003A30F13
:10152000F9FE7D193306264110C82687D686700835
:10153000A2855285553BFD596314350D7D55F250FA
:101540006254D2544259B259225A925A216182802D
:101550001C4093E707021CC08966930780079386A7
:10156000C6FDA302F4040C40084313F805081C410F
:1015700011056318080013F8050463040800C20786
:10158000C18308C313F7150001C793E505020CC01A
:1015900099C7414781B78966938686FCD9B71840B9
:1015A0001377F7FD18C0F5B729472DB714401C4332
:1015B0004C4813F80608138547006306080008C363
:1015C0009C438CC339A008C393F606049C43F5DA08
:1015D0008EA323280400328989BF1C4350408145D3
:1015E0009386470014C303A907004A854D2601C509
:1015F0003305254148C05C401CC8A301040435B72D
:1016000014484A86D68552858294E30935F31C40F6
:10161000898B95E7F2474844E353F5F23E8505B7D9
:101620008546D685528532C68294E30935F1324625
:1016300005095C447247998FE344F9FEE1BF014913
:1016400013069401FDB7411122C406C62A844EA593
:1016500072A5232005002322050023240500232250
:10166000050623280500232A0500232C0500214612
:1016700081451305C505EFE09FC085679387E7792E
:101680005CD085679387A77C1CD489679387278163
:101690005CD4896793878784B24000D01CD82244E9
:1016A0004101828037060020896537050020130636
:1016B000C6049385E5D71305050059A04C41411197
:1016C00022C406C6938701CC2A846383F500452D86
:1016D0000C44938781D26384F50022854D254C44C8
:1016E000938701D96387F50022852244B2404101E6
:1016F00079A5B240224441018280856741119387D8
:10170000476A01469145138501CC06C623A2F182A2
:101710001D3F0546A545138581D23537B2400946A0
:10172000C945138501D9410139BF1C5189EB856732
:101730009387C76B1CD183A7418291E37DBF8280D1
:10174000797122D44AD04ECE52CC56CA06D626D271
:101750002A8AAE8A01440549FD590C464442FD14CB
:1017600063DE0400104275FAB2502285225492546E
:101770000259F249624AD24A45618280DE25637D80
:10178000F9008397E50063893701528532C62EC47C
:10179000829A3246A245498C93858506C9B7411184
:1017A00022C42E848395E50006C6912C634905006A
:1017B0007C48AA977CC8B2402244410182805E24C2
:1017C0007D777D17F98F5EA4FDB7DE25011122CC50
:1017D00026CA4AC84EC606CE93F70710AA842E849E
:1017E0003289B68991C78395E50089460146CD22A5
:1017F0005E247D777D17F98F8315E4005EA4624433
:10180000F240CE864A86B24942492685D2440561D5
:1018100031AC411122C42E848395E50006C64D2AC1
:101820007D578317C400631CE50013070580130769
:101830000780F98F5EA4B24022444101828005678F
:10184000D98F5EA468C8C5BF8395E500A9AA011118
:1018500022CC26CA4EC606CE4AC8AA84AE89328495
:1018600001C51C5191E3D1351C4C1CC45E24A18BD5
:1018700099C31C4891EFA2852685B92811C97D59C5
:10188000F2406244D244B2494A85424905618280AD
:101890001C4808401D8D5C486346F500A2852685DE
:1018A000F92971FD1C44050513F9F90FFD171CC436
:1018B0001C401387170018C0238037015C486388D9
:1018C000A7005E24858BCDDF930769FFD5FBA2853A
:1018D0002685752155D565B7411126C2AA8403A571
:1018E000818022C406C62E8401C51C5191E3353D7A
:1018F0008317C40013F7870031E313F7070101EBE7
:10190000254798C093E707045EA47D55ADA013F763
:10191000470015C34C5889C9930744046384F500F4
:1019200026852D2A232A04025E2418482322040037
:1019300093F7B7FD18C093E787005EA41C4899EBA6
:101940005C441307002093F707286385E700A2850E
:10195000268565298317C40013F7170015C3584857
:10196000232404003307E04018CC1848014501E760
:1019700013F7070841FBB2402244924441018280A0
:1019800013F72700814611E3544814C4F9BF93F5B7
:10199000F50F2A966314C500014582801C21E38E51
:1019A000B7FE0505C5BF411122C426C2AA842E85F3
:1019B00006C623A40182A923FD576316F50083A759
:1019C000818291C39CC0B2402244924441018280F2
:1019D000411122C426C2AA842E85B285368606C647
:1019E00023A401828123FD576316F50083A781821A
:1019F00091C39CC0B2402244924441018280411173
:101A000022C426C2AA842E85B285368606C623A4A1
:101A10000182392BFD576316F50083A7818291C39C
:101A20009CC0B2402244924441018280411122C4B0
:101A300026C2AA842E85B285368606C623A40182D4
:101A4000EFF04FA3FD576316F50083A7818291C382
:101A50009CC0B2402244924441018280D1CD83A7F0
:101A6000C5FF011122CC06CE1384C5FF63D3070046
:101A70003E942AC6E52283A70183324589EB2322BF
:101A8000040023A881826244F2400561C9AA637DF3
:101A9000F4001040B306C4006396D7009443DC43BF
:101AA000B29614C05CC0F1BF3E87DC4399C3E37DAE
:101AB000F4FE14433306D700631F86001040B2962D
:101AC00014C33306D700E390C7FC9043DC43B296BF
:101AD00014C35CC34DBF6375C400B1471CC165B777
:101AE0001040B306C4006396D7009443DC43B2961B
:101AF00014C05CC040C341BF8280411122C483A78F
:101B0000C18226C24AC006C62A89AE8489E78145B9
:101B1000D12623A6A182A6854A856D2EFD54631A7F
:101B200095007D54B24022852244924402494101ED
:101B30008280130435007198E30685FEB305A44046
:101B40004A85492EE31095FEE9BF011126CA938408
:101B50003500F19806CE22CC4AC84EC652C4A10424
:101B6000B14763F3F400BE8463C4040063FDB400B2
:101B7000B1471CC10145F2406244D2444249B249D6
:101B8000224A056182802A89D12883A701833E8465
:101B900039E4A6854A859537FD572A84631EF50AE0
:101BA00003A40183A287C9EB55C0032A0400814521
:101BB0004A85229A0526631BAA081C404A859D8CEB
:101BC000A685253FFD576303F5081C40A6971CC05A
:101BD00083A70183D84325E723A8018215A01440D9
:101BE000858E63C806042D47637DD70204C0330782
:101BF00094006396870223A8E1825C4014C35CC30F
:101C00004A85B1281305B40093074400619933074E
:101C1000F540E302F5F63A94898F1CC0A9BFD8C3FA
:101C2000E9BF58406395870023A8E182D1BFD8C39C
:101C3000C1BFA2874040A9BF3E84DC43ADB73E8709
:101C4000DC43E39E87FE232207005DBFB1472320CC
:101C5000F9004A85292039BF04C15DB7828082809E
:101C60008397C500011122CC26CA06CE4AC813F7B5
:101C70008700AA842E845DEFD8416345E000B84117
:101C80006358E00A58544DC703A9040093963701DE
:101C900023A0040063DC060670485E24918B99C77C
:101CA0005C401D8E5C5899C33C401D8E5C540C50AA
:101CB0008146268582977D578317C400631DE50002
:101CC00094407547636FD70837074020050733579F
:101CD000D700058B59C718482322040018C0139752
:101CE000370163580700FD576314F5009C4091E3EA
:101CF00068C84C5823A0240185CD9307440463840D
:101D0000F5002685A13B232A04021DA00C500146A4
:101D1000854626850297FD572A86E310F5F89C40F4
:101D2000ADDF138737FE19C3A9179DEB23A024014C
:101D3000014525A890496DDE94418D8B90C1338972
:101D4000C640014791E3D84918C4E35320FF1C540F
:101D50000C50CA86268532C682973246634DA00053
:101D60005E2493E707045EA47D55F2406244D244AA
:101D70004249056182802A963309A940F9B79C49F6
:101D80008DCB011122CC06CE2A8419C51C5189E7BE
:101D90002EC6EFF09F99B2458397C50091C7228563
:101DA0006244F24005616DBDF24062440145056147
:101DB0008280014582801971A2DC2E848395E50022
:101DC000A6DA86DEB28463D005025E2493F70708A4
:101DD0008DEB13070040F65066549CC298C0014535
:101DE000D65409618280300836C65128B246E34E87
:101DF00005FCF2473D67F98F7977BA9793B71700DB
:101E0000C9BF814713070004F9B7DA25797122D4D5
:101E100006D626D2098B2E8401CF930774041CC0EA
:101E20001CC885475CC8B2502254925445618280D8
:101E300074083008AA844137E24526852EC631331E
:101E40008317C400B24509E913F7072069FFF19B26
:101E500093E727005EA4D1B793E707085EA4F24793
:101E600008C008C84CC8E1D38315E400268535288E
:101E70005DD95E24F19B93E717005EA46DB7411115
:101E800022C426C2AA842E85B28506C623A4018256
:101E9000B528FD576316F50083A7818291C39CC0C6
:101EA000B2402244924441018280411122C426C2A0
:101EB000AA842E8506C623A40182B928FD5763167D
:101EC000F50083A7818291C39CC0B2402244924412
:101ED00041018280411122C426C2AA842E8506C6F1
:101EE00023A40182EFE0FFDCFD576316F50083A712
:101EF000818291C39CC0B2402244924441018280BD
:101F00001307800523A4E1827D5582801307800595
:101F100023A4E1827D5582801307800523A4E182FA
:101F2000014582801307800523A4E1827D558280CC
:101F30001307800523A4E1827D558280803801004B
:101F40000000004008000004004000000003000002
:101F5000030000001C000000D098D0BDD0B8D1868E
:101F6000D0B8D0B0D0BBD0B8D0B7D0B0D186D0B870
:101F7000D18F20493243000000000000D098D0BD2E
:101F8000D0B8D186D0B8D0B0D0BBD0B8D0B7D0B050
:101F9000D186D0B8D18F204F6C656420D094D0B852
:101FA000D181D0BFD0BBD0B5D18F000048656C6C5B
:101FB0006F000000232D302B20000000686C4C00C7
:101FC0006566674546470000303132333435363771
:101FD0003839414243444546000000003031323335
:101FE0003435363738396162636465660000000055
:101FF000AED5F0A83FD300408D142000A1C8DA026E
:10200000813FD922DB20A4A62EAF22003F21007FF2
:10201000000000000000005F00000007000700143F
:102020007F147F14242A7F2A1223130864623649FE
:102030005522500005030000001C224100004122EF
:102040001C0014083E081408083E08080050300020
:10205000000808080808006060000020100804025A
:102060003E5149453E00427F400042615149462170
:1020700041454B311814127F1027454545393C4ADC
:10208000494930017109050336494949360649492C
:10209000291E003636000000563600000814224182
:1020A00000141414141400412214080201510906EA
:1020B000324979413E7E1111117E7F494949363EB0
:1020C000414141227F4141221C7F494949417F09C9
:1020D0000909013E4149497A7F0808087F00417F8C
:1020E00041002040413F017F081422417F40404091
:1020F000407F020C027F7F0408107F3E4141413E39
:102100007F090909063E4151215E7F09192946468A
:102110004949493101017F01013F4040403F1F20B3
:1021200040201F3F4038403F631408146307087085
:1021300008076151494543007F41410002040810EE
:10214000200041417F000402010204404040404021
:10215000000102040020545454787F484444383825
:1021600044444420384444487F3854545418087E2A
:102170000901020C5252523E7F0804047800447D4B
:1021800040002040443D007F1028440000417F4033
:10219000007C041804787C080404783844444438EB
:1021A0007C14141408081414187C7C0804040848CF
:1021B00054545420043F4440203C4040207C1C2088
:1021C00040201C3C4030403C44281028440C5050D7
:1021D000503C4464544C44000836410000007F00E9
:1021E000000041360800100808100800060909061A
:1021F00000000000010203040102030406070809AD
:1022000000000000000000000102030406070809A6
:10221000561400006C140000341400003414000044
:1022200034140000341400006C1400003414000056
:10223000341400003414000034140000AC15000005
:10224000A8140000501500003414000034140000DD
:10225000DA15000034140000A81400003414000043
:082260003414000058150000C1
:10226800000000001805002080050020E805002077
:102278000000000000000000000000000000000056
:102288000000000000000000000000000000000046
:102298000000000000000000000000000000000036
:1022A8000000000000000000000000000000000026
:1022B800030000001805002000D8B80550060020CB
:0C22C800000000200000000002040608D6
:00000001FF
