:100000006FA0E05113000000130000001300000077
:100010001300000013000000130000001300000094
:100020001300000013000000130000001300000084
:08003000130000007300100032
:10003800000000000000000060A4000062A40000AE
:100048000000000064A400000000000000000000A0
:1000580066A4000068A40000000000000000000082
:100068006AA40000000000006CA40000000000006A
:100078006EA4000070A4000072A4000074A4000024
:1000880076A4000078A400007AA400007CA40000F4
:100098007EA4000080A4000082A4000084A40000C4
:1000A80086A4000088A400008AA400008CA4000094
:1000B8008EA4000090A4000092A4000094A4000064
:1000C80096A4000098A400009AA400009CA4000034
:1000D8009EA40000A0A40000A2A40000A4A4000004
:1000E800A6A40000A8A40000AAA40000ACA40000D4
:1000F800AEA40000B0A40000B2A40000B4A40000A4
:10010800B6A40000B8A40000BAA40000BCA4000073
:10011800BEA40000C0A40000C2A40000C4A4000043
:10012800C6A40000C8A40000CAA40000CCA4000013
:10013800CEA40000D0A40000D2A40000D4A40000E3
:10014800D6A40000D8A40000DAA40000DCA40000B3
:10015800DEA40000E0A40000E2A40000E4A4000083
:10016800E6A40000E8A40000EAA40000ECA4000053
:10017800EEA40000F0A40000F2A40000F4A4000023
:10018800F6A40000F8A40000FAA40000FCA40000F3
:10019800FEA4000000A5000002A5000004A50000C0
:1001A80006A5000008A500000AA500000CA500008F
:1001B8000EA5000010A5000012A5000014A500005F
:1001C80016A5000018A500001AA500001CA500002F
:1001D8000000000000000000000000000000000017
:1001E8000000000000000000000000000000000007
:0801F8000000000000000000FF
:10020000411122C406C600082244B240AA85814694
:100210000146014541018DA4397122CC06CE001062
:100220002E8E0C451303840010C454C472869A8623
:1002300018C85CC8232C0401232E1401232664FE55
:10024000E524F24062442161014381450146814633
:100250000147814701488148014E8280397122CC93
:1002600006CE0010370300200323836C10C454C44F
:100270004CC018C85CC8232C0401232E140183250C
:100280008300930644002A861A852326D4FE692C0F
:10029000F2406244216101438145014681460147A4
:1002A0008147014881488280011122CC26CA4EC66E
:1002B00006CE4AC80010AD69AD64938909019384E4
:1002C0000401638D9900B389994093D9294001496C
:1002D0009C40050991048297E36C39FFAD69AD64D8
:1002E0009389490193840401638D9900B3899940EE
:1002F00093D9294001499C40050991048297E36CF8
:1003000039FFF2406244D2444249B2490561814713
:100310008280411126C2AD67AD6493874701938403
:10032000440122C44AC006C60008858F13D927405D
:10033000630A0900F114BE949C407D19F114829760
:10034000E31C09FEB2402244924402494101814724
:100350008280411122C406C60008B3C7A5008D8B58
:10036000B308C500BDE71336460025E69377350090
:100370002A87E5E313F6C8FFB306E64093070002B9
:1003800063CDD706AE86BA876371C70203A806009D
:100390009107910623AE07FFE3EAC7FE7D16198E8B
:1003A000719A91051107B295329763671703B240AE
:1003B00022444101814201438143814501468146F6
:1003C0000147814701488148014E814E014F814FCD
:1003D00082802A87E37D15FD83C705000507850513
:1003E000A30FF7FEE385E8FC83C705000507850535
:1003F000A30FF7FEE392E8FE5DBF945183A30500CF
:1004000083A2450083AF850003AFC50083AE05011D
:1004100003AE450103A3850103A8C50113074702E5
:10042000232ED7FE232E77FCB306E640232057FE6B
:100430002322F7FF2324E7FF2326D7FF2328C7FF24
:10044000232A67FE232C07FF93854502E3C7D7FACB
:1004500015BF83C60500050793773700A30FD7FEA6
:10046000850589DB83C60500050793773700A30F51
:10047000D7FE8505F9FFFDBD797122D426D200187B
:100480004AD04ECE52CC06D62A8903A5C180232E4F
:10049000B4FCB289368AEF30701883A7818883252F
:1004A000C4FDB5CBD843FD4603A5C18063CAE606AB
:1004B00093162700631809020507D8C3B6978CC79F
:1004C000EF30101A0145B250225492540259F249A9
:1004D000624A45618145014681460147814701489D
:1004E00081488280B388D70023A4380903A88718DD
:1004F00005463316E6003368C80023A4071923A471
:1005000048110948E31A09FB03A8C7183366C80055
:1005100023A6C71855B7938701CC23A4F18859B7F0
:10052000EF3010147D5545B765712326111823242B
:10053000811823202119000B232C4117232A51173E
:1005400032892324D4EC2E8AAA8AEF30806F1C4192
:100550003E852320F4EAEF30302D2322A4EA63877E
:100560000A0083A74A0399E36F10807703274A069E
:100570008317CA0093761700638306349396270186
:1005800063D406006F106006F976FD160966758F54
:10059000D18F2322EA062316FA009317270163D48A
:1005A00007006F20005D8317CA0013F787006304FC
:1005B000072203270A016300072213F7A701A946B0
:1005C0006309D722A9672328611723267117130B04
:1005D000C4F1AD6B9387077523229118232E311731
:1005E00023248117232291172320A117232EB1152D
:1005F000232C04F0232A04F0232404EA232604EA0B
:10060000232864F1232EF4EA938BCB8C232A04EA6B
:10061000232204E8232E04E8232E04E6232004E802
:10062000232604ECC149DA84834709004A8C1387E6
:10063000B7FD39C7B1C7E28C83471C00050C81C7E1
:100640001387B7FD6DFB330D2C41630B2C03832700
:1006500084F1032544F123A02401EA97050523A290
:10066000A401232CF4F0232AA4F09D47A10463C124
:10067000A71C8327C4ECEA972326F4EC83C71C004D
:1006800099E36F10407003481C0013091C00A30776
:1006900004EE7D5C814D930CA005014D0509930787
:1006A00008FE63EEFC020327C4EB8A07BA979C435B
:1006B0008287930708FD014DA54613172D000348B7
:1006C0000900B308A7018608338D1701930708FDB9
:1006D0000509E3F4F6FE930708FEE3F6FCFCEA885E
:1006E000631408006F10206A054F230E04F5A3075A
:1006F00004EEFA8C232004EC014C232804EA232C7A
:1007000004EA814F9307C4F5032684F113FD4D08D5
:10071000328E63090D560347F4EE29C7832544F151
:1007200001471305F4EE88C0050605458505C8C0D8
:10073000232CC4F0232AB4F01D45A104634FB52037
:1007400015C3832544F1130704EF98C00906094730
:100750008505D8C0232CC4F0232AB4F01D47A1047A
:10076000E34DB73413070008E305ED22330CEC41E9
:100770006346805313F70D10631607609CC08327F0
:1007800044F17A96232CC4F0850723A2E4011D4787
:10079000232AF4F0634AF72AA10413F34D006306F9
:1007A0000300338C98416341802D63D39801E68820
:1007B0008327C4ECC6972326F4ECE318062C832782
:1007C00004EC232A04F091C7832504EC5685EF40FE
:1007D000502CDA8491BDD2855685EF30001E19C1A8
:1007E0006F2020388317CA00A94613F7A701E31B1F
:1007F000D7DC0317EA00E34707DC03274A06058B2B
:1008000011E793F7072099E36F103007832684ECF4
:10081000032481188320C1184A86D2850329011830
:10082000032A81175685832A411759616F20C044D6
:10083000130604F1D2855685EF20405219E9DA8477
:100840000DBD032A84EB832504EC81C55685EF405A
:10085000502403274A068317CA00058B6304072A1E
:1008600093F70704832441188329C117032B011729
:10087000832BC116032C8116832C4116032D0116E0
:10088000832DC115A5E30325C4EC8320C1180324DF
:10089000811803290118032A8117832A41175961F6
:1008A0008142014381438145014681460147814799
:1008B00001488148014E814E014F814F828093F65D
:1008C0000720638C062493962701E3DF06CA93165C
:1008D0002701E3DC06CC8357CA0093F7072099E38E
:1008E0006F20802DFD572326F4EC71BF93F78D0008
:1008F000EA88E39E0762832784EC9D07E19B9C23A3
:10090000A1072324F4EC2734F4EA873784EAD39749
:1009100007E293F717083337F000232CE4EAE38566
:100920000766D30700D2073784EA93FDFDF7D31794
:10093000F7A299C36F10F01F930770040347F4EEFA
:1009400063D407016F10805CAD67938707CF19C32D
:100950006F10901F0D4FFA8C39A6130604F1D28543
:100960005685232CE4E72324F4E8232604E92328EE
:10097000F4E9232AE4E8232C14E9EF20203EE314D1
:1009800005EC032684F1032F84E7832784E80328FA
:10099000C4E8832F04E9032744E9832884E9DA843F
:1009A00045B3032744F1832644EB85452E962E97C5
:1009B00013858400E3DDD5388545CCC09CC0232C4D
:1009C000C4F0232AE4F09D4563D4E5006F10A0270E
:1009D000832644EA832504EA050736960CC154C1F0
:1009E000232CC4F0232AE4F09D45210563D4E500BF
:1009F0006F106022D30700D2073784EA832644EBC6
:100A0000D325F7A29384F6FFE393053805072696CE
:100A10008507232AE4F0232CC4F01CC144C19D4760
:100A2000E3C4E7342105832644E8930704F005076F
:100A300036961CC1232CC4F0232AE4F054C19D47F0
:100A400093048500E3DBE7D4130604F1D2855685D1
:100A5000232C14EBEF208030E31705DE032684F10E
:100A6000832884EBDA8415BB414D832744F12D6E36
:100A700063448D016F10706126879D4D232C14EB0C
:100A80009304CE8B21A0411C635E8D034106850734
:100A900004C32322A701232CC4F0232AF4F0210746
:100AA000E3D3FDFE130604F1D2855685EF20002B1B
:100AB000E31B05D8411C032684F1832744F15A87A0
:100AC000E3468DFD832884EB268EBA8462968507E3
:100AD000232CC4F0232AF4F023A0C40123A2840110
:100AE0001D47E354F7CC130604F1D2855685232C19
:100AF00014EBEF20A026E31805D4032684F1832805
:100B000084EB65B113F70720E31C07D403258A059E
:100B1000EF3000358317CA00A1B303258A05EF30F3
:100B2000E02F8317CA0003274A0693962701E3C6DE
:100B300006A699BC0348090095B60348090093ED41
:100B40000D02A9BE93F70D02EA886390073283274E
:100B500084EC13F70D01910719C36F1050528326CF
:100B600084EC13F70D0483AC060019E36F10802C9E
:100B7000C20C93DC0C4193D6FC412324F4EC368761
:100B80006343073063400C3293FDFDF7631C0C3068
:100B9000B3E7DC0063980730834EF4EE63940E00F5
:100BA0006F10A031814C814F232004EC014F014C88
:100BB000930704FC850C63940F006F20A0060326A6
:100BC00084F1832544F113FD4D08890C328E2E8566
:100BD00063070D6C232804EA232C04EA814FE38485
:100BE0000EB609473DBE032784ECEA88054F1C4337
:100BF000A30704EE230EF4F4930747002324F4EC38
:100C0000CDBC032784ECA30704EEEA881C43130D34
:100C10004700E388077263540C006F00507A3E85EA
:100C200062868145232804EB232C14EB2324F4EC67
:100C3000EF20306A2320A4EC0347F4EE832784ECF2
:100C4000832884EB032804EB19E16F10D037330FAE
:100C5000F5409346FFFFFD86B37CDF0019C36F00AC
:100C600030792324A4ED032684F1232004EC2328E7
:100C700004EA232C04EA13FD4D08014C814F328E07
:100C8000E31B0DA833879841E343E00A0347F4EEE2
:100C9000E31607A8330CEC41E35E80AD2D6E83258F
:100CA00044F1130ECE8C63DE89072326F4E81D4D34
:100CB000A687232C14E9E284232AF4E9232804E9F3
:100CC0002324E4E95E8C21A0C11463DF990241066C
:100CD000850523A0770123A23701232CC4F0232A02
:100CE000B4F0A107E352BDFE130604F1D285568588
:100CF000EF20C006E31905B4C114032684F183254F
:100D000044F1DA87E3C599FC628E832884E9268C56
:100D1000832F44E9BE84032804E9032F84E8832752
:100D2000C4E86296850523A0C40123A28401232C74
:100D3000C4F0232AB4F01D47A104E35DB7A2130653
:100D400004F1D28556852324E4E92326F4E82328F8
:100D500004E9232AF4E9232C14E9EF202000E3140A
:100D600005AE13F70D10032684F1032F84E88327C3
:100D7000C4E8032804E9832F44E9832884E9DA845A
:100D8000E30E079E13075006E35D07C1D30700D2A9
:100D9000073784EA5327F7A2630B075A832744F1E6
:100DA0002D67130707D398C0050605478507D8C0E8
:100DB000232CC4F0232AF4F01D47A104E349F7745F
:100DC000832744EF032744EBE3D9E702032744EAF0
:100DD000832744F1832604EA3A968507D8C094C055
:100DE000232CC4F0232AF4F01D47A104E345F73E69
:100DF000832744EB138CF7FFE351809B414D8327FE
:100E000044F12D6E63448D016F105059A6861D4725
:100E1000232C14EB9304CE8C31A0411C63448D0130
:100E20006F1000034106850784C223A2A601232C6C
:100E3000C4F0232AF4F0A106E351F7FE130604F1EF
:100E4000D2855685EF109071E31F059E032684F12D
:100E5000832744F1DA861D47C9B793F70D02EA8864
:100E600013E30D01E384070A9A8D832784EC9D0721
:100E7000E19BD843938687002324D4EC83AC0700FE
:100E8000BA86E35107D0B3379001B306D0409D8EA8
:100E90009307D002A307F4EEB30C904163440C0017
:100EA00093FDFDF7E39E063AA547E3EB973B938C52
:100EB0000C03A30F94FBE28CE35F8029834EF4EED6
:100EC000814F054F9307F4FB232004ECE3850ECEFE
:100ED000850CD5B1832784EC03AD070063550D72F3
:100EE000832784EC330DA04191072324F4EC0348BD
:100EF000090093ED4D006FF06FFA93F70D02EA8849
:100F000013E30D0195EF032784ECA30704EE81465C
:100F1000832C07009307470063540C006F10404573
:100F20002324F4EC937DF3F7E3100CF8E39E0CF626
:100F3000814FE1AA93F70D02EA88E38E071C6E83C6
:100F4000832784ECA30704EE9D07E19B13878700AA
:100F50002324E4EC83AC0700D443E3470C20B3E73D
:100F6000DC00937DF3F79DFFE31E0CF2814F71AA25
:100F70009307B00203480900A307F4EE6FF00FF2E5
:100F80000348090093ED0D086FF04FF10348090085
:100F90009307A002930619006314F8006F10303E07
:100FA000930708FD2546014C6360F60213172C00D9
:100FB00003C806003A9C060C3E9C930708FD850674
:100FC000E376F6FEE34E0C1E36896FF04FED568544
:100FD000EF2030475C413E852320F4E8EF30C00429
:100FE000232EA4E65685EF20D04518458327C4E775
:100FF00003480900232EE4E8638207EA630007EA56
:1010000083470700638C07E893ED0D406FF00FE90D
:101010000348090093ED1D006FF04FE88347F4EE9D
:1010200003480900639C07E693070002A307F4EE58
:101030006FF0CFE693F70D02EA8893E60D01638D1A
:10104000076A832784EC9D07E19B1387870023248D
:10105000E4ECD0439843A30704EE93FDF6BF634F3F
:101060000C2893FDF6B7631B0C28B367C700639782
:10107000072893FC1600638F0C4A93070003A30F05
:10108000F4FA668F232004EC014C232804EA232C75
:1010900004EA814F9307F4FB6FF00FE70348090060
:1010A00093ED8D006FF08FDF034809009307C006B2
:1010B000E305F81493ED0D016FF04FDE03480900CE
:1010C00093078006E302F81093ED0D046FF00FDD37
:1010D000032784ECA167938707832318F4EEA30703
:1010E00004EE93074700EA8818430146E3410C08E1
:1010F00013F3FDF7936D2300E31C0746E31A0C4638
:101100002324F4EC894F13088007834EF4EE014C3E
:10111000814C014F930704FC232004EC45BB93F75B
:101120000D02EA8863930760832784EC13F70D01AF
:10113000910719C36F100075032784EC93F60D0413
:101140001843E3810656420741832324F4ECEE86DC
:10115000014611B7832684EC93F70D0213874600EE
:101160006391075893F70D01E39A073E93F70D0437
:10117000E396075A13F30D20E302033E832784EC22
:101180008326C4EC2324E4EC9C432380D7006FF037
:10119000AFC9338D9841635BA0DDC14E832544F117
:1011A0002D6E63C4AE016F1060742326F4E89D4277
:1011B000A687232C14E9EA84232AF4E94A8D2328FC
:1011C00004E92324E4E91309CE8C21A0C11463D1DE
:1011D0009E044106850523A0270123A2D701232CC5
:1011E000C4F0232AB4F0A107E3D2B2FE130604F13F
:1011F000D2855685EF109036631705E4C14EC114B1
:10120000032684F1832544F1DA879D42E3C39EFCE3
:101210004A8E832884E96A89832F44E9268D03282E
:1012200004E9BE84032F84E88327C4E86A96850511
:1012300023A0C40123A2A401232CC4F0232AB4F0C8
:101240001D47A1046354B7D2130604F1D285568515
:101250002324E4E92326F4E8232804E9232AF4E9F3
:10126000232C14E9EF10902F631F05DC032684F173
:10127000832884E9832F44E9032804E98327C4E809
:10128000032F84E8DA846FF06FCE130604F1D28561
:101290005685EF10B02C630405D26FF0CFDA338798
:1012A0009841232804EA232C04EA814F6340E01C80
:1012B000638B0EC809476FF0CFC6130604F1D285C1
:1012C00056852324E4E92326F4E8232804E9232A85
:1012D000F4E9232C14E9EF107028631605D60326D1
:1012E00084F1032F84E88327C4E8032804E9832FCB
:1012F00044E9832884E9DA846FF0CFC6930704FCBD
:101300009315D601937677000D833E852E979386AD
:1013100006030D82B365C700A38FD7FEFD17EDF15D
:10132000938606FD89C613F71D006315073813075A
:1013300004FC330FF740E28C6344EC37232004ECC9
:10134000232804EA232C04EA814F6FF0EFBB032C1F
:1013500044EF6355802D032744EB7E8C6353F701E4
:101360003A8C63538003032744F162969CC00507BF
:1013700023A28401232CC4F0232AE4F09D45A10478
:1013800063D4E5006F10E02C1347FCFF7D87337CAE
:10139000EC00338C8F41E340802113F70D40338DF7
:1013A000F70119C36F10C003032744EF832644EBF2
:1013B000634DD77A93F51D006399057A832644EB34
:1013C000B697338CA7413387E640635387013A8C45
:1013D00063548003832744F1629623A0A401850708
:1013E00023A28401232CC4F0232AF4F09D45A104F8
:1013F00063D4F5006F1040409347FCFFFD87B3773F
:10140000FC001D8F635BE0B8414C832744F12D6ED7
:101410006344EC006F100079A686232824EB1D4D51
:10142000232C14EBBA841309CE8C31A0C11463446D
:101430009C006F10602E4106850723A0260123A281
:101440008601232CC4F0232AF4F0A106E350FDFE0C
:10145000130604F1D2855685EF105010631505BEB2
:10146000032684F1832744F1DA86C9B7094DC14EBA
:101470007286AA852D6E63C4EE006F10A0362326F7
:10148000F4E8232C24E7A6879D43232C14E9232A80
:10149000F4E9232804E9BA842324E4E91309CE8B70
:1014A00021A0C11463D19E044106850523A0270114
:1014B00023A2D701232CC4F0232AB4F0A107E3D23E
:1014C000B3FE130604F1D2855685EF103009631C74
:1014D00005B6C14EC114032684F1832544F1DA8791
:1014E0009D43E3C39EFC26874A8EBE84832884E9FD
:1014F000832F44E9032804E98327C4E8032F84E801
:10150000032984E73A968505D8C0232CC4F0232A02
:10151000B4F023A0C4011D47634AB7760347F4EE35
:10152000A1046DEB63040DA4014D6FF0CFA1032561
:1015300044F135BF014F014C232804EA232C04EA6F
:10154000814F232004EC930704FC6FF0EF9B33F8EA
:10155000BD00631308C69CC0CCC0232CC4F0232A52
:10156000E4F09D4763D1E7CC130604F1D28556859C
:10157000232C14EBEF10807E631705AC032684F157
:10158000032744F1832884EB5A856FF0CFC9635C4D
:1015900090C8414C2D6E63449C006F102058232846
:1015A00024EB1D4D232C14EB1309CE8C21A0C11468
:1015B000E35D9C04410605072320250123228501C4
:1015C000232CC4F0232AE4F02105E352EDFE130698
:1015D00004F1D2855685EF106078631605A60326C0
:1015E00084F1032744F15A85D9B79316270163C4C0
:1015F00006006FE09FFB6FF0EFAE93F71D00638E68
:1016000007986FF0AFFC9107034809002324F4EC1E
:101610006FF0CF886A87014D6FF0AF90032744F1D8
:10162000AD65938505D38CC0050685450507CCC0FF
:10163000232CC4F0232AE4F09D45A10463D4E500E3
:101640006F009078032744EB3367870119E36F102D
:101650006003032744F1832644EA832504EA05074F
:1016600036968CC0D4C0232CC4F0232AE4F09D45C8
:10167000A10463D4E5006F10A003330C8041E34C58
:101680008077832644EB05079CC03696232CC4F054
:10169000232AE4F0D4C09D4763D0E7906FF0CFBA1F
:1016A000FA8C232004EC232804EA232C04EA814F3B
:1016B0006FF08F85791513070003930604FC338FB1
:1016C000A640A38FE7FEE28C6353EC01FA8CAA8755
:1016D000232004EC232804EA232C04EA814F6FF032
:1016E000AF820326C4EC9C422324E4EC9356F641DB
:1016F00090C3D4C36FE05FF3832784EC9107032783
:1017000084EC01462324F4EC1843B1B2832784EC23
:101710009107032784EC9A8D2324F4EC832C070093
:1017200093D6FC4136876FF0AFC5EE8619BA832C8D
:1017300084EC130504ED232C04EB83A70C00232079
:10174000A4ED98432328E4ECD843232AE4EC9847FB
:10175000232CE4ECDC47232EF4ECEF70B00E27349E
:10176000A4EA873784EA93874C002324F4ECD397C8
:1017700007E2032884EBEA8893F717083337F00071
:10178000232CE4EA639F0798873784EAD3A7F7A25C
:1017900099E36F10A01D937CF8FD93071004639BE1
:1017A000FC72930700032308F4EE13071006930757
:1017B0008005E30EE81EA308F4EE93073006E3C4A9
:1017C000870D8327C4EA63D407006F10C01507355F
:1017D00084EA014E232004EC9307C4F5130544EF7B
:1017E000232AF4E8232C04E92328C4EB232A14EB4E
:1017F000EF20100B87B78181530700D2832844EB79
:10180000D377F512032E04EB032884E9832744E9F8
:1018100013ED2D0053A7E7A201C70547232AE4EEE5
:10182000130710066314E8006F10C027AD65938599
:1018300045D107B60182D30600D23E8609A8D3A6B9
:10184000D7A21307FCFF99C26F10801F3A8CD3F701
:10185000C71232850506539707C2B386E50083C6D3
:101860000600530707D2A30FD6FED3F7E70AE31803
:101870000CFC07B78182D316F7A291E6D3A6E7A2A4
:10188000A1C6058B31C3232EA4EE8346F6FF03C504
:10189000F50032876390A60213030003A30F67FECF
:1018A0000327C4EF9306F7FF232ED4EE8346F7FFFA
:1018B000E386A6FE13851600130390031375F50F38
:1018C000E3856626A30FA7FE832644EF1307F800DF
:1018D0002300E4F01D8E1387F6FF232AE4EE232A6B
:1018E000C4EA635407006F10801C9306B002A30083
:1018F000D4F0A546E3C9E614930624F013070703C2
:101900002380E600130704FC998E1387160C23220C
:10191000E4E86F00101A93F70D0199C36F00707718
:10192000032784EC93F70D04832C0700110723246D
:10193000E4EC63840754C20CA30704EE93DC0C01AF
:10194000814663410CD6B36F9C0193FDFDF7639B09
:101950000FD46FF08FFB834EF4EE854C814F054F13
:101960009307F4FB6FF04FD69A8D6FF0AFD3AD6550
:1019700093ED2D002324F4EC938505D0894F814EFF
:1019800013088007930704FC9376F700AE9683C68E
:1019900006001183FD172380D7009316C6013697E2
:1019A0001182B366C700EDF2130704FC330FF74052
:1019B000E28C635BECD1FA8C232004EC6FF00FD146
:1019C0007D5C36896FE0BFCD0348190093ED0D2093
:1019D00005096FE0BFCC130604F1D2855685232C90
:1019E00014EBEF10A03719C16FE0FFE5032684F177
:1019F000832884EBDA846FF0AFBF0348190093EDBE
:101A00000D0205096FE09FC9AD65EA88938545D150
:101A100093F70D026381071E832784EC9D07E19BEA
:101A2000138787002324E4ECD043984393F71D00E9
:101A3000B366C70099C3639A062AA30704EE6342FC
:101A40000C2493FDFDB7814F63140C00638F06EAED
:101A5000834EF4EE05BFAD65EA88938505D04DBF92
:101A600037DDCCCC37D3CCCC130DDDCC1303C3CCBA
:101A700013FE0D400145130604FC9DA00327C4E995
:101A800003470700130617F019C26304A72AE68E5E
:101A9000B6853E863387DC00333F97017A97333F24
:101AA000A703935F2F00137FCFFF7E9F3307E7418C
:101AB0003387EC40B3BCEC00B3869641B30F6702AA
:101AC000B386A603333FA703FE963307A703FA9610
:101AD000139FF60185820583B30CEF00E380054E6A
:101AE0003387DC00B3359701BA95B3BEA50305056E
:101AF0009307F6FF13DF2E0093FECEFFFA9EB38509
:101B0000D541B385BC40B3BEBC00B38ED64133BF14
:101B1000A503B38EAE03B385A503FA9EFE0E8581A1
:101B2000F695939E2500F6958605B385BC40938572
:101B30000503A30FB6FEE3130EF4E68EB6853E86CC
:101B4000A1BF9947E28C63E1873DAD672324A4EDF3
:101B5000938787D2232004EC668F014C232804EA64
:101B6000232C04EA814F6FE03FBA832544F183269A
:101B700044EA032504EA8505369688C0D4C0232CA0
:101B8000C4F0232AB4F01D45A104E359B58213061D
:101B900004F1D28556852328F4EA232C14EBEF10A8
:101BA000E01B19C16FE03FCA032744EF032684F10D
:101BB000832704EB832884EBDA846FF03F803E8533
:101BC000232C04EB232414ED2320F4ECEF20C04558
:101BD0000347F4EE9346F5FFFD86832704EC832844
:101BE00084EC032884EB2A8FB37CD500630B078633
:101BF000850C6FF00F87832684EC93F70D019842D4
:101C000091062324D4ECA5EF93F70D04ADC742074A
:101C10004183014621BD130604F1D2855685232850
:101C2000F4EA232C14EBEF10601319C16FE0BFC16D
:101C3000032684F1032744F1832704EB832884EBF4
:101C40005A856FE03FDB130604F1D28556852328C1
:101C5000F4EA232C14EBEF10601019C16FE0BFBE43
:101C6000032684F1032744F1832704EB832884EBC4
:101C70005A856FE0FFD593F70D206390072E01463C
:101C800075B393FDFDBF814F814EEDB9130604F18D
:101C9000D28556852324E4E92326F4E8232804E9A1
:101CA000232AF4E9232C14E9EF10400B19C16FE04B
:101CB0009FB90347F4EE032684F1832884E9832F38
:101CC00044E9032804E98327C4E8032F84E8630672
:101CD00007126A87832544F1014DDA846FE07FA4FF
:101CE0005685EF10E06F6FE07F8893070003A3082D
:101CF00004EFA30704EE2308F4EE63430C6613F32A
:101D0000FDB7834EF4EE936D2300894FA5B91306FA
:101D100004F1D2855685232C14EBEF10200419C151
:101D20006FE07FB2032684F1832884EBDA846FF0BE
:101D30002F8963950624254763629725130704FCC2
:101D4000232AA4EA330FF740E28C634DEC1B834E49
:101D5000F4EE814F232004EC6FF04F97832784EC3F
:101D60008326C4EC9C4394C32324E4EC6FE0DF8B14
:101D7000AD65834EF4EE2324F4EC938505D013086F
:101D80008007894F01B1832784F1639C071C232AB4
:101D900004F06FE01FAC4147832544F12D6EE35BF7
:101DA0008763232AF4E81D48A687468DE284232C06
:101DB000F4E94A8C1309CE8C21A0C114635F975AB1
:101DC0004106850523A02701D8C3232CC4F0232A6C
:101DD000B4F0A107E353B8FE130604F1D28556858B
:101DE000EF00D07719C16FE01FA6032684F1832589
:101DF00044F1DA871D484147C9B7630E0D108325AA
:101E000044F1014DDA846FE01F944A8E832884EBFD
:101E1000032904EB26960507232CC4F0232AE4F0BB
:101E20002320C50144C19D4763C4E7006FE09FBF05
:101E30006FF08FF313F70D20630A0710E20C93DCA9
:101E40008C4193D6FC412324F4EC36876FE05FD3BA
:101E5000832884EB268EB68462968507232CC4F0F3
:101E6000232AF4F023A0C40123A284011D47634464
:101E7000F7006FE07F926FE03FBD93FF0D20A30757
:101E800004EE639E0F0A814663540C006FF0CF810D
:101E900093FDFDF763040C006FF00F8163870CA6C0
:101EA0006FF08F8093F60D20C9C61377F70F2324A8
:101EB000F4ECEE8601466FF00F9A232004EC014FFC
:101EC000232804EA232C04EA814F930704FC814C65
:101ED0006FE09F838327C4EAFD5613ED0D103E8704
:101EE000630EDC1C073584EA014E63160C009386F2
:101EF0009CFB6382062C6359071C5315A522130E05
:101F0000D002D9A2FA8CA1B5BE8C81B1AD679387FE
:101F100047CF6FE0DFA3DA846FE05F85832784EC2F
:101F20008326C4EC2324E4EC9C432390D7006FE089
:101F3000AFEF2324F4ECEE8601466FF0CF9193FCD3
:101F4000FC0F8146E3510CA06FE0DFF593D6FC4116
:101F50002324F4EC36876FE0BFC21377F70F0146F6
:101F6000F1B45685130604F1D285EF00305F19C134
:101F70006FE03F8E232A04F06FE0BF8D0326C4E795
:101F8000832504E8232CD4E8B38EC7407685232824
:101F9000C4EB232A04EB232C14EB2320D4EDEF1005
:101FA000303E832684E937D6CCCC1306D6CC338793
:101FB000DC00B33797013E97B335C70237D5CCCC99
:101FC0001305C5CC0328C4E9832E04EC37D3CCCC4D
:101FD00083471800832884EB032E04EBB337F0000B
:101FE00013DF2500F199FA950D8F3387EC40B3BCD0
:101FF000EC00B38696413305A702C297232EF4E87E
:10200000032844EB9387FEFF1303C3CCB386C602B9
:10201000B335C702AA9605453307C702AE96939516
:10202000F60185820583B38CE5003387DC00B33588
:1020300097012E97B335C70213DF2500F199FA9562
:102040000D8F3387EC40B3B5EC00B385B640333F1A
:10205000C702B385C5023307C7023386E5017E0692
:102060000583329713162700329706073387EC4013
:1020700013070703A38FEEFE11B403258A05EF10A3
:10208000305E6FE0AFF893051C005685232A04EB01
:10209000232014EDEF30E043832804EC032844EBC5
:1020A000AA87E302053A0327C4EAE3440728073571
:1020B00084EA2320A4EC014E6FF04FF2E3CB071C1F
:1020C000073584EA014E194C93076004639DFC6652
:1020D0009307C4EF130784EF930644EF62868D45A0
:1020E0005685232C04E92328C4EB232A14EB27303C
:1020F000A4ECEF20001F83460500130700030735FB
:1021000004EC832844EB032E04EB032884E9AA871C
:1021100033068501E38DE602032744EFD30700D29F
:102120003A965327F5A2E31C07000327C4EFE37593
:10213000C7309305000393061700232ED4EE230027
:10214000B7000327C4EFE368C7FE1D8F9306700432
:10215000232AE4EA832F44EF638FDC0A1307600429
:102160006391EC0C13F71D0033678701E35CF01BF0
:10217000E31F07067E8F1308600613F30D40E31973
:1021800003029346FFFFFD86B37CDF0063000E660B
:102190001307D002A307E4EE850C032784EBEA8D36
:1021A000232004EC3A8C2328E4EA6FE0EFD5930770
:1021B00080076FF04FE063D607005315A522130E7A
:1021C000D0029307C4EF130784EF930644EF05464C
:1021D00089455685232A04E9232CC4E9232814EBD6
:1021E0002730A4ECEF20E00F073504EC832804EB44
:1021F000032E84E9032844E9054CAA87232A84EBAB
:1022000013F71D006311076C0327C4EF832F44EFFE
:102210001D8F232AE4EA13A7DFFF19E3635DFC0D9A
:1022200079181387FFFF230004F1232AE4EEE34B20
:1022300007029306B002A300D4F0A546E3D0E6045B
:102240006E8D232004EC930EF4F037D3CCCCF685BE
:102250001303D3CC130F3006B3366702BA8F2E8622
:10226000FD158D821395260036950605098F1307F7
:102270000703A30FE6FE3687E340FFFF138706033D
:10228000A38FE5FE1307E6FFE37ED713930524F043
:10229000AE860345070005078506A38FA6FEE31A51
:1022A000D7FF2E970907118F930604F0158F23226D
:1022B000E4E8832644EB032644E80547338FC60051
:1022C0006354D764032744EA3A9F9346FFFFFD8691
:1022D0001373FDBFB37CDF00936D0310937F2D005C
:1022E000630A0E60930ED002032C84EBA307D4EF95
:1022F000850C6FE05F8C032744EB63C3EF5A13F741
:102300001D007E8F09C7032744EA338FEF0013F3C4
:102310000D4063040300634BF0699346FFFFFD86A5
:10232000B37CDF001308700695B503C5A5006FF0F8
:102330006FD99307D002A307F4EE9307700463DD0F
:102340000755AD67938747CF232004EC0D4F014C11
:10235000232804EA232C04EA814F914C6FE0CFBA82
:1023600013F3FDBF936D2300894F814E6FF08FE112
:102370002324F4EC9A8D6FE03FB34A8E832F84E9D7
:102380006289268CBE84832744E9EA8862968505A3
:1023900023A0C40123A28401232CC4F0232AB4F077
:1023A0001D47A1046344B7006FE03FFF130604F12B
:1023B000D28556852328F4E8232AF4E9232C14E94E
:1023C000EF00D01919C16FE00FC8032684F18327ED
:1023D00004E9832F44E9832884E9DA846FE0FFFB72
:1023E000032784EB6346E000032704EBE358E00097
:1023F000032744EB2328B4E9232694E9232424E982
:10240000832D04EB6A89832CC4E7032DC4E9B38EC2
:10241000E7002D6E032C84EBA686130ECE8C1D4890
:102420004147232C14E9232AF4E8F684232C44EBB7
:10243000634DB0077D1D7D1C832744F1832504E88F
:10244000669685078CC223A29601232CC4F0232A0A
:10245000F4F0A1066347F80E83450D00338A24414A
:10246000268F63D345012E8A63534003832544F1AD
:102470005296232CC4F0850523A0260123A24601F1
:10248000232AB4F06349B81083450D00A106134513
:10249000FAFF7D85B377AA00338AF5406340400593
:1024A0002E99E34780F96354B001FD1D71B7232EC7
:1024B000A4E9832884E94A8D832744E9832D04E92C
:1024C000832CC4E8032984E8032A84EBB68463647C
:1024D000AF016FE07FED7A8D6FE01FEDAD63832577
:1024E00044F19383C38C63584709A6872328E4EB00
:1024F000D284232EC4E93E8A21A0C11463569706D4
:102500004106850523A0C601D8C2232CC4F0232A86
:10251000B4F0A106E353B8FE832584EB130604F15F
:102520005685EF00B00319C16FE0AFB1AD67032668
:1025300084F1832544F1DA86138EC78C41471D4808
:102540006DBF832584EB130604F15685EF0010015F
:1025500019C16FE00FAFAD67032684F1DA86138EE1
:10256000C78C41471D48CDBD032F04EB8323C4E92D
:10257000D287268ABE8452968505232CC4F0232A4E
:10258000B4F023A0760023A24601634CB81483451F
:102590000D00A10631B7832584EB130604F156859F
:1025A0002328E4EBEF00807B19C16FE08FA9AD67B2
:1025B00083450D00032684F1032F04EBDA86138E86
:1025C000C78C41471D48E1B5130604F1D2855685F5
:1025D0002328F4EA232C14EB512719C16FE0AFA68E
:1025E000032C44EF032684F1832704EB832884EB38
:1025F000DA846FF02F85414D2D6E635A8D5D23284F
:10260000F4EA9D46A687232C14EBE2844A8C130936
:10261000CE8C21A0C11463589D204106050723A03C
:10262000270123A2A701232CC4F0232AE4F0A10749
:10263000E3D2E6FE130604F1D2855685052719C1BB
:102640006FE06FA0032684F1032744F1DA879D46EB
:10265000D1B7130604F1D28556852328F4E8232A3E
:10266000F4E9232C14E9DD2D19C16FE0CF9D032679
:1026700084F1832704E9832F44E9832884E9DA84F9
:102680006FE09FD013F71D0019E36FE00F91032750
:1026900044F1832644EA832504EA050736968CC074
:1026A000232CC4F0D4C0232AE4F09D4563D3E5066F
:1026B000130604F1D28556852328F4EA232C14EB63
:1026C000712D19C16FE02F98032C44EF032684F17C
:1026D000032744F1832704EB832884EBDA846FE03B
:1026E000DFF9832584EB130604F156852328E4EBF8
:1026F000B52519C16FE0EF94AD6783450D00032642
:1027000084F1032F04EBDA86138EC78C41471D48F2
:1027100041BBA1046FE0FFF64A8E832884EB0329B6
:1027200004EB2687B6843A968507D8C0232CC4F0DC
:10273000232AF4F023A0C4011D476344F7006FE08F
:10274000AF856FE06FB09387BCFB93B71700E2973C
:10275000232AF4EA3E86130784EF9307C4EF930617
:1027600044EF89455685232A04E9232CC4E923280C
:1027700014EB2730A4ECEF10D036130770040735A4
:1027800004EC832804EB032E84E9032844E9AA8798
:10279000E388ECA6D30700D25327F5A263100748BD
:1027A000832644EB0327C4EF3386D700E363C7983F
:1027B0001D8F832F44EF232AE4EAA5B425476361E4
:1027C000D7B36FF0AFD72324A4ED63040714930CA1
:1027D0001C00628F232804EA014C232C04EA814F59
:1027E0006FD09FF2130ECE8B6FE0DFD10347F4EE74
:1027F000E305079A850C55B2130604F1D285568578
:10280000232C14EBA12B19C16FE0EF83032744EFB6
:10281000832744EB032684F1832884EBDA8433870F
:10282000E7406FE07FBD4A8E832884EB6289268C67
:10283000BE84832704EB62960507232CC4F0232A69
:10284000E4F023A0C40123A284019D45E3D3E5EC79
:10285000130604F1D28556852328F4EA232C14EBC1
:10286000F52919C16FD03FFE032684F1032744F1F7
:10287000832704EB832884EBDA846FE09FE06E8388
:102880006FE03FE9EE866FE09FE7130ECE8B6FE0BF
:10289000EFA36E836FE02FE7AD67938707CF6DB42B
:1028A000032744EB832644EA13087006330FD7004E
:1028B000E345F08D330FFF41050F9346FFFFFD8683
:1028C000B37CDF00E1B0D30700D25327F5A201EFBC
:1028D000832644EB0327C4EF3386D700E36BC7841A
:1028E0001D8F232AE4EA832F44EF35B2130ECE8CDA
:1028F0006FE0DF93834EF4EE032C84EB63840E00D1
:102900006FE00FDD6FE02FAB3377ED00E30F079A39
:1029100055BA628FE28C232804EA014C232C04EA86
:10292000814F6FD07FDE873784EA130ED0022320D9
:1029300004EC5395F7229307C4F56FE03FEA3307A1
:10294000F640832F44EF232AE4EA6FF0BF81D307D8
:1029500000D25327F5A2630C071A832F44EF7E960B
:102960003307F640232AE4EA6FF04FFF8327C4EAD7
:10297000B70F008093FDFDF7B3FFFF0063860F14D0
:102980009307D002A307F4EE93077004032C84EBA3
:1029900063DA0725AD67232884EBE28F9387C7CFDF
:1029A000232004EC0D4F914C6FD01FD613087006F6
:1029B0008325C4E9032684EB03C70500635AF72780
:1029C000930617F0638606263285AE8601A80506B3
:1029D0008506930517F08DC56354F703B38FEF4059
:1029E00003C716006DF703C706000505DDB703270B
:1029F00044EA330FFC01130860063A9F6FF0EFF7CB
:102A0000232ED4E88326C4E73307C5002328A4EA8D
:102A10003307D7023A9F9346FFFFFD86B37CDF0062
:102A2000630A0E0C1307D002032C84EB850C232CB5
:102A3000C4EAEA8DA307E4EE232004EC6FD0DFCCD8
:102A4000329CB28693050003635407006FE0DFE712
:102A50008506A38FB6FEE39D86FF32971306170007
:102A60006FE09FE61307D002A300E4F01386EFFFA8
:102A70000547D9563307F7416344D6FC9306000354
:102A80002301D4F06E8D232004EC930634F06FE024
:102A9000FFE6873784EA130ED002194C5395F722CC
:102AA0006FF08FE2AD65938505D06FE09FD8130777
:102AB000D002A300E4F005471386E6FF158FD95630
:102AC0006343D6F86FE05FE3930770040347F4EEC7
:102AD00063D60711AD679387C7CF631607120D4FF3
:102AE000FA8C014C232804EA232C04EA232004EC6A
:102AF0006FD09FC10347F4EE032C84EB5DC7850CB8
:102B0000232CC4EAEA8D232004EC6FD0FFBF0547D5
:102B100033078741232AE4EE6FF04FE0130ECE8C8B
:102B20006FF04FAF0DE3854C668F130860066FF0B2
:102B3000EFE5873784EA2320A4EC130ED0025395E7
:102B4000F7226FE0BFC9032744EA13086006130F9A
:102B50001700629F9346FFFFFD86B37CDF006FF096
:102B6000EFE283274A06858B99C36FD0BFD76FD01A
:102B70009FD6058B19E36FD01FD66FD0BFD68327A2
:102B800084EC03AC0700910763530C007D5C0348A1
:102B900019002324F4EC36896FD05FB0130ECE8C6D
:102BA0006FF08FAB130ECE8CBDBEEA8D232CC4EA22
:102BB000232004EC6FD05FB503258A05EF10402A6F
:102BC0006FD05FD209472322E4E86FF08FEE130E37
:102BD000CE8C95B1130ECE8C6FF04FFBAD67938703
:102BE00087CFE5BDAD67232884EBE28F938787CF3E
:102BF000232004EC0D4F914C6FD01FB1032744EB01
:102C0000338FE700E9B0014C232804EA232C04EABF
:102C1000232004EC0D4F914C6FD01FAF832F44EF56
:102C20006FF02FE0232804EA232C04EA6FD0DFADF5
:102C30002328C4EA0147F9BB1D8F832F44EF232AC1
:102C4000E4EA6FF0AFD18357CA0093E70704231675
:102C5000FA006FD01FC0411122C406C60008B70792
:102C600000202244B2402A8703A5876CB2862E86B4
:102C70004101BA856FD05F8B130101B6232E114835
:102C8000232C8148232A91481304014A23282149EF
:102C90002326314983D7C50003AE450603D3E5009B
:102CA00083A8C50103A8450213070040F59BAA8924
:102CB000AE84130504BD930504BE32892326D4B621
:102CC0002312F4B8232EC4BD231364B8232A14B9E5
:102CD000232E04B9232CB4B62324B4B82320E4B89B
:102CE0002326E4B8232804B8EF10400F8326C4B687
:102CF0004A86930584B74E85EFD01F832A8963588F
:102D00000504835744B893F7070499C783D7C400D1
:102D100093E707042396F400032504BDEF10000E8B
:102D20008320C14903248149832441498329C1481F
:102D30004A85032901491301014A0143814501469E
:102D400081460147814701488148014E82809305B1
:102D500084B74E85212455D57D5965B7184609EBB2
:102D600001452322060081450146014781478280B3
:102D7000011122CC06CE00102326C4FEEF002073E2
:102D80008327C4FEF240624423A4070023A2070065
:102D9000056181450146014781478280011122CCAE
:102DA00026CA52C406CE00100397C500AE842A8AF4
:102DB00093778700F1EF856793870780D441D98F98
:102DC0002396F500635CD01203A884026305080A09
:102DD0004AC89316370103290A0023200A0063C654
:102DE0000612CC4C0146854652850298FD572A862C
:102DF0006304F5148397C40003A88402918B99C7D8
:102E0000D8409C58198E99C3DC5C1D8ECC4C8146F1
:102E1000528502987D578397C400631AE50E832676
:102E20000A0075476365D7123707402005073357F7
:102E3000D700058B630D071094487D771307F77F44
:102E40007D8F2396E40023A2040094C013973701DA
:102E50006355070083270A00E9CB8C5823202A01F9
:102E6000F1C9938704046385F5005285EF20604221
:102E7000424923A80402F2406244D244224A014556
:102E800005618145014681460147814701488280AD
:102E90004EC683A90501638809064AC803A905002F
:102EA0000D8B23A0350133093941814711E3DC49FA
:102EB0009CC463462001B9A0AA9963552005DC5043
:102EC000CC4CCA864E86528582973309A940E34589
:102ED000A0FE83D7C400B24993E70704F2406244DE
:102EE0002396F4004249D244224A7D55056181452A
:102EF000014681460147814701488280D45DE34510
:102F0000D0EC95BF4249B249BDB7B048C5BD944861
:102F10007D771307F77F7D8F2396E40023A20400BB
:102F200094C013973701E35A07F28C58A8C823209E
:102F30002A0185F9424981B783270A00E38C07EA11
:102F4000138737FE01CBA91791C783D7C40093E736
:102F5000070469B723202A01424931BF011122CC5D
:102F600006CE00102A8719C15C59BDCF8396C500D3
:102F7000814795C6FC51858B81E793F606208DCA63
:102F80003A852326B4FE193D8325C4FEAA87F8514D
:102F9000058B11E703D7C5001377072015C7F2404B
:102FA00062443E85056181458146014781478280B3
:102FB000A84D2324E4FE2326B4FEEF003066032749
:102FC00084FE8325C4FE6DBF2326A4FEA84DEF001A
:102FD00030698327C4FEF24062443E850561814525
:102FE00081460147814782802324B4FE2326A4FE24
:102FF000C52E832584FE0327C4FE8DBF59CD011144
:1030000022CC06CE0010B707002003A7876CAA8544
:1030100019C35C5BA1C78396C500814795C6FC5167
:10302000858B81E793F60620A9C63A852326B4FE50
:10303000B5338325C4FEAA87F851058B11E703D762
:10304000C5001377072031C3F24062443E85056115
:103050008145014681460147814782802324A4FEA1
:103060003A852326E4FEAD2E832584FE0327C4FE85
:103070005DB7A84D2324E4FE2326B4FEEF00105ACA
:10308000032784FE8325C4FE4DB72326A4FEA84D46
:10309000EF00105D8327C4FE45BF370600208D6515
:1030A00037050020130606149385C5F513050500A2
:1030B0006F002075411122C406C600082244B240A8
:1030C000370600209D6537050020130606149385FA
:1030D000E5041305050041016F00A072411122C4EF
:1030E00026C24AC006C600084C41938401E52A89DD
:1030F00063849500EF30B07583258900938784063B
:103100006385F5004A85EF3090748325C900938468
:10311000040D638A95002244B24092444A850249D4
:1031200041016F30D072B2402244924402494101C1
:103130000145814581478280FC51858B91E783D78A
:10314000C50093F7072089C70145814581478280E3
:10315000411122C406C60008A84DEF00304CB24011
:10316000224401454101814581478280FC51858B84
:1031700091E783D7C50093F7072089C701458145AB
:1031800081478280411122C406C60008A84DEF0085
:10319000304DB24022440145410181458147828042
:1031A000011106CE22CC26CA4AC84EC652C456C207
:1031B0000010938401E511478D679387470BD8C4AE
:1031C000214681451385C40523A6F18823A0040068
:1031D00023A2040023A4040023A2040623A80400BD
:1031E00023AA040023AC0400916AEF007059116A0D
:1031F00091691169938A0A88130A4A8E9389A9945E
:103200001309699A1385840523A0540323A2440358
:1032100023A4340323A62403C4CCEF00303CC167AD
:10322000A507214681451385440CFCD823A4040638
:1032300023A6040623A8040623A6040C23AC040634
:1032400023AE040623A00408EF009053938784065E
:103250001385040C23A2F40823A4540923A64409CB
:1032600023A8340923AA2409EF005037B707020026
:10327000C9071385C4122146814523AEF40C23A847
:10328000040C23AA040C23AC040C23AA041223A0CC
:10329000040E23A2040E23A4040EEF00704E9387A5
:1032A000040D624423A8540F23AA440F23AC340F07
:1032B00023AE240FF2404249B249224A924A23A641
:1032C000F40E13858412D24405616F003031797198
:1032D0004AD022D44ECE06D626D20018AA8913850B
:1032E000018BEF00B03383A7C188F9CF37080020E6
:1032F00013080814FD5683274800FD1763C207080A
:103300008324880029A093848406638BD7060397BF
:10331000C400FD176DFBC1778507DCC413858405E8
:1033200023A20406EF00902B1385018BEF0050338E
:103330001385C40523A0040023A4040023A20400D1
:1033400023A8040023AA040023AC040021468145DD
:10335000EF00104323A8040223AA040223A20404BA
:1033600023A40404B25022540259F24926859254EF
:103370004561814501468146014781470148828078
:103380008324080099C02688BDB79305C01A4E85CE
:10339000232E04FDEF20E0130328C4FDAA841DC5DD
:1033A00091475CC1310523A0040088C41306001AAC
:1033B0008145232E04FDEF00B03C0328C4FDFD56DB
:1033C00023209800268805BFE13B0DB72320080085
:1033D0001385018BEF00D028B14723A0F90059B71E
:1033E000411126C222C44AC006C600082A89138594
:1033F000018BEF00B0228327490389EB8D6703A778
:10340000C1889387C70D232AF90211CB2244B24009
:1034100002491385018B924441016F0070244933A6
:103420002244B24002491385018B924441016F004E
:103430003023411122C406C600082244B24013853D
:10344000018B41016F00901D411122C406C6000886
:103450002244B2401385018B41016F00702041115D
:1034600022C406C600081385018BEF00301B2244DE
:10347000B240370600208D65130606149385851328
:1034800001454101BDAE4111370600208D6522C4C2
:1034900006C60008130606149385C5160145952631
:1034A0002244B2401385018B41016F00701B1C4602
:1034B0006381071A397122DC26DA56D25AD006DE29
:1034C00080008396C500AE84AA8A93F78600328B6B
:1034D000A5CF9C49B5CB4AD84ED652D45ECE93F7F1
:1034E000260003290B00C9C3B70B0080938B0BC0C8
:1034F000014A81495286568563870914CE8663F650
:103500003B01B7060080938606C0DC50CC4C829706
:10351000635EA02C83278B002A9AB389A940898FE8
:103520002324FB00E1FB4259B259225AF24B0145D8
:10353000F2506254D254925A025B21618145014695
:103540008146014781478280A6855685BD21631447
:10355000051C8396C4004AD84ED652D45ECE93F74B
:10356000260003290B00C9F362CC66CA93F7160044
:10357000E5EB9C4037070080930CF7FF814B014A35
:10358000630D0A0A13F7062083A984003E856306AB
:1035900007184E8C636B3A1F13F7064835CBD0489B
:1035A0008C481317160032979359F701338CB740A4
:1035B000BA9993071C0093D91940D2974E8663F4A9
:1035C000F900BE893E8693F606406386061EB285E4
:1035D0005685EF101070630E05208C4862862326F6
:1035E000A4FCEFC01FD783D7C4000327C4FC93F704
:1035F000F7B793E707082396F400B38789413305AB
:10360000870123AA340198C888C09CC4D289528CEF
:10361000DE856286EF00D00598449C403307374131
:1036200098C403278B00E2979CC0330747412324AB
:10363000EB00630A071A8396C400832B0900032A50
:103640004900210935BF032A0900832949002109BE
:1036500055B5014581450146814601478147828034
:10366000814B014C0145814C638E0B0425C5E287DB
:103670005E8A63F377013E8AD44883A98400884038
:103680009C48B69963F4A70063C049076349DA1000
:10369000DC50CC4C668656858297AA896351A00679
:1036A000330C3C41054563050C0E83278B00B38723
:1036B00037412324FB0063880712B38B3B41CE9C28
:1036C000E3960BFA832B4900CA872109E38C0BFE92
:1036D00083AC07005E86A9456685E52E630105106B
:1036E0000505330C954161B7E6854E8651279C4010
:1036F000A6855685CE979CC0EFF05F8655D18397FF
:10370000C400624CD24C4259B259225AF24B93E750
:1037100007042396F4007D5521BD98486362F704A1
:10372000D848636FEA02D28663F34C01E68633E73A
:10373000E602DC50CC4C5E865685998E8297E3502B
:10374000A0FCAA8983278B00330A3A41B38737410B
:103750002324FB00C9CB8396C4009C40CE9B0DB5AF
:1037600063733A01D2893E854E86DE8511279C40DF
:103770009844CE97330737419CC098C461F7A6851B
:103780005685EFF0AFFD5DDD9DBFD289528C49B506
:10379000A6855685EFF08FFCE30905F08DB75286BC
:1037A000E685F92598449C40D28933074741D29752
:1037B00098C49CC0F5B55685EF30C03A2A87E31E01
:1037C00005E28C485685EF10D02C83D7C4003147D2
:1037D000624CD24C23A0EA0093F7F7F72DB79387FA
:1037E0001B003E8C71B5624CD24C35BB8397C40034
:1037F00019BFB14723A0FA00624C8397C400D24C92
:1038000019B7797122D44ECE52CC56CA5AC85EC668
:1038100062C406D626D24AD00018328BAA8B2E8CD0
:10382000814A054AFD5903294B007D196346090267
:1038300083248B0083D7C400637BFA008397E40062
:10384000A6855E8563853701029CB3EAAA007D19CF
:1038500093848406E31039FF032B0B00E3150BFC64
:10386000B250225492540259F249624A424BB24B2E
:10387000224C5685D24A4561814501468147828066
:10388000411122C426C206C60008AE848395E50015
:103890006121634F0500BC48B2402244AA97BCC8CE
:1038A000924441018145014681460147814782801A
:1038B00083D7C4007D77B24022447D17F98F2396C9
:1038C000F400924441018145014681460147814708
:1038D0008280411122C406C60008B240224401453C
:1038E00041018280011122CC06CE00108397C500D1
:1038F00036832E8793F60710B2882A8899EEFD76D4
:103900006244FD16F240F58F8315E7002316F70099
:103910009A86468642850561A9A98395E5002322FA
:10392000C4FE89460146232064FE2326E4FE2324A8
:10393000A4FE71260327C4FE032304FE832844FE4D
:103940008317C700032884FE5DBF411122C426C22D
:1039500006C60008AE848395E50095267D578397BB
:10396000C4006301E502B24022440567D98FA8C8AC
:103970002396F40092444101814501468146014766
:103980008147828013070580B240224413070780D5
:10399000F98F2396F4009244410181450146814606
:1039A000014781478280411122C406C60008224493
:1039B000B2408395E50041016DAC011122CCB707FF
:1039C000002006CE001003A7876C2A86AE8719C395
:1039D000545BE1CE0397C700937687008DCA944B62
:1039E000B9C20397C700137617003DC2D04B23A47A
:1039F000070001453306C04090CFBDC2F24062448B
:103A00000561814501468146014781478280937661
:103A10000701C5CA93764700A9EE944B1367870048
:103A20002396E700DDFED84793050020137707288B
:103A3000E309B7FA3285BE852326F4FEEF306072C3
:103A40008327C4FE0397C700944B1376170059FED3
:103A500013762700814511E2CC4B8CC70145D9FE76
:103A600093760708C1DE136707042396E7007D55A8
:103A700071B78C5B85C593860704638FD50032854B
:103A80002324F4FE2326C4FEEF10B000832784FE17
:103A90000326C4FE0397C70023A80702944B13779D
:103AA000B7FD23A2070094C395BF2326A4FE3A8541
:103AB0002324B4FEEFF0DF92832784FE0326C4FEA6
:103AC00011BFA5461367070414C22396E7007D556E
:103AD00035B7411122C406C600089377350013F7A5
:103AE000F50F99CB49C2834705007D166381E70630
:103AF000050593773500FDF70D486370C80493F50D
:103B0000F50F93978500AE9713930701B708FFFE53
:103B1000B78580803E939388F8EF938505081C4114
:103B2000B347F300B386170193C7F7FFF58FED8F07
:103B300091E771161105E364C8FE15C62A9621A007
:103B400005056302C50283470500E39BE7FEB2401B
:103B50002244410101438145014681460147814795
:103B6000014881488280B24022440145410101431D
:103B7000814501468146014781470148814882804D
:103B8000411122C406C60008B3E7A5008D8B81E76A
:103B900093374600B5C32A8711A883C6F5FF1308DB
:103BA000F6FFA38FD7FE85C63E874286850593071D
:103BB000170065F6B24022444101014381450146A8
:103BC00081460147814701488148014E82803297F2
:103BD000E30208FE8507A38F07FEE39DE7FEB240E0
:103BE0002244410101438145014681460147814705
:103BF00001488148014E82803703FFFEB7888080EC
:103C00001303F3EF938808082A870D4E9441B38776
:103C1000660013C8F6FFB3F70701B3F71701D9F72A
:103C2000711614C311079105E362CEFE41B741112D
:103C300022C406C60008B24022441305050F410104
:103C40008280411122C406C60008B24022443705D2
:103C500000201305456441018280411122C406C63B
:103C60000008B24022443705002013054564410195
:103C70008280411122C426C24AC006C600082A8991
:103C80002E8523A80188EF504018FD57630BF500DF
:103C9000B240224492440249410181450147814793
:103CA000828083A70189EDD7B24022442320F90006
:103CB0009244024941018145014781478280411177
:103CC000AE8722C426C24AC006C60008B285368620
:103CD0002A893E8523A80188EF50A024FD57630D53
:103CE000F500B24022449244024941018145014617
:103CF000814601478147828083A70189FDD3B24075
:103D000022442320F90092440249410181450146A1
:103D100081460147814782804111AE8722C426C275
:103D20004AC006C60008B28536862A893E8523A881
:103D30000188EF504023FD57630DF500B240224447
:103D4000924402494101814501468146014781472C
:103D5000828083A70189FDD3B24022442320F90049
:103D6000924402494101814501468146014781470C
:103D700082804111AE8722C426C24AC006C600080E
:103D8000B28536862A893E8523A80188EF60E061E6
:103D9000FD57630DF500B2402244924402494101AF
:103DA00081450146814601478147828083A7018979
:103DB000FDD3B24022442320F9009244024941013C
:103DC000814501468146014781478280411122C4D5
:103DD00006C60008B240224441018280411122C43B
:103DE00006C60008B240224441018280411122C42B
:103DF00006C60008B240224441018280411122C41B
:103E000006C60008B240224441018280411122C40A
:103E100006C60008B240224441018280411122C4FA
:103E200006C60008B240224441018280411122C4EA
:103E300006C60008B2402244054541018280411176
:103E400022C406C60008B2402244054541018280D2
:103E5000411122C406C60008B240224441018280BA
:103E6000411122C406C60008B240224441018280AA
:103E7000411122C406C6000863FDA502B387C50030
:103E80006379F50211CA2A9603C7F7FF7D16FD175D
:103E90002300E600E31AC5FEB2402244410101437B
:103EA0008145014681460147814701488148014ECD
:103EB0008280BD4763EDC702AA879306F6FF69DEDD
:103EC0008506BE9603C7050085078505A38FE7FE17
:103ED000E39AD7FEB24022444101014381450146A5
:103EE00081460147814701488148014E8280B3677E
:103EF000B5008D8BAE88BDEF9357460013984700F1
:103F00002A98FD172A879441C10541072328D7FE27
:103F100083A645FF232AD7FE83A685FF232CD7FE41
:103F200083A6C5FF232ED7FEE31F07FD9207338725
:103F3000170193050701AA971378C600C1072E8EB3
:103F40009376F600630C0802F116F19A3697510742
:103F50003308154103A30500B3880501910523A08B
:103F60006800E399E5FE13874600B305C701BA97D9
:103F70000D8AA1B79306F6FFAA8799B7368635BF93
:103F80003D432A876373C3029377F700BDEFADE526
:103F9000937606FF3D8ABA960CC34CC30CC74CC738
:103FA0004107E36BD7FE11E28280B306C3408A0665
:103FB0009702000096966780A6002307B700A30625
:103FC000B7002306B700A305B7002305B700A30475
:103FD000B7002304B700A303B7002303B700A3026D
:103FE000B7002302B700A301B7002301B700A30065
:103FF000B7002300B700828093F5F50F93968500F4
:10400000D58D93960501D58D61B7939627009702BC
:10401000000096968682E78086FA9680C1171D8FEB
:104020003E96E374C3F8A5B7411122C406C6000842
:10403000937735002A87B9EBB7867F7F9386F6F7AB
:10404000FD5510431107B377D600B697D18FD58FA2
:10405000E389B7FE8346C7FFB307A7401385C7FFB1
:1040600081CE8346D7FF1385D7FF99C60345E7FF67
:104070003335A0003E957915B24022444101814577
:1040800001468146014781478280DDD6834707008C
:10409000050793763700F5FB098F1305F7FFE9BF96
:1040A000011122CC06CE00102734A4FE8327C4FEC3
:1040B000370600807D1623200500B376F60037080A
:1040C000F07F032784FE63F9060533E8E600630505
:1040D000080493D8470193F8F87FBE85130820C0E1
:1040E0006391080287B701831308C0BCD377F51228
:1040F0002734F4FE8327C4FE032784FEB376F6003C
:10410000BE85370610807D16D186F18DC2963706A2
:10411000E03FB3E7C50014C12324E4FE2326F4FEE8
:10412000073584FEF2406244056101458145014640
:1041300081460147814701488148828003A80501E3
:104140001C4963C007197D187971931228001386E2
:10415000450122D43303560006D626D20018130E8A
:104160004501F2928327030003A702008507B35895
:10417000F7026369F708B28F728F8144014783A702
:104180000F0083230F00110F939E070193DE0E0192
:10419000C18393960301C18293D30301910FB38E20
:1041A0001E03B3871703A69E93940E01C18093DE6E
:1041B0000E01858EBA9613D70641C206C182F697C4
:1041C000939E070193DE0E0193D40701B307D741F5
:1041D0009E9713970701558F232EEFFE13D70741A4
:1041E000E37FF3F983A7020091EFF11263665E00AB
:1041F00001A87D1863765E0083A70200F112F5DB4B
:1042000023280501232614FF232EC4FD232064FE4A
:104210002322C4FE232404FFAA84EF20602C8328D9
:10422000C4FE634C0506032EC4FD032304FE0326CF
:1042300044FE032884FE85087285814714410C42A0
:10424000110513970601939E050193DE0E0141832C
:104250003307D7413E9793570741C181C1828D8F64
:10426000B6974207939607014183558F1106232E77
:10427000E5FEC187E374C3FC93172800F2979843C7
:1042800009EFF1176366FE0039A07D186375FE0023
:104290009843F1177DDB23A80401B25022549254B5
:1042A00046854561814201438143814501468146FE
:1042B0000147814701488148014E814E014F814F9E
:1042C0008280014581420143814381450146814607
:1042D0000147814701488148014E814E014F814F7E
:1042E00082801971A2DCA6DA0001CAD8D2D4DAD051
:1042F000DECEEAC8EEC686DECED62734A4FA032B7D
:1043000084FA832BC4FA03288503232ED4F82324AC
:1043100064FB232674FBAA842E8AB28D3A893E8DD3
:10432000630F0800585D8547C285B397E7002322D5
:10433000E8002324F800EF10D01423AC0402DE8937
:10434000814663D90B0093991B0093D9190023264A
:1043500034FB8546B707F07F2320D90033F7F900F7
:104360006305F722873784FA2730F4FA073704FA0F
:10437000D30700D2D327F7A2A9C70327C4F98547DB
:104380001CC363070D00AD67938717D32320FD007F
:10439000AD69938909D3F6506654D6544659265AC6
:1043A000065BF64B464DB64D4E85B6590961014345
:1043B0008143814501468146014781470148814843
:1043C0008280073584FA130684FB9305C4FB268597
:1043D000D6D2E2CCE6CAEF20404C13D749010326DF
:1043E00084FB2A89631A071C0327C4FB9307000276
:1043F00032979306274363DCD73E93070004B386C6
:10440000D74093072741B399D900B357FB0033EB4B
:10441000F900D3071BD2B70710FE7D172738F4F831
:10442000832544F9032504F9854AAE97232AF4F835
:104430002328A4F887B78183073704F95377F70A4D
:1044400087B6018487B7818407B601854377D77A19
:10445000D30707D2D30600D2C3F7C772D397D7A228
:10446000D39B07C289CB53870BD2D327F7A293B72D
:104470001700B38BFB401308F6FFD9473308E84019
:1044800063EF7715AD669385068F93973B00AE97E4
:104490009C23073704FAD317F7A263960734E34047
:1044A000082C5E98232874F9232C04F8814CA54726
:1044B000014C63E74715954763D84731711A114797
:1044C000E300EA36630BFA4E8947014BE306FA260E
:1044D0000D4A232404F8B3877D01938A170023260D
:1044E000F4F85686634350010546DD46054791477B
:1044F000E3D7C648860793864701BA850507E37B5D
:10450000D6FECCDC2685232004F9EF10206F03288B
:1045100004F8AA89E303053A88DC93B7FA006384B8
:10452000076063020B6063567069AD6693F7FB002A
:104530009385068F8E07AE97982393D74B4013F73A
:104540000701630707782D67873707A0873604FAC6
:10455000BD8B8D46D3F7F61A638807482D6713077E
:10456000079E19A08587210713F6170011E6858796
:10457000210713F617007DD6142385878506537708
:10458000D712638307462107EDB78326C4F99397B3
:10459000C9000967B1831307F770B3E7670198C2D1
:1045A0008DEBAD69E30D0D3EAD679387C7D393895E
:1045B00049D32320FD00C5B3832744FAB706F03F53
:1045C000032584FAB207B183D58F130717C0814A38
:1045D000B1BDAD6963110D22938909D46DBB8547C7
:1045E000232CF4F8814C6346081C63DB0B1C232846
:1045F00004F8A547B38C7C41330C7041E3FD47EBD5
:10460000014A23AE040281452685232604F9EF10D2
:10461000E05E0328C4F8AA89E301052A23AC340329
:1046200093A7FB000327C4FB99C3635E071C639D2C
:104630000A34832784FB13076003FD5A1D8F8327E9
:1046400004F93A98232654F92320F4F86697814D0B
:10465000628685452685232404F92328C4F823206F
:10466000E4FAEF10101E032704FA032604F90328C6
:1046700084F82A8B635D9001635B0001E6876353D6
:104680009801C2871D8FB38CFC403308F8406354F7
:104690008003330CCC40E341C012CA856286268574
:1046A000232804F92320E4FAEF105041032704FAE9
:1046B000032804F92A8985452685232804F923201F
:1046C000E4FAEF101018832704F8032704FA0328EC
:1046D00004F92A8C6340F0588547E3C247238326B8
:1046E00084FA2320F4FA232804F891E68327C4FAF5
:1046F000B207E3870726832704F86398075A85479C
:10470000C297FD8B6380074A9386F7FD6D56E3DC05
:10471000C600F146B387F6403E97BE9C3E98634183
:10472000E01663580001E28542862685EF10F048C6
:104730002A8C032784F993273A0093C71700631C38
:10474000071463415027638F0724639F0A4AE28559
:10475000814615462685EF1040552A8CAA854A8544
:10476000EF1010586352A04A93071003138A1B00DE
:104770002380F900938A1900E2852685EF106050A6
:10478000050A63060B00DA852685EF10804FCA857F
:104790002685EF10004F8327C4F923800A0023A049
:1047A0004701630F0D2223205D01664C965AD64CBB
:1047B000DDB6B307C740938C17000148E3C90BE28D
:1047C0005E98232874F9E5B11147E300EA06630215
:1047D000FA1E89476301FA768D47232404F8054BB6
:1047E000E30BFACE39BDFD1B232C04F8E5BB958FF6
:1047F000331BFB0039B9AD67938737D4938909D44C
:104800002320FD0049BE2D671307078F93973B00B8
:10481000BA979823FD5A93871900873704FA873689
:1048200004FA8545D3F7E71A539707C2D30707D28F
:10483000930607032380D900CBF7E76AE38EBA0417
:1048400087B50186530600D29D8D15A0D3F6E71AD1
:104850008507B386B700539706C2D30607D213065F
:104860000703A38FC7FECBF7E67AE3875603D3F798
:10487000B71253A7C7A279DB138A1B00BE8A01BFF8
:10488000CA853A862685232004F9EF1010330328C1
:1048900004F82A8979B5E2854A85232CF4F8EF10CB
:1048A0003044832784F9E35E05E82320F4F8CA85C1
:1048B0009387FBFF814629462685232CF4F8EF10C9
:1048C000C03E8327C4F82A8913A71700832704F85A
:1048D000B3FAE700832704FA639B0748E3920A06CA
:1048E0005E8A832AC4F8832B84F9854D09A8CA857A
:1048F000814629462685EF10403B850D2A89E285B1
:104900004A85EFF0BF83930C0503B387B901A38FEA
:1049100097FFE3CE5DFD814D63545001938DFAFF07
:1049200093871900BE9D8146CA85054626852324A6
:10493000D4FAEF109028E2852A89EF10703A832686
:1049400084FA6351A0081307900319A0638E3D6B8E
:1049500083C7FDFFEE8AFD1DE38AE7FE85072380FE
:10496000FD00E28526852324D4FAEF108031E30090
:104970000BE2832684FAE38806E0E38666E1B685E7
:104980002685EF10003001B5832704F9130737435C
:10499000FD5A3A98232654F966972320F4F8628644
:1049A000814D45B9832704FA6390073E138A1B00A3
:1049B0002DBF054B232464F939BE8547014B2324C1
:1049C000F4F811BE09E593FC1C00E39E0CF61307F6
:1049D0000003EE8A83C7FDFFFD1DE38CE7FE51B7A0
:1049E000965A664CD64C45BAD3F7E71A832784F912
:1049F00099C707B78185D397E7A2639C075653876A
:104A000006D287B68186B706C0FC4377F76A27309F
:104A1000E4F8032704F8832744F83A83B383F600C5
:104A2000638F0A0C5E865685539707C2AD669385E1
:104A3000068F530707D2832684F893173500130790
:104A40000703AE972380E90087B687FFD3F7E70A0D
:104A5000938719006380062A07B78182232064F8B0
:104A6000232274F85377D71A873604F85377D70A76
:104A70005397E7A2631D075C87B5818507B601865A
:104A800081463DA0850663D5A618D3F7C712537794
:104A9000C7128507539707C2D30607D21307070328
:104AA000A38FE7FED3F7D70A5397E7A26311075AFC
:104AB000D3F6F50A5397E6A271D79306900319A08F
:104AC000638E3757BE8A03C7F7FFFD17E30AD7FE89
:104AD00005072380E700130A160055B9538706D24D
:104AE00087B68186B706C0FC4377F76A2730E4F8BB
:104AF000032704F8832744F83A83B383F60007B703
:104B00000187232064F8232274F8D3F7E70A0737D4
:104B100004F8D317F7A26392071C5317E722D39721
:104B2000E7A2639107128327C4FB63C6070093A71C
:104B3000FB006392075C832784F8A9E7635A903BE4
:104B40006358003BE68763539801C2873387FC4074
:104B50003308F8406348805D85452685232004F9A5
:104B60002320E4FAEF10E04D832704F9032704FA29
:104B7000032804F82A8C6393074E232004FABA8C86
:104B8000014BB5BE1386FAFF6346CC46832704F972
:104B90003306CC402320F4F863CD0A485698338777
:104BA0005C0145BCF1473E97BE9C3E98E35BE0B696
:104BB000C1B9638F0B3EB307704113F7F700AD66C1
:104BC0000E079385068F2E971C23073704FA9187CB
:104BD000D377F712638C07562D671307079E894614
:104BE00019A08587210713F6170011E6858721078D
:104BF00013F617007DD6182385878506D3F7E712AD
:104C0000E38607DE2107EDB713CAFDFFCE8AADB6F6
:104C10008327C4FBE3C807F693A7FB00A5D79397A8
:104C20003B00AE979823E3D80DBEE34650BF639B8D
:104C30000A0087B701875377F712873704FAD387BB
:104C4000E7A2C1CF81452685EF10A003330AB0410A
:104C5000CE8A35BE2328F4F885472320F4FA0326AC
:104C600004F9E2852685232404F92320E4F8EF10D3
:104C7000E0648547232804F8032704F8032884F810
:104C80002A8C63C44703832684FA85E28326C4FA08
:104C9000B20681EE0326C4FA9356460193F6F67FD8
:104CA00089C6050705082328F4F883270C01232467
:104CB00004F92320E4F88A07E297884BEF10A0203C
:104CC00093070002032704F8032884F8898F0DBC9A
:104CD000873704FA89466FF03F88930710032380D3
:104CE000F90081452685938A1900EF009079138A8F
:104CF0002B0071BC232064F8232274F8073704F8D2
:104D0000054753F6E612630BE54287B60186BE8679
:104D1000B388A900D3F7D7128506539707C2530764
:104D200007D213070703A38FE6FED3F7E70AE3933F
:104D3000D8FE1387F7FF2A9707B78182D376E6025A
:104D4000D396F6A2639A06305377C70AD396E7A2A2
:104D5000639706380327C4FBE34207DE13A7FB0073
:104D6000E30E07DC13973B002E9718237DB4DA85FA
:104D7000814629462685EF0050732A8B832B84F9C0
:104D800063920A3C832AC4F863589001DA856686E8
:104D90002685EF1080622A8B832704F9232064FB89
:104DA0006393072C9387F9FFD6972326F4F883277C
:104DB00084FACE8A858B2324F4F8E2854A85EFF0C5
:104DC000EFB72320A4F8DA85930C05034A85EF108A
:104DD0002071032604FAE285AA8D2685EF1040751E
:104DE0005C45AA85ADEF232CA4F84A85EF10406FEF
:104DF000832584F92328A4F82685EF00906883276B
:104E000004F93367FA0045EF832784F8638107329A
:104E100063C70D088327C4F823809A01938D1A0075
:104E20006388572BCA85814629462685EF00F0679F
:104E3000832704FA2A89DA8581462946268563096B
:104E4000FB06EF009066832504FA2A8B81462685AF
:104E50002946EF0090652320A4FAEE8AB9BF268583
:104E6000EF00306263CA0D00832784FAB36DBA0184
:104E7000858BB3E7B701B9EFCA8505462685EF10E4
:104E8000C053E2852A89EF10A0656354A02C9307D4
:104E90009003638CFC26832704F8938C1703DA862F
:104EA00023809A01032B04FA850A138A1B0055BC40
:104EB000EF00B05F2A8B2320A4FAEE8AFDBD63C504
:104EC0000D26832684F83367BA01558F630E0724B5
:104ED000E352F0F4930790036389FC22850C23804E
:104EE0009A01DA86850A032B04FA138A1B0095BC03
:104EF000635C8015CA8562862685232004FBEF103B
:104F0000E03B2A8985452685EF10A013832704F905
:104F1000032804FA2A8C63900710232004FA66877A
:104F2000014B6FF0CFFDF146638BD7FE9306C003B4
:104F3000B387F6408DB9054B232404F86358B001BC
:104F40002326B4F9EE8A6E866FF02FDA854D23267C
:104F5000B4F923AE0402EE8A81456FF0AFDA118F07
:104F6000930C17005E88232874F9232C04F86FF043
:104F70000FD4E3850AB60325C4F8E356A0BA87B672
:104F800001868506D3F7D712538706D287B6818666
:104F9000B706C0FC1386FBFF43F7E76A2730E4F847
:104FA000032704F8832744F83A83B383F600ADBCA3
:104FB000873704FA89461DBCDA852685232404F93F
:104FC0002328E4F8EF10802F4A86AA852A8B2685AD
:104FD000EF1040112320A4FACA852685EF00704AFD
:104FE000032704F9032904FA032884F863050CEC69
:104FF0006FF0AFEA832704F9B3878741B297328C09
:105000002320F4F8014649BE93071003138A2B00AE
:105010002380F900B9B26687232004FA014B81B1DD
:105020008547014B2324F4F811BF054B232464F971
:1050300031B76687B38C5C416FF0AFE113071003A3
:1050400005062380E70041BC232004FB65BD130A4D
:105050001600BE8A6FF0AFF3BA8785B4BA8C2320EE
:1050600004FA014BEDBE83254B002685EF00103975
:10507000AA8C630B051003260B019305CB003105A9
:1050800009060A06EFB0EFACE68526850546EF1067
:10509000C0322320A4FA39B3D3F7F702138A1B00D6
:1050A000D316F7A289EAD3A6E7A2BE8A638106EEE9
:1050B000058B630E07EC5E8609B4AD662D6593869D
:1050C00046D4130585D501469305F01AEF208039A3
:1050D000DA86138A1B00032B04FA6FF0FF84930611
:1050E00000038347F7FFBA8A7D17E38CD7FE130AC4
:1050F00016006FF0CFE92D679305078F0DB62320BB
:10510000F4FA232804F86FF00FDF93079003DA8690
:105110002380FA00032B04FA938D1A00138A1B00D4
:105120006FF07F82BA8CF9B3E348F0D48DBB93075C
:105130009003E38CFCFCE340B0D795B33E87EDBE13
:10514000832B84F9832AC4F86FF02FE089466FF02F
:10515000FF89E31605D493F71C00E39A07D281B3C5
:105160008326C4FA93D7460193F7F77F638507D860
:105170008547050705082328F4F86FF0CFD723AE3D
:10518000040281456FF00FB8AD662D65938646D455
:10519000130585D501469305F02EEF20A02C9389A9
:1051A00049D36FF04F9F011122CC26CA4AC84EC680
:1051B00052C406CE0010B7090020AE842A8A938913
:1051C000C914EF00F02083A78900056703A94700F1
:1051D0001379C9FF9307F97F9387077FB3849740BB
:1051E000B180FD14B20463CBE40081455285EF2009
:1051F000A02283A78900CA976303F5025285EF00B6
:10520000901EF2406244D2444249B249224A0145CA
:105210000561814501468146014781478280B3058A
:1052200090405285EF20401FFD576300F50483A690
:10523000890083A781F833099940136919005285C1
:10524000858F23A2260123A4F1F8EF00D019F240A4
:105250006244D2444249B249224A0545056181452A
:105260000146814601478147828081455285EF2072
:10527000A01A03A78900BD46B307E540E3D0F6F8BE
:1052800003A6018193E71700118D5CC323A4A1F845
:10529000B5B7FDC5011122CC26CA001006CEAA84DE
:1052A0002326B4FEEF00D0128325C4FE370500206C
:1052B0001305C51403A8C5FF138785FF8328850040
:1052C0009377E8FF3306F700544213731800F19AFE
:1052D000638DC81254C2B308D60083A8480093F85F
:1052E00018006319030603A385FFB7050020938503
:1052F000451533076740032887009A97630AB80E5D
:105300000323C700232668002324030163870812B0
:1053100093E6170054C31CC29306F01F63E5F6081A
:1053200093F687FFA1064C41AA96904213D85700E6
:105330008547B3970701CD8F938586FF10C74CC76C
:105340005CC198C258C66244F2402685D2440561C9
:105350006F00700963900804B7050020B697938525
:105360004515144693E817003308F7006383B61019
:105370005046D0C614C6232217012320F80069BF67
:105380000143014581450146814601478147014866
:10539000814882801368180023AE05FF1CC2930663
:1053A000F01FE3FFF6F693D6970011466369D6081F
:1053B00093D66700938596038E0513868603AA9578
:1053C0009441E1156396D50075A894466386D5008F
:1053D000D042719AE3EBC7FECC464CC714C7624477
:1053E000F24098C52685D244D8C605616F00A07FDB
:1053F000639608064C461046BE9693E716004CC6C8
:1054000090C55CC3369714C33DBFBE96631A0300B4
:1054100083A785FF1D8F1047BE965C475CC690C76B
:1054200013E6160083A7418150C318C5E3EDF6F0DB
:1054300083A5C18B2685853B39B7B6971DB75146E5
:105440006373D602130640056368D60493D6C7007B
:105450009385F6068E051386E60695B793E6170044
:1054600054C31CC2CDB59385C6058E051386B605FB
:10547000B9B758C918C94CC70CC723221701232034
:10548000F800D1B50328450009868547B397C700C2
:10549000B3E707015CC191B713064015636AD600F4
:1054A00093D6F700938586078E051386760701BF8E
:1054B00013064055636AD60093D627019385D60715
:1054C0008E051386C607E5BD9305803F1306E007EA
:1054D000FDB5397122DC26DA06DE80009387B5003F
:1054E0005947AA84636BF708C14663E4B606CD2525
:1054F000C14661478948370800201308C8144297FD
:105500005C43130687FF638FC73AD843D0478C4765
:10551000719B3E975443D0C52326F4FE0CC693E6F8
:105520001600268554C3C1258327C4FEF250625459
:10553000D25413858700216101438145014681468C
:105540000147814701488148014E814E014F814FFB
:105550008280B1479CC00145F2506254D25421610F
:105560000143814501468146014781470148814801
:10557000014E814E014F814F828093F687FFE3CA2F
:1055800007FCE3E8B6FC2326D4FE99258326C4FE57
:105590009307701F63F4D73E93D79600638D07106F
:1055A00011476366F73693D7660093889703138E87
:1055B000870313953800370800201308C814429554
:1055C0005C4161156301F5023D4339A0CC47635A44
:1055D000062A630AB500AE87D843719B3306D740CD
:1055E000E356C3FEF28883270801930E8800638583
:1055F000D725D843BD45719B3306D74063C3C53A11
:10560000232AD8012328D801635F06361306F01F2A
:1056100003234800636DE62A137687FF210642962E
:105620000C421355570005473317A7003363E300B7
:10563000130786FF8CC7D8C7232268001CC2DCC5AD
:1056400093D7284005453315F500636DA306B3775E
:10565000650089EF060593F8C8FFB37765009108E8
:1056600091E70605B37765009108E5DF3D4E139F8E
:105670003800429F7A830327C300C68F6309E32A59
:105680005043BA875847719AB305D640634ABE2A39
:10569000E3C605FE3E9654428C47268593E61600E7
:1056A00054C2D8C50CC72326F4FE352B8327C4FE6D
:1056B0001385870055B51305002093080004130EC9
:1056C000F003D5BD83278800D8431373C7FF330683
:1056D000D3406366D300132706016302071683A530
:1056E000C18B03A601817D57B6956305E636056734
:1056F0003D07BA957D77F98D2685232E04FD23205D
:10570000F4FE2322D4FE232464FE2326B4FEEF10ED
:10571000B0507D578325C4FE032384FE832644FEB8
:10572000832704FE0328C4FD2A8E6300E52C3387FB
:105730006700636AE52A938E81F803A60E002E9611
:1057400023A0CE006303A73C03AF01817D5563090D
:10575000AF3C3307EE40329723A0EE00137F7E006C
:1057600063050F30137E8EFF8568210EA108330676
:10577000BE00B385E841918DD205D18126852326CF
:10578000D4FD232804FD232AF4FC232CD4FC232E4F
:1057900064FC2320C4FF2322E4FF2324C4FE232629
:1057A000B4FEEF1070472A877D558325C4FE03267B
:1057B00084FE032F44FE032E04FE0323C4FD832630
:1057C00084FD832744FD032804FD832EC4FC630964
:1057D000A73803A60E003307C7412E97136717009B
:1057E0002324C8012E962322EE0023A0CE00638737
:1057F00007033D4563796532CC43130743FF619B43
:105800008589D98DCCC39548B385E70023A21501BE
:1058100023A41501636BE53403274E0083A5818B18
:1058200063F4C50023ACC18A83A5418B63F4C50032
:1058300023AAC18AF2876DAA0323480011B513E792
:105840001600D8C3BE96136616002324D8002685FA
:10585000D0C22326F4FE412E8327C4FEF2506254A8
:10586000D254138587002161014381450146814659
:105870000147814701488148014E814E014F814FC8
:10588000828090473E9754434CC62326F4FE93E60D
:10589000160090C5268554C3B9268327C4FEF2504E
:1058A0006254D2541385870021610143814501462A
:1058B00081460147814701488148014E814E014F91
:1058C000814F82805C478908E30FF7D03DB91356BA
:1058D0009700914563F1C510D14563E7C51E1305D7
:1058E000C6050E059305B605429510416115631670
:1058F000C5009DA210466306C5004C42F199E36BBA
:10590000B7FE4846C8C790C71CC55CC615BB514703
:10591000637CF70E130740056364F71C93D7C6003A
:105920009388F706138EE7061395380069B1850F43
:1059300093F73F0021036385070E0327C3003DBB98
:10594000884793E8160023A2170158C508C7BE96DA
:10595000232AD8002328D80013E715003E9623A653
:10596000D60123A4D601D8C226850CC22326F4FE74
:105970009D2C8327C4FE13858700F9BE93D836007B
:10598000138786008DBE3E9754432326F4FE26855A
:1059900093E6160054C3812C8327C4FE1385870029
:1059A00065BE93E51600CCC3BE96232AD8002328F3
:1059B000D800936516003E9723A6D60123A4D601EE
:1059C000CCC2268510C32326F4FE312C8327C4FEC7
:1059D0001385870051B613566700130596030E050D
:1059E0009305860311B7638A071183278800D8437C
:1059F000719B3306D7406366D70013270601E30087
:105A000007E42685CD2281BE9388C705138EB7058E
:105A1000139538004DB683278F00FD186397E71B59
:105A200093F73800611FE5FB032748009347F5FF14
:105A3000F98F2322F80006051307F5FFE374F7C872
:105A40003377F50011E706053377F500910F65DF31
:105A5000FE8831B9C1054DB1898505473317B700B7
:105A60003363E3002322680071BD3306BE00B30533
:105A7000C040D205D18126852328D4FD232A04FDE8
:105A8000232CF4FC232ED4FC232064FE2322C4FF09
:105A90002326B4FE2324C4FEEF1010182A877D5558
:105AA0008325C4FE032E44FE032304FE8326C4FD87
:105AB000832784FD032844FD832E04FDE31BA7D028
:105AC000032784FE814531B39305400563E1C50694
:105AD0001356C7001305F6060E059305E60629B50D
