:100000006F90307213000000130000001300000016
:100010001300000013000000130000001300000094
:100020001300000013000000130000001300000084
:08003000130000007300100032
:100038000000000000000000789E00007A9E00008A
:10004800000000007C9E000000000000000000008E
:100058007E9E0000809E000000000000000000005E
:10006800829E000000000000849E00000000000046
:10007800869E0000889E00008A9E00008C9E0000DC
:100088008E9E0000909E0000929E0000949E0000AC
:10009800969E0000989E00009A9E00009C9E00007C
:1000A8009E9E0000A09E0000A29E0000A49E00004C
:1000B800A69E0000A89E0000AA9E0000AC9E00001C
:1000C800AE9E0000B09E0000B29E0000B49E0000EC
:1000D800B69E0000B89E0000BA9E0000BC9E0000BC
:1000E800BE9E0000C09E0000C29E0000C49E00008C
:1000F800C69E0000C89E0000CA9E0000CC9E00005C
:10010800CE9E0000D09E0000D29E0000D49E00002B
:10011800D69E0000D89E000000000000DA9E000075
:10012800DC9E0000DE9E0000E09E0000E29E0000D3
:10013800E49E0000E69E0000E89E0000EA9E0000A3
:10014800EC9E0000EE9E0000F09E0000F29E000073
:10015800F49E0000F69E0000F89E0000FA9E000043
:10016800FC9E0000000000000000000000000000ED
:10017800000000000000000000000000FE9E0000DB
:10018800000000000000000000000000009F0000C8
:10019800029F0000049F0000069F0000089F0000C7
:1001A8000A9F00000C9F00000E9F0000109F000097
:1001B800129F0000149F0000169F0000189F000067
:1001C8001A9F00001C9F00001E9F0000209F000037
:1001D8000000000000000000000000000000000017
:1001E8000000000000000000000000000000000007
:0801F8000000000000000000FF
:100200003571A2DC86DE0001930EC4003703008046
:10021000417E2E8F54C47D13130E8E20930584F8D7
:10022000F6865CC82324E4F9232CE4F918C8232CAF
:100230000401232E1401232604FE232864F8232E10
:1002400064F8232AC4F92322D4F9F122832784F8FD
:1002500023800700F65066540D6101438145014635
:1002600081460147814701488148014E814E014F37
:1002700082803571A2DC86DE0001370300202A8FE0
:100280000325836C930E840037030080417E10C4E5
:1002900054C47D132E86130E8E20930584F8F686A3
:1002A0005CC82324E4F9232CE4F918C8232C0401A6
:1002B000232E1401232604FE232864F8232E64F839
:1002C000232AC4F92322D4F9B922832784F823806E
:1002D0000700F65066540D61014381450146814691
:1002E0000147814701488148014E814E014F82807C
:1002F000411122C406C60008B3C7A5008D8BB30800
:10030000C500BDE71336460025E6937735002A87FA
:10031000E5E313F6C8FFB306E6409307000263CD9A
:10032000D706AE86BA876371C70203A80600910795
:10033000910623AE07FFE3EAC7FE7D16198E719A78
:1003400091051107B295329763671703B2402244B3
:100350004101814201438143814501468146014774
:10036000814701488148014E814E014F814F828073
:100370002A87E37D15FD83C7050005078505A30FC3
:10038000F7FEE385E8FC83C7050005078505A30F95
:10039000F7FEE392E8FE5DBF945183A3050083A2BC
:1003A000450083AF850003AFC50083AE050103AEF2
:1003B000450103A3850103A8C50113074702232EA6
:1003C000D7FE232E77FCB306E640232057FE2322D8
:1003D000F7FF2324E7FF2326D7FF2328C7FF232A7D
:1003E00067FE232C07FF93854502E3C7D7FA15BFA5
:1003F00083C60500050793773700A30FD7FE850551
:1004000089DB83C60500050793773700A30FD7FE66
:100410008505F9FFFDBD6571232611182324811878
:1004200023202119000B232C4117232A5117AE8AB0
:1004300032892324D4EC2A8AEF2090591C413E852E
:100440002320F4EAEF30200683D7CA002322A4EA4F
:1004500093F7070891C783A70A0199E36F10E04853
:1004600023229118232E3117232861172326711771
:1004700023248117232291172320A117232EB1159E
:10048000A967130BC4F1A96B938707FC232C04F015
:10049000232A04F0232404EA232604EA232864F10F
:1004A000232EF4EA938BCB13232A04EA232204E8B5
:1004B000232E04E8232E04E6232004E8232604EC5C
:1004C000C149DA84834709004A8C1387B7FD39C7CD
:1004D000B1C7E28C83471C00050C81C71387B7FDA9
:1004E0006DFB330D2C41630B2C03832784F1032513
:1004F00044F123A02401EA97050523A2A401232C9B
:10050000F4F0232AA4F09D47A10463CCA716832707
:10051000C4ECEA972326F4EC83C71C0099E36F1020
:10052000100A03481C0013091C00A30704EE7D5C9D
:10053000814D930CA005014D0509930708FE63EE5C
:10054000FC020327C4EB8A07BA979C438287930770
:1005500008FD014DA54613172D0003480900B308F7
:10056000A7018608338D1701930708FD0509E3F4F9
:10057000F6FE930708FEE3F6FCFCEA886314080025
:100580006F10F003054F230E04F5A30704EEFA8C59
:10059000232004EC014C232804EA232C04EA814F95
:1005A0009307C4F5032684F113FD4D08328E630FC3
:1005B0000D400347F4EE29C7832544F10147130595
:1005C000F4EE88C0050605458505C8C0232CC4F097
:1005D000232AB4F01D45A1046347B51C15C3832528
:1005E00044F1130704EF98C0090609478505D8C0F0
:1005F000232CC4F0232AB4F01D47A104E344B73EE2
:1006000013070008E30CED2A330CEC41634C803DEA
:1006100013F70D10631C074A9CC0832744F17A9698
:10062000232CC4F0850723A2E4011D47232AF4F0FC
:10063000634EF724A10413F34D0063060300338CCB
:1006400098416345802763D39801E6888327C4ECEB
:10065000C6972326F4ECE31F0634832704EC232AF1
:1006600004F091C7832504EC5285EF40600ADA84D8
:1006700091BD03480900C9B50348090093ED0D0277
:1006800065BD130604F1D6855285EF20203919E99E
:10069000DA84B5BD032A84EB832504EC81C5528539
:1006A000EF40000783D7CA00832441188329C1176C
:1006B00093F70704032B0117832BC116032C811614
:1006C000832C4116032D0116832DC11599C36F206C
:1006D00080310325C4EC8320C11803248118032929
:1006E0000118032A8117832A411759618142014366
:1006F0008143814501468146014781470148814840
:10070000014E814E014F814F828093F78D00EA8820
:10071000E388076E832C84EC130504ED232C04EB93
:1007200083A70C002320A4ED98432328E4ECD843AE
:10073000232AE4EC9847232CE4ECDC47232EF4EC4A
:10074000EF80E0772734A4EA873784EA93874C0068
:100750002324F4ECD39707E2032884EBEA8893F789
:1007600017083337F000232CE4EAE381076CD30742
:1007700000D2073784EA93FDFDF7D317F7A299C398
:100780006F104076930770040347F4EE63D40701BB
:100790006F109006A9679387475519C36F10E075CE
:1007A0000D4FFA8C29A4130604F1D6855285232C0B
:1007B000E4E72324F4E8232604E92328E4E8232AB1
:1007C000F4E9232C14E9EF206025E31705EC032658
:1007D00084F1032F84E7832784E80328C4E80327F0
:1007E00004E9832F44E9832884E9DA84C5BB03271D
:1007F00044F1832644EB85452E962E97138584007D
:10080000E3DCD5448545CCC09CC0232CC4F0232A0E
:10081000E4F09D45E3C4E552832644EA832504EAD7
:10082000050736960CC154C1232CC4F0232AE4F0EA
:100830009D452105E3CDE54CD30700D2073784EA77
:10084000832644EBD325F7A29384F6FFE393054672
:10085000050726968507232AE4F0232CC4F01CC143
:1008600044C19D47E3C7E7402105832644E8930739
:1008700004F0050736961CC1232CC4F0232AE4F0AB
:1008800054C19D4793048500E3D7E7DA130604F1CA
:10089000D6855285232C14EBEF204018E31E05DE8D
:1008A000032684F1832884EBDA8471B3414D8327D6
:1008B00044F1296E63448D016F10705D26879D4D54
:1008C000232C14EB9304CE1221A0411C635E8D03F4
:1008D0004106850704C32322A701232CC4F0232A41
:1008E000F4F02107E3D3FDFE130604F1D68552850B
:1008F000EF20C012E31205DA411C032684F183279E
:1009000044F15A87E3468DFD832884EB268EBA8412
:1009100062968507232CC4F0232AF4F023A0C40197
:1009200023A284011D47E350F7D2130604F1D685B4
:100930005285232C14EBEF20600EE31F05D4032611
:1009400084F1832884EB01B3032784ECA30704EE2E
:10095000EA881C43130D470099E36F10C0436354AA
:100960000C006F00D07C3E8562868145232804EB15
:10097000232C14EB2324F4ECEF20806E2320A4EC32
:100980000347F4EE832784EC832884EB032804EBED
:1009900019E16F10B043330FF5409346FFFFFD861A
:1009A000B37CDF0019C36F00D07B2324A4ED0326A2
:1009B00084F1232004EC232804EA232C04EA13FD09
:1009C0004D08014C814F328EE3150DBE338798419F
:1009D000E341E0280347F4EEE31007BE330CEC419B
:1009E000E35880C3296E832544F1130ECE1363DED2
:1009F00089072326F4E81D4DA687232C14E9E284F9
:100A0000232AF4E9232804E92324E4E95E8C21A0C5
:100A1000C11463DF99024106850523A0770123A253
:100A20003701232CC4F0232AB4F0A107E352BDFE02
:100A3000130604F1D6855285EF10507EE31E05C4DF
:100A4000C114032684F1832544F1DA87E3C599FCB8
:100A5000628E832884E9268C832F44E9BE84032890
:100A600004E9032F84E88327C4E86296850523A060
:100A7000C40123A28401232CC4F0232AB4F01D470F
:100A8000A104E357B7B8130604F1D6855285232491
:100A9000E4E92326F4E8232804E9232AF4E9232CB3
:100AA00014E9EF10B077E31905BE13F70D10032614
:100AB00084F1032F84E88327C4E8032804E9832F03
:100AC00044E9832884E9DA84E30807B4130750066D
:100AD000E35F07D1D30700D2073784EA5327F7A291
:100AE000630C0778832744F129671307475998C097
:100AF000050605478507D8C0232CC4F0232AF4F047
:100B00001D47A1046354F7006F10201E832744EF94
:100B1000032744EBE3DBE724032744EA832744F17C
:100B2000832604EA3A968507D8C094C0232CC4F0E3
:100B3000232AF4F01D47A104E34BF752832744EB2B
:100B4000138CF7FFE35980AF414D832744F1296EA1
:100B500063448D016F10B064A6861D47232C14EBEF
:100B60009304CE1331A0411C63448D016F10C02E3D
:100B70004106850784C223A2A601232CC4F0232AA0
:100B8000F4F0A106E351F7FE130604F1D685528571
:100B9000EF10D068E31205B0032684F1832744F1F7
:100BA000DA861D47C9B7032784ECEA88054F1C4342
:100BB000A30704EE230EF4F4930747002324F4EC78
:100BC000F9B293F70D02EA88C5E7832784EC13F79F
:100BD0000D01910719C36F10D02A832684EC13F7F7
:100BE0000D0483AC060019E36F10A022C20C93DC45
:100BF0000C4193D6FC412324F4EC36876348070864
:100C000063450C0AB3E7DC0093FDFDF7D9EF631EE3
:100C10000C08834EF4EE63940E006F100028814C94
:100C2000814F232004EC014F014C930704FC850CF9
:100C300063940F006F10D05B032684F1832544F189
:100C400013FD4D08890C328E2E85630F0D56232817
:100C500004EA232C04EA814FE3850E98094785B204
:100C600093F70D02EA8813E30D01E38807349A8DA8
:100C7000832784EC9D07E19BD84393868700232438
:100C8000D4EC83AC0700BA86E35C07F6B337900177
:100C9000B306D0409D8E9307D002A307F4EEB30CA9
:100CA000904163440C0093FDFDF763920610A54745
:100CB00063EF970F938C0C03A30F94FBE28CE35D1F
:100CC0008031834EF4EE814F054F9307F4FB2320D0
:100CD00004ECE38F0EF4850CA1BF832784EC03ADF5
:100CE0000700E35A0D08832784EC330DA0419107D8
:100CF0002324F4EC0348090093ED4D0035B893F735
:100D00000D02EA8893E60D01E383070C832784EC48
:100D10009D07E19B138787002324E4ECD04398438D
:100D2000A30704EE93FDF6BF634F0C4E93FDF6B799
:100D3000631B0C4EB367C7006397074E93FC160006
:100D4000638C0C7493070003A30FF4FA668F2320BF
:100D500004EC014C232804EA232C04EA814F930776
:100D6000F4FB89B093F70D02EA88639F072493F799
:100D70000D0199C36F109010032784EC93F70D04B5
:100D8000832C070011072324E4EC99E36F10200A59
:100D9000C20CA30704EE93DC0C018146E3470CF080
:100DA000B36F9C0193FDFDF7638E0F1889D237DD79
:100DB000CCCC37D3CCCC130DDDCC1303C3CC13FE7A
:100DC0000D400145130604FCA5A00327C4E9034711
:100DD0000700130617F019C2E30BA772E68EB6855B
:100DE0003E863387DC00333F97017A97333FA70372
:100DF000935F2F00137FCFFF7E9F3307E741338739
:100E0000EC40B3BCEC00B3869641B30F6702B386E7
:100E1000A603333FA703FE963307A703FA96139F53
:100E2000F60185820583B30CEF0099E16F10A0787D
:100E30003387DC00B3359701BA95B3BEA50305052A
:100E40009307F6FF13DF2E0093FECEFFFA9EB385C5
:100E5000D541B385BC40B3BEBC00B38ED64133BFD1
:100E6000A503B38EAE03B385A503FA9EFE0E85815E
:100E7000F695939E2500F6958605B385BC4093852F
:100E80000503A30FB6FEE3120EF4E68EB6853E868A
:100E900099BF832684EC93F70D0213874600639372
:100EA000077493F70D01E39E076C93F70D0499C344
:100EB0006F10601813F30D20E305036C832784EC97
:100EC0008326C4EC2324E4EC9C432380D7006FF0FA
:100ED0006FDF034809009307C006E303F81893ED9A
:100EE0000D016FF06FE50348090093078006E302E8
:100EF000F81693ED0D046FF02FE49307B00203484A
:100F00000900A307F4EE6FF02FE3032784ECA16739
:100F1000938707832318F4EEA30704EE9307470093
:100F2000EA8818430146E3420C0C13F3FDF7936D76
:100F30002300E31D0C62E31B07622324F4EC894FBA
:100F400013088007834EF4EE014C814C014F930748
:100F500004FC232004ECB5BB93F70D02EA88639EE2
:100F60000768832784EC13F70D01910719C36F10ED
:100F7000A071032784EC93F60D041843E3830670F5
:100F8000420741832324F4ECEE86014651BB93F7DC
:100F90000D02EA8813E30D018DEB032784ECA30710
:100FA00004EE8146832C07009307470063540C002E
:100FB0006F0010772324F4EC937DF3F7E3190CCE44
:100FC000E3970CCE814FBDBF6E83832784ECA307CC
:100FD00004EE9D07E19B138787002324E4EC83AC98
:100FE0000700D443E34C0C04B3E7DC00937DF3F734
:100FF000E39D07CAE31B0CCA814FA9B70348090048
:1010000093ED8D006FF04FD35285EF20601C5C4153
:101010003E852320F4E8EF200049232EA4E65285E4
:10102000EF20001B18458327C4E703480900232E3F
:10103000E4E8638307D0630107D083470700638D2B
:1010400007CE93ED0D406FF02FCF0348090093EDCD
:101050001D006FF06FCE8347F4EE03480900639DD7
:1010600007CC93070002A307F4EE6FF0EFCC034820
:10107000090093ED0D086FF02FCC0348090093078A
:10108000A002930619006314F8006F103001930753
:1010900008FD2546014C6360F60213172C0003C8B7
:1010A00006003A9C060C3E9C930708FD8506E376F5
:1010B000F6FE634C0C7836896FF02FC8338D98415B
:1010C0006354A0D5C14E832544F1296E63C4AE019B
:1010D0006F1020612326F4E89D42A687232C14E993
:1010E000EA84232AF4E94A8D232804E92324E4E945
:1010F0001309CE1321A0C11463D19E0441068505B6
:1011000023A0270123A2D701232CC4F0232AB4F063
:10111000A107E3D2B2FE130604F1D6855285EF1083
:10112000F00F631B05D6C14EC114032684F183253D
:1011300044F1DA879D42E3C39EFC4A8E832884E90A
:101140006A89832F44E9268D032804E9BE84032F8E
:1011500084E88327C4E86A96850523A0C40123A2F6
:10116000A401232CC4F0232AB4F01D47A104635D1D
:10117000B7C8130604F1D68552852324E4E9232653
:10118000F4E8232804E9232AF4E9232C14E9EF10D6
:10119000F008631305D0032684F1832884E9832FA4
:1011A00044E9032804E98327C4E8032F84E8DA84A8
:1011B0006FF08FC5130604F1D6855285EF10100627
:1011C000630D05C86FF04FCD33879841232804EA9B
:1011D000232C04EA814F634CE01A63840EC0094754
:1011E0006FF0EFBD130604F1D68552852324E4E9A0
:1011F0002326F4E8232804E9232AF4E9232C14E91C
:10120000EF10D001631A05C8032684F1032F84E888
:101210008327C4E8032804E9832F44E9832884E969
:10122000DA846FF0EFBD930704FC9315D601937633
:1012300077000D833E852E97938606030D82B36556
:10124000C700A38FD7FEFD17EDF1938606FD89C673
:1012500013F71D0063160734130704FC330FF74020
:10126000E28C6345EC33232004EC232804EA232C8E
:1012700004EA814F6FF00FB3032C44EFE356801D57
:10128000032744EB7E8C634EF75B63518003032797
:1012900044F162969CC0050723A28401232CC4F06C
:1012A000232AE4F09D45A104E3CBE5501347FCFF5E
:1012B0007D87337CEC00338C8F416347806B13F761
:1012C0000D40338DF70163150770032744EF832624
:1012D00044EB634FD77093F51D00639B0570832625
:1012E00044EBB697338CA7413387E64063538701BD
:1012F0003A8C63548003832744F1629623A0A401AF
:10130000850723A28401232CC4F0232AF4F09D45F1
:10131000A10463D4F5006F10402D9347FCFFFD87B7
:10132000B377FC001D8F6358E0B0414C832744F134
:10133000296E6344EC006F104065A686232824EBD9
:101340001D4D232C14EBBA841309CE1331A0C11404
:1013500063449C006F1040134106850723A02601BB
:1013600023A28601232CC4F0232AF4F0A106E35023
:10137000FDFE130604F1D6855285EF10206A631D29
:1013800005B0032684F1832744F1DA86C9B7094DF5
:10139000C14E7286AA85296E63C4EE006F1080224A
:1013A0002326F4E8232C24E7A6879D43232C14E965
:1013B000232AF4E9232804E9BA842324E4E913095D
:1013C000CE1221A0C11463D19E044106850523A03D
:1013D000270123A2D701232CC4F0232AB4F0A107AC
:1013E000E3D2B3FE130604F1D6855285EF100063F5
:1013F000631405AAC14EC114032684F1832544F168
:10140000DA879D43E3C39EFC26874A8EBE848328E9
:1014100084E9832F44E9032804E98327C4E8032FE0
:1014200084E8032984E73A968505D8C0232CC4F0C4
:10143000232AB4F023A0C4011D47634AB7780347A9
:10144000F4EEA1046310071463000D9C014D6FF0CE
:101450004F99032544F12DBF33F8BD00631408BA3A
:101460009CC0CCC0232CC4F0232AE4F09D4763DE4B
:10147000E7BE130604F1D6855285232C14EBEF103A
:10148000E059631B05A0032684F1032744F1832858
:1014900084EB5A856FF06FBD014F014C232804EA9D
:1014A000232C04EA814F232004EC930704FC6FF003
:1014B0006F8F635C90BA414C296E63449C006F103F
:1014C000603D232824EB1D4D232C14EB1309CE1370
:1014D00021A0C114E35A9C104106050723202501D1
:1014E00023228501232CC4F0232AE4F02105E352B2
:1014F000EDFE130604F1D6855285EF102052631DD0
:101500000598032684F1032744F15A85D9B71306B9
:1015100004F1D68552852328F4EA232C14EBEF102E
:10152000E04F631B0596032684F1032744F18327CC
:1015300004EB832884EB5A856FF00FB0130604F197
:10154000D68552852328F4EA232C14EBEF10004DA6
:1015500063140594032684F1032744F1832704EBE5
:10156000832884EB5A856FF02FAB93F71D006384BB
:10157000078C6FF06FDA9107034809002324F4EC1D
:101580006FE09FFB6A87014D6FF06F83FA8C232019
:1015900004EC232804EA232C04EA814F6FF08F80A7
:1015A000791513070003930604FC338FA640A38F1D
:1015B000E7FEE28C6353EC01FA8CAA87232004EC4B
:1015C000232804EA232C04EA814F6FE0BFFD832720
:1015D00084EC9107032784EC01462324F4EC1843A0
:1015E0006FF00FF40326C4EC9C422324E4EC9356E2
:1015F000F64190C3D4C36FE0FFECEE866FF00FF1BD
:10160000832784EC9D07E19B9C23A1072324F4EC12
:101610002734F4EA873784EAD39707E293F7170869
:101620003337F000232CE4EA63930794873784EA86
:10163000D3A7F7A299E36F108012937CF8FD93076C
:101640001004E399FC06930700032308F4EE130744
:10165000100693078005E303E832A308F4EE93072E
:101660003006E3C9871F8327C4EA63D407006F10DD
:10167000A009073584EA014E232004EC9307C4F542
:10168000130544EF232AF4E8232C04E92328C4EBB0
:10169000232A14EBEF10B06887B78181530700D27B
:1016A000832844EBD377F512032E04EB032884E957
:1016B000832744E913ED2D0053A7E7A201C705478F
:1016C000232AE4EE130710066314E8006F10802449
:1016D000A9659385855707B60182D30600D23E8659
:1016E00009A8D3A6D7A21307FCFF99C26F10201731
:1016F0003A8CD3F7C71232850506539707C2B386D3
:10170000E50083C60600530707D2A30FD6FED3F722
:10171000E70AE3180CFC07B78182D316F7A291E61B
:10172000D3A6E7A2A1C6058B31C3232EA4EE834620
:10173000F6FF03C5F50032876310D50213030003DB
:10174000A30F67FE0327C4EF9306F7FF232ED4EE03
:101750008346F7FFE386A6FE138516001303900366
:101760001375F50FE38C663AA30FA7FE832644EFAB
:101770001307F8002300E4F01D8E1387F6FF232AD9
:10178000E4EE232AC4EA635407006F10C0139306E3
:10179000B002A300D4F0A546E3CEE626930624F0DB
:1017A000130707032380E600130704FC998E1387B1
:1017B000160C2322E4E86F00B02C832784EC9107F9
:1017C000032784EC9A8D2324F4EC832C070093D612
:1017D000FC4136876FF08FC2834EF4EE854C814F0B
:1017E000054F9307F4FB6FF08FCEA96593ED2D00A5
:1017F0002324F4EC93854556894F814E13088007C6
:10180000930704FC9376F700AE9683C60600118317
:10181000FD172380D7009316C60136971182B36651
:10182000C700EDF2130704FC330FF740E28C63505E
:10183000ECCBFA8C232004EC6FF0AFC99A8D6FF0DB
:10184000CFC63A8CE34580A595B47D5C36896FE0C0
:10185000DFCE0348190093ED0D2005096FE0DFCDC1
:101860000348190093ED0D0205096FE0FFCC130644
:1018700004F1D6855285232C14EBEF10201A19C1E0
:101880006FE09FE1032684F1832884EBDA846FF014
:10189000EFAAA965EA889385855793F70D026381BE
:1018A0000726832784EC9D07E19B13878700232469
:1018B000E4ECD043984393F71D00B366C70099C387
:1018C00063930640A30704EE63420C2693FDFDB725
:1018D000814F63140C00638706E6834EF4EE0DB768
:1018E000A965EA88938545564DBF93050004528546
:1018F000EF30000623A0AA0023A8AA0019E16F1068
:10190000200E23229118232E311723286117232616
:10191000711723248117232291172320A117232E27
:10192000B1159307000423AAFA006FE07FB53E8546
:10193000232C04EB232414ED2320F4ECEF10B03619
:101940000347F4EE9346F5FFFD86832704EC8328D6
:1019500084EC032884EB2A8FB37CD50019E36FF065
:10196000CF84850C6FF06F844147832544F1296E45
:10197000634487016F102003232AF4E81D48A687DB
:10198000468DE284232CF4E94A8C1309CE1321A05E
:10199000C114635C97584106850523A02701D8C36D
:1019A000232CC4F0232AB4F0A107E353B8FE130696
:1019B00004F1D6855285EF10600619C16FE0DFCDC6
:1019C000032684F1832544F1DA871D484147C9B7CE
:1019D000032784EB6347E006032704EB6343E00639
:1019E000032744EB338FE700E371AF8F7A8DF1B8B3
:1019F000832544F1832644EA032504EA85053696C7
:101A000088C0D4C0232CC4F0232AB4F01D45A104FF
:101A1000E357B58C130604F1D68552852328F4EAE2
:101A2000232C14EBEF00907F19C16FE0FFC6032752
:101A300044EF032684F1832704EB832884EBDA84C4
:101A400079B8032744EB2328B4E9232694E9232417
:101A500024E9EA8C832D04EB032DC4E90329C4E7B0
:101A6000B38EE700296E032C84EBA686130ECE13EB
:101A70001D484147232C14E9232AF4E8F684232C3B
:101A800044EB634DB0077D1D7D1C832744F1832506
:101A900004E84A9685078CC223A22601232CC4F0B1
:101AA000232AF4F0A106634EF81683450D00338A0D
:101AB0009441268F63D345012E8A635340038325C7
:101AC00044F15296232CC4F0850523A0960123A24D
:101AD0004601232AB4F06342B82683450D00A106CF
:101AE0001345FAFF7D85B377AA00338AF540634436
:101AF0004005AE9CE34780F9E350B001FD1D71B78E
:101B0000832684EC93F70D01984291062324D4ECAC
:101B100081EF93F70D0489C742074183014661BBFA
:101B200093F70D2063950750014671B393FDFDBFF8
:101B3000814F814EF1B1A963832544F19383C3138F
:101B400063574707A6872328E4EBD284232EC4E9F2
:101B50003E8A21A0C114635597044106850523A040
:101B6000C601D8C2232CC4F0232AB4F0A106E35343
:101B7000B8FE032584EB130604F1D685EF00106A46
:101B800019C16FE03FB1A9674147C114032684F131
:101B9000832544F1DA86138EC7131D48E34F97FA65
:101BA000032F04EB8323C4E9D287268ABE8452968E
:101BB0008505232CC4F0232AB4F023A0760023A2A9
:101BC0004601E34AB80883450D00A1061DB7130678
:101BD00004F1D68552852324E4E92326F4E823285A
:101BE00004E9232AF4E9232C14E9EF00306319C136
:101BF0006FE09FAA0347F4EE032684F1832884E96B
:101C0000832F44E9032804E98327C4E8032F84E8E9
:101C10006304071C6A87832544F1014DDA846FE071
:101C20001F9A032584EB130604F1D685EF00105F9D
:101C300019C16FE03FA6A967032684F1DA86138EE7
:101C4000C71341471D4895B5032744F1A9659385FE
:101C500045598CC0050685450507CCC0232CC4F02A
:101C6000232AE4F09D45A10463C2E532032744EB37
:101C70003367870163060770032744F1832644EA2C
:101C8000832504EA050736968CC0D4C0232CC4F003
:101C9000232AE4F09D45A10463CAE570330C80411A
:101CA00063428069832644EB05079CC03696232C4B
:101CB000C4F0232AE4F0D4C09D4763C4E7006FE07A
:101CC0007F976FE0BFBC93070003A30804EFA3074F
:101CD00004EE2308F4EE634E0C2213F3FDB7834E9B
:101CE000F4EE936D2300894F21BE130604F1D685CF
:101CF0005285232C14EBEF00705219C16FE0DF996D
:101D0000032684F1832884EBDA846FE03FE0639458
:101D1000067A25476361977B130704FC232AA4EA0C
:101D2000330FF740E28C6353EC01FA8C834EF4EEF0
:101D3000814F232004EC6FE0DFF9032584EB1306C9
:101D400004F1D6852328E4EBEF00504D19C16FE074
:101D50007F94A96783450D00032684F1032F04EBCC
:101D6000DA86138EC71341471D489DBBA965834E74
:101D7000F4EE2324F4EC93854556894F130880072D
:101D800041B4832784EC8326C4EC9C4394C323246E
:101D9000E4EC6FE02FF39947E28C63E08723A967B7
:101DA0002324A4ED9387C758232004EC668F014CAD
:101DB000232804EA232C04EA814F6FE0AFFE832737
:101DC00084F199E36FE01F8E5285130604F1D685E6
:101DD000EF00D0446FE01F8D630D0D20832544F18B
:101DE000014DDA846FE0EFFF4A8E832884EB0329EC
:101DF00004EB26960507232CC4F0232AE4F02320C5
:101E0000C50144C19D4763C4E7006FE0FFA56FF0C3
:101E10004FE613F70D20630F071EE20C93DC8C4195
:101E200093D6FC412324F4EC36876FE03FDD93FF2B
:101E30000D20A30704EE63960F1C814663540C002B
:101E40006FE0FFE693FDFDF763840C006FE03FE673
:101E5000630A0C8E6FE0BFE5832884EB268EB68480
:101E600062968507232CC4F0232AF4F023A0C40132
:101E700023A284011D476344F7006FE0AFFB6FE0CE
:101E8000FFA093F60D20638E06181377F70F232417
:101E9000F4ECEE8601466FE0BFE8232004EC014F2E
:101EA000232804EA232C04EA814F930704FC814C85
:101EB0006FE04FEF8327C4EAFD5613ED0D103E8708
:101EC0006305DC1C073584EA014E63160C0093861B
:101ED0009CFB6389062A6350071C5315A522130E29
:101EE000D00255AA9307D002A307F4EE930770041B
:101EF00063DE0715A96793878755232004EC0D4FF0
:101F0000014C232804EA232C04EA814F914C6FE012
:101F10006FE913F3FDBF936D2300894F814ECDB060
:101F20002324F4EC9A8D6FE09FD84A8E832F84E9A6
:101F30006289268CBE84832744E9EA8862968505F7
:101F400023A0C40123A28401232CC4F0232AB4F0CB
:101F50001D47A1046355B7B6130604F1D685528513
:101F60002328F4E8232AF4E9232C14E9EF00102BAA
:101F700019C16FE06FF2032684F1832704E9832FF0
:101F800044E9832884E9DA846FF06FB3130604F11F
:101F9000D68552852328F4EA232C14EBEF00102871
:101FA00019C16FE06FEF032C44EF032684F1832700
:101FB00004EB832884EBDA8455B9BE8CCDB31306C9
:101FC00004F1D68552852328F4E8232AF4E9232C4A
:101FD00014E9EF00B02419C16FE00FEC032684F17F
:101FE000832704E9832F44E9832884E9DA846FF0A6
:101FF000EFABDA846FE04FE1A967938787556FE015
:10200000CFF993FCFC0F814663440C006FE05FD96D
:102010006FE0BFC993D6FC412324F4EC36876FE010
:10202000FFBD2324F4ECEE8601466FE07FCF1377EB
:10203000F70F014649B0832784EC8326C4EC2324A0
:10204000E4EC9C432390D7006FE0CFC7A967938748
:10205000475565B593051C005285232A04EB2320C0
:1020600014EDEF20F00E832804EC032844EBAA873C
:10207000E30A05180327C4EAE343070A073584EA9D
:102080002320A4EC014E6FF0AFDF63CC077E073551
:1020900084EA014E194C930760046391FC34930762
:1020A000C4EF130784EF930644EF62868D45528593
:1020B000232C04E92328C4EB232A14EB2730A4ECB7
:1020C000EF10006A8346050013070003073504EC90
:1020D000832844EB032E04EB032884E9AA87330604
:1020E00085016380E666032744EFD30700D23A9662
:1020F0005327F5A2631007640327C4EFE37BC70CE3
:102100009305000393061700232ED4EE2300B70097
:102110000327C4EFE368C7FE1D8F93067004232ACC
:10212000E4EA832F44EF638FDC0A130760046391B2
:10213000EC0C13F71D00336787016350F0796311CE
:10214000076A7E8F1308600613F30D40631B036458
:102150009346FFFFFD86B37CDF00630F0E4A130733
:10216000D002A307E4EE850C032784EBEA8D23203D
:1021700004EC3A8C2328E4EA6FE0CFC2930780078F
:102180006FF0AFCD63D607005315A522130ED00212
:102190009307C4EF130784EF930644EF0546894580
:1021A0005285232A04E9232CC4E9232814EB273081
:1021B000A4ECEF10E05A073504EC832804EB032E5F
:1021C00084E9032844E9054C232A84EBAA8713F702
:1021D0001D006312074C0327C4EF832F44EF1D8FAC
:1021E000232AE4EA13A7DFFF19E3635DFC0D7918E6
:1021F0001387FFFF230004F1232AE4EE634A0762FA
:102200009306B002A300D4F0A54663DFE6626E8DAC
:10221000232004EC930EF4F037D3CCCCF6851303D3
:10222000D3CC130F3006B3366702BA8F2E86FD1556
:102230008D821395260036950605098F130707032F
:10224000A30FE6FE3687E340FFFF13870603A38F45
:10225000E5FE1307E6FF6370D775130524F0AA8621
:102260008345070005078506A38FB6FEE31AD7FF4F
:102270002A970907118F930604F0158F2322E4E8AB
:10228000832644EB032644E80547338FC600635892
:10229000D746032744EA3A9F9346FFFFFD86137310
:1022A000FDBFB37CDF00936D0310937F2D00630EA1
:1022B0000E42930ED002032C84EBA307D4EF850CBF
:1022C0006FE01F97032744EB63CAEF3E13F71D002F
:1022D0007E8F09C7032744EA338FEF0013F30D40C5
:1022E00063040300634DF04B9346FFFFFD86B37C10
:1022F000DF001308700695B5232EA4E9832884E92E
:10230000668D832744E9832D04E9832CC4E80329DF
:1023100084E8032A84EBB6846FF00FED03C5A500B3
:102320006FF08FC4414D296E63548D672328F4EA02
:102330009D46A687232C14EBE2844A8C1309CE1306
:1023400021A0C11463509D2E4106050723A027013B
:1023500023A2A701232CC4F0232AE4F0A107E3D28F
:10236000E6FE130604F1D68552854D2D19C16FE0A6
:10237000AFB2032684F1032744F1DA879D46D1B733
:1023800013F71D0019E36FE00FAB032744F1832619
:1023900044EA832504EA050736968CC0232CC4F052
:1023A000D4C0232AE4F09D4563D5E50A130604F161
:1023B000D68552852328F4EA232C14EB852519C1F0
:1023C0006FE08FAD032C44EF032684F1032744F123
:1023D000832704EB832884EBDA84C9B09387BCFBA2
:1023E00093B71700E297232AF4EA3E86130784EF97
:1023F0009307C4EF930644EF89455285232A04E9E5
:10240000232CC4E9232814EB2730A4ECEF1040352B
:1024100013077004073504EC832804EB032E84E9CA
:10242000032844E9AA87E384ECDAD30700D25327D0
:10243000F5A26311075E832644EB0327C4EF3386BE
:10244000D700E36FC7CA1D8F832F44EF232AE4EA26
:1024500045B3A10481B8032584EB130604F1D685A6
:102460002328E4EB652B19C16FE0CFA2A967834550
:102470000D00032684F1032F04EBDA86138EC713B5
:1024800041471D486FF0EFE64A8E832884EB03290D
:1024900004EB2687B6843A968507D8C0232CC4F06F
:1024A000232AF4F023A0C4011D476344F7006FE022
:1024B0006F986FE0AFBD0326C4E7832504E8232CA3
:1024C000D4E8B38EC74076852328C4EB232A04EBD7
:1024D000232C14EB2320D4EDEF007043832684E9F2
:1024E00037D6CCCC1306D6CC3387DC00B337970174
:1024F0003E97B335C70237D5CCCC1305C5CC0328DE
:10250000C4E9832E04EC37D3CCCC8347180083284E
:1025100084EB032E04EBB337F00013DF2500F199B1
:10252000FA950D8F3387EC40B3BCEC00B38696412F
:102530003305A702C297232EF4E8032844EB9387C0
:10254000FEFF1303C3CCB386C602B335C702AA96F7
:1025500005453307C702AE969395F601858205833C
:10256000B38CE5003387DC00B33597012E97B33584
:10257000C70213DF2500F199FA950D8F3387EC40E0
:10258000B3B5EC00B385B640333FC702B385C5028F
:102590003307C7023386E5017E060583329713169B
:1025A0002700329706073387EC4013070703A38FF2
:1025B000EEFE6FE09F8125476374D7016FE05F8770
:1025C0006FF08FF5130ECE126FE0FFE52324A4ED1C
:1025D00063080714930C1C00628F232804EA014C43
:1025E000232C04EA814F6FD0FFFB130604F1D6853C
:1025F0005285232C14EB1D2119C16FE0EF890327AD
:1026000044EF832744EB032684F1832884EBDA84A8
:102610003387E7406FE07FD00347F4EEE30607B46B
:10262000850C99B64A8E832884EB6289268CBE84F9
:10263000832704EB62960507232CC4F0232AE4F0D9
:1026400023A0C40123A284019D45E3D4E5E0130641
:1026500004F1D68552852328F4EA232C14EB7D2E31
:1026600019C16FE06F83032684F1032744F18327A8
:1026700004EB832884EBDA846FF0CFE26E836FE0A3
:10268000DF916E836FF0CF93EE866FE0BFF4130E91
:10269000CE126FE0EFA7D30700D25327F5A201EFC8
:1026A000832644EB0327C4EF3386D700E36AC7A42D
:1026B0001D8F232AE4EA832F44EF2DB6032744EB32
:1026C000832644EA13087006330FD700E34EF0A7C1
:1026D000330FFF41050F9346FFFFFD86B37CDF00FC
:1026E000ADBC130ECE136FE01FA7834EF4EE032C88
:1026F00084EB63840E006FE00FDE6FE06FD33377FF
:10270000ED00E30B07B871B6873784EA130ED002E9
:10271000232004EC5395F7229307C4F56FE05FF68E
:10272000628FE28C232804EA014C232C04EA814FB7
:102730006FD05FE73307F640832F44EF232AE4EAA4
:10274000CDBAD30700D25327F5A263090720832F00
:1027500044EF7E963307F640232AE4EAF9B2832752
:10276000C4EAB70F008093FDFDF7B3FFFF0063825B
:102770000F1C9307D002A307F4EE93077004032CF9
:1027800084EB63D8071FA967232884EBE28F938724
:102790000756232004EC0D4F914C6FD0BFE0130877
:1027A00070068325C4E9032684EB03C7050093065E
:1027B00017F0638506246353F7253285AE8601A89A
:1027C00005068506930517F085C56353F703B38F98
:1027D000EF4003C716006DF703C706000505DDB718
:1027E000032744EA330FFC01130860063A9FA9BA95
:1027F000232ED4E88326C4E73307C5002328A4EAA0
:102800003307D7023A9F9346FFFFFD86B37CDF0074
:1028100063050E0E1307D002032C84EB850C232CCA
:10282000C4EAEA8DA307E4EE232004EC6FD09FD71F
:102830001307D002A300E4F01386EFFF0547D95633
:102840003307F741E345D69C930600032301D4F0F8
:102850006E8D232004EC930634F06FE07FF4329CFD
:10286000B28693050003635407006FE03FF08506CE
:10287000A38FB6FEE39D86FF3297130617006FE025
:10288000FFEE873784EA130ED002194C5395F722D6
:102890006FF07F80130ECE136FF0AFD5832784ECDB
:1028A00003AC0700910763530C007D5C03481900DB
:1028B0002324F4EC36896FD03FC81DE3854C668F26
:1028C0001308600659B81307D002A300E4F00547C7
:1028D0001386E6FF158FD956E34ED6926FE01FECB4
:1028E000032744EA13086006130F1700629F9346FC
:1028F000FFFFFD86B37CDF008DB00347F4EE032CB1
:1029000084EB55C7850C232CC4EAEA8D232004EC04
:102910006FD05FC9A965938545566FE0DFDB8737C8
:1029200084EA2320A4EC130ED0025395F7226FE023
:102930003FD5930770040347F4EE63D80703A967F4
:102940009387075625EF0D4FFA8C014C232804EA94
:10295000232C04EA232004EC6FD0DFC4054733079F
:102960008741232AE4EE6FF04FF8A9679387C75594
:10297000D1BFA967232884EBE28F9387C755232013
:1029800004EC0D4F914C6FD0FFC1130ECE1321B646
:10299000130ECE1345B109472322E4E8D5B0130E38
:1029A000CE136FF0EFCB130ECE136FF02FD9EA8D4D
:1029B000232CC4EA232004EC6FD0DFBE014C232873
:1029C00004EA232C04EA232004EC0D4F914C6FD031
:1029D0007FBD1D8F832F44EF232AE4EA6FF0EFF4CD
:1029E000B1472320FA00FD572326F4EC6FD07FCEA9
:1029F000232804EA232C04EA6FD0DFBA2328C4EA90
:102A0000014709B583D7CA0093E707042396FA0064
:102A10006FD05FC9832F44EF6FF08FFD011122CC7F
:102A20004AC806CE00101846328925C326CA52C4A9
:102A300056C25AC004424EC62A8AAE8A7D5B19A08D
:102A4000A1049DCE83274900BA861386F7FF23226F
:102A5000C9006357F00283A94400E38309FE904054
:102A6000CE86D6855285EF30C057630F65030327A6
:102A70008900A104330737412324E900BA86F9F21B
:102A8000D244B249224A924A024BF2406244232481
:102A9000090023220900014542490561814501469B
:102AA0008146014781478280F2406244D244B24964
:102AB000224A924A024B2324090023220900424958
:102AC0000561814501468146014781478280411168
:102AD00022C406C600082244B24037060020996589
:102AE00037050020130606149385251113050500EC
:102AF00041015DAE411122C426C24AC006C600088B
:102B00004C419384818B2A8963849500EF30606007
:102B100083258900938784066385F5004A85EF3015
:102B2000405F8325C9009384040D638A9500224485
:102B3000B24092444A85024941016F30805DB24003
:102B400022449244024941010145814581478280E6
:102B5000FC51858B91E783D7C50093F7072089C780
:102B60000145814581478280411122C406C6000883
:102B7000A84DEF009003B240224401454101814538
:102B800081478280FC51858B91E783D7C50093F7FD
:102B9000072089C70145814581478280411122C4B0
:102BA00006C60008A84DEF009004B240224401453B
:102BB0004101814581478280011106CE22CC26CA7F
:102BC0004AC84EC652C456C200109384818B114726
:102BD0008D679387E7ACD8C4214681451385C4052A
:102BE00023A2F18823A0040023A2040023A404004C
:102BF00023A2040623A8040023AA040023AC040093
:102C00008D6AEF00C07F0D6A8D690D69938A6AF243
:102C1000130AAAF8938909FF1309C90413858405C7
:102C200023A0540323A2440323A4340323A6240390
:102C3000C4CCEF008073C167A50721468145138589
:102C4000440CFCD823A4040623A6040623A80406E7
:102C500023A6040C23AC040623AE040623A0040818
:102C6000EF00E079938784061385040C23A2F4080F
:102C700023A4540923A6440923A8340923AA240918
:102C8000ED25B7070200C9071385C4122146814507
:102C900023AEF40C23A8040C23AA040C23AC040CCC
:102CA00023AA041223A0040E23A2040E23A4040EBC
:102CB000EF00E0749387040D624423A8540F23AA05
:102CC000440F23AC340F23AE240FF2404249B249E3
:102CD000224A924A23A6F40E13858412D244056137
:102CE00069A579714AD022D44ECE06D626D20018D4
:102CF000AA891385818A552D83A74188F9CB370886
:102D0000002013080814FD5683274800FD1763CFE1
:102D100007068324880029A0938484066388D70645
:102D20000397C400FD176DFBC1778507DCC41385CD
:102D3000840523A20406152D1385818A4D2D138544
:102D4000C40523A0040023A4040023A2040023A894
:102D5000040023AA040023AC040021468145452534
:102D600023A8040223AA040223A2040423A4040423
:102D7000B25022540259F249268592544561814548
:102D8000014681460147814701488280832408002B
:102D900099C0268895BF9305C01A4E85232E04FD41
:102DA000EF10103B0328C4FDAA8415C591475CC1F0
:102DB000310523A0040088C41306001A8145232E80
:102DC00004FD352D0328C4FDFD56232098002688D8
:102DD00025BFDD332DB7232008001385818A012DFF
:102DE000B14723A0F90069B7411126C222C44AC0E5
:102DF00006C600082A891385818A452B8327490343
:102E000089EB8D6703A74188938747AF232AF9028F
:102E100009CB2244B24002491385818A9244410180
:102E2000F9A3593B2244B24002491385818A924456
:102E3000410175AB411122C406C600082244B240CC
:102E40001385818A410195A3411122C406C6000859
:102E50002244B2401385818A410151AB411122C401
:102E600006C600081385818A89232244B2403706AA
:102E700000208D6513060614938505B501454101B3
:102E800025A04111370600208D6522C406C6000822
:102E900013060614938545B8014539202244B240F3
:102EA0001385818A4101A1A3797122D44ECE52CCDF
:102EB00056CA5AC85EC662C406D626D24AD0001880
:102EC000328BAA8B2E8C814A054AFD5903294B006F
:102ED0007D196346090283248B0083D7C400637B7A
:102EE000FA008397E400A6855E8563853701029C1E
:102EF000B3EAAA007D1993848406E31039FF032BFB
:102F00000B00E3150BFCB250225492540259F249C3
:102F1000624A424BB24B224C5685D24A45618145AA
:102F2000014681478280411122C426C206C600089C
:102F3000AE848395E500852E634F0500BC48B24002
:102F40002244AA97BCC8924441018145014681466A
:102F500001478147828083D7C4007D77B2402244F5
:102F60007D17F98F2396F400924441018145014673
:102F70008146014781478280411122C406C600086C
:102F8000B2402244014541018280011122CC06CE8B
:102F900000108397C50036832E8793F60710B288FA
:102FA0002A8899EEFD766244FD16F240F58F83156E
:102FB000E7002316F7009A8646864285056189A6B2
:102FC0008395E5002322C4FE89460146232064FE42
:102FD0002326E4FE2324A4FE952C0327C4FE03230A
:102FE00004FE832844FE8317C700032884FE5DBFC8
:102FF000411122C426C206C60008AE848395E500AE
:10300000B1247D578397C4006301E502B240224496
:103010000567D98FA8C82396F400924441018145E1
:103020000146814601478147828013070580B240EF
:10303000224413070780F98F2396F400924441013C
:10304000814501468146014781478280411122C462
:1030500006C600082244B2408395E50041014DA216
:10306000411122C406C600089377350013F7F50F07
:1030700099CB49C2834705007D166381E7060505A4
:1030800093773500FDF70D486370C80493F5F50F8D
:1030900093978500AE9713930701B708FFFEB78596
:1030A00080803E939388F8EF938505081C41B347D1
:1030B000F300B386170193C7F7FFF58FED8F91E704
:1030C00071161105E364C8FE15C62A9621A00505F0
:1030D0006302C50283470500E39BE7FEB24022443A
:1030E000410101438145014681460147814701482D
:1030F00081488280B240224401454101014381451B
:10310000014681460147814701488148828041113B
:1031100022C406C60008B3E7A5008D8B81E793376C
:103120004600B5C32A8711A883C6F5FF1308F6FF2A
:10313000A38FD7FE85C63E87428685059307170075
:1031400065F6B24022444101014381450146814672
:103150000147814701488148014E82803297E3024E
:1031600008FE8507A38F07FEE39DE7FEB2402244D9
:10317000410101438145014681460147814701489C
:103180008148014E82803703FFFEB7888080130399
:10319000F3EF938808082A870D4E9441B3876600A1
:1031A00013C8F6FFB3F70701B3F71701D9F7711684
:1031B00014C311079105E362CEFE41B7411122C449
:1031C00006C60008B24022441305050F4101828063
:1031D000411122C406C60008B2402244370500202F
:1031E0001305456441018280411122C406C60008CE
:1031F000B240224437050020130545644101828016
:10320000411122C426C24AC006C600082A892E855A
:1032100023A40188EF501027FD57630BF500B2403F
:1032200022449244024941018145014781478280FD
:1032300083A78188EDD7B24022442320F90092442D
:103240000249410181450147814782804111AE8792
:1032500022C426C24AC006C60008B28536862A891C
:103260003E8523A40188EF507033FD57630DF500B0
:10327000B2402244924402494101814501468146BF
:1032800001478147828083A78188FDD3B2402244D1
:103290002320F900924402494101814501468146BB
:1032A0000147814782804111AE8722C426C24AC0AD
:1032B00006C60008B28536862A893E8523A4018881
:1032C000EF501032FD57630DF500B2402244924496
:1032D000024941018145014681460147814782807B
:1032E00083A78188FDD3B24022442320F900924471
:1032F000024941018145014681460147814782805B
:103300004111AE8722C426C24AC006C60008B28553
:1033100036862A893E8523A40188EF60502AFD570E
:10332000630DF500B24022449244024941018145B7
:103330000146814601478147828083A78188FDD36A
:10334000B24022442320F9009244024941018145C0
:1033500001468146014781478280411122C406C649
:103360000008B240224441018280411122C406C6B5
:103370000008B240224441018280411122C406C6A5
:103380000008B240224441018280411122C406C695
:103390000008B240224441018280411122C406C685
:1033A0000008B240224441018280411122C406C675
:1033B0000008B240224441018280411122C406C665
:1033C0000008B2402244054541018280411122C4D7
:1033D00006C60008B24022440545410182804111E1
:1033E00022C406C60008B240224441018280411135
:1033F00022C406C60008B2402244410182803D43F7
:103400002A876373C3029377F700BDEFADE5937628
:1034100006FF3D8ABA960CC34CC30CC74CC7410784
:10342000E36BD7FE11E28280B306C3408A0697029F
:10343000000096966780A6002307B700A306B70092
:103440002306B700A305B7002305B700A304B70000
:103450002304B700A303B7002303B700A302B700F8
:103460002302B700A301B7002301B700A300B700F0
:103470002300B700828093F5F50F93968500D58DD4
:1034800093960501D58D61B79396270097020000AA
:1034900096968682E78086FA9680C1171D8F3E96A3
:1034A000E374C3F8A5B7411122C406C60008937798
:1034B00035002A87B9EBB7867F7F9386F6F7FD55EF
:1034C00010431107B377D600B697D18FD58FE38914
:1034D000B7FE8346C7FFB307A7401385C7FF81CE5A
:1034E0008346D7FF1385D7FF99C60345E7FF3335DA
:1034F000A0003E957915B240224441018145014624
:103500008146014781478280DDD683470700050752
:1035100093763700F5FB098F1305F7FFE9BF01111B
:1035200022CC06CE00102734A4FE8327C4FE370623
:1035300000807D1623200500B376F6003708F07F63
:10354000032784FE63F9060533E8E60063050804F3
:1035500093D8470193F8F87FBE85130820C0639184
:10356000080287B701831308C0BCD377F51227344C
:10357000F4FE8327C4FE032784FEB376F600BE85DF
:10358000370610807D16D186F18DC2963706E03F52
:10359000B3E7C50014C12324E4FE2326F4FE073557
:1035A00084FEF24062440561014581450146814641
:1035B0000147814701488148828003A805011C49D1
:1035C00063C007197D18797193122800138645018D
:1035D00022D43303560006D626D20018130E450116
:1035E000F2928327030003A702008507B358F7026E
:1035F0006369F708B28F728F8144014783A70F0078
:1036000083230F00110F939E070193DE0E01C183E8
:1036100093960301C18293D30301910FB38E1E03CE
:10362000B3871703A69E93940E01C18093DE0E010B
:10363000858EBA9613D70641C206C182F697939E2D
:10364000070193DE0E0193D40701B307D7419E977C
:1036500013970701558F232EEFFE13D70741E37F02
:10366000F3F983A7020091EFF11263665E0001A8EF
:103670007D1863765E0083A70200F112F5DB232834
:103680000501232614FF232EC4FD232064FE2322DC
:10369000C4FE232404FFAA84EF20602C8328C4FEE8
:1036A000634C0506032EC4FD032304FE032644FEDB
:1036B000032884FE85087285814714410C42110558
:1036C00013970601939E050193DE0E014183330794
:1036D000D7413E9793570741C181C1828D8FB697DD
:1036E0004207939607014183558F1106232EE5FE6D
:1036F000C187E374C3FC93172800F297984309EF3E
:10370000F1176366FE0039A07D186375FE009843CB
:10371000F1177DDB23A80401B25022549254468550
:10372000456181420143814381450146814601470C
:10373000814701488148014E814E014F814F82806F
:10374000014581420143814381450146814601474C
:10375000814701488148014E814E014F814F82804F
:103760001971A2DCA6DA0001CAD8D2D4DAD0DECE32
:10377000EAC8EEC686DECED62734A4FA032B84FA36
:10378000832BC4FA03288503232ED4F8232464FB57
:10379000232674FBAA842E8AB28D3A893E8D630F4C
:1037A0000800585D8547C285B397E7002322E800EB
:1037B0002324F800EF10D01423AC0402DE898146E4
:1037C00063D90B0093991B0093D91900232634FB6E
:1037D0008546B707F07F2320D90033F7F90063054A
:1037E000F722873784FA2730F4FA073704FAD30729
:1037F00000D2D327F7A2A9C70327C4F985471CC362
:1038000063070D00A967938757592320FD00A96915
:1038100093894959F6506654D6544659265A065B40
:10382000F64B464DB64D4E85B6590961014381436D
:103830008145014681460147814701488148828090
:10384000073584FA130684FB9305C4FB2685D6D27C
:10385000E2CCE6CAEF20404C13D74901032684FB93
:103860002A89631A071C0327C4FB930700023297B7
:103870009306274363DCD73E93070004B386D74003
:1038800093072741B399D900B357FB0033EBF900F5
:10389000D3071BD2B70710FE7D172738F4F883250E
:1038A00044F9032504F9854AAE97232AF4F823281E
:1038B000A4F887B78183073704F95377F70A87B6E7
:1038C000018487B7818407B601854377D77AD30708
:1038D00007D2D30600D2C3F7C772D397D7A2D39B20
:1038E00007C289CB53870BD2D327F7A293B7170010
:1038F000B38BFB401308F6FFD9473308E84063EF6A
:103900007715A9669385061693973B00AE979C237F
:10391000073704FAD317F7A263960734E340082C5D
:103920005E98232874F9232C04F8814CA547014C98
:1039300063E74715954763D84731711A1147E3008C
:10394000EA36630BFA4E8947014BE306FA260D4A25
:10395000232404F8B3877D01938A17002326F4F803
:103960005686634350010546DD4605479147E3D738
:10397000C648860793864701BA850507E37BD6FECE
:10398000CCDC2685232004F9EF10206F032804F8EF
:10399000AA89E303053A88DC93B7FA0063840760D9
:1039A00063020B6063567069A96693F7FB00938509
:1039B00006168E07AE97982393D74B4013F707014F
:1039C00063070778296787370727873604FABD8B8F
:1039D0008D46D3F7F61A638807482967130707252A
:1039E00019A08587210713F6170011E6858721079F
:1039F00013F617007DD61423858785065377D712D3
:103A0000638307462107EDB78326C4F99397C9005E
:103A10000967B1831307F770B3E7670198C28DEBAD
:103A2000A969E30D0D3EA9679387075A93898959C0
:103A30002320FD00C5B3832744FAB706F03F0325D2
:103A400084FAB207B183D58F130717C0814AB1BD7D
:103A5000A96963110D229389495A6DBB8547232CAF
:103A6000F4F8814C6346081C63DB0B1C232804F824
:103A7000A547B38C7C41330C7041E3FD47EB014A11
:103A800023AE040281452685232604F9EF10E05E6B
:103A90000328C4F8AA89E301052A23AC340393A7B9
:103AA000FB000327C4FB99C3635E071C639D0A34B4
:103AB000832784FB13076003FD5A1D8F832704F9B6
:103AC0003A98232654F92320F4F86697814D6286AC
:103AD00085452685232404F92328C4F82320E4FA05
:103AE000EF10101E032704FA032604F9032884F8B4
:103AF0002A8B635D9001635B0001E6876353980145
:103B0000C2871D8FB38CFC403308F8406354800398
:103B1000330CCC40E341C012CA8562862685232837
:103B200004F92320E4FAEF105041032704FA032894
:103B300004F92A8985452685232804F92320E4FAF7
:103B4000EF101018832704F8032704FA032804F958
:103B50002A8C6340F0588547E3C24723832684FAC2
:103B60002320F4FA232804F891E68327C4FAB20745
:103B7000E3870726832704F86398075A8547C29787
:103B8000FD8B6380074A9386F7FD6D56E3DCC60024
:103B9000F146B387F6403E97BE9C3E986341E016DF
:103BA00063580001E28542862685EF10F0482A8C92
:103BB000032784F993273A0093C71700631C07145F
:103BC00063415027638F0724639F0A4AE285814639
:103BD00015462685EF1040552A8CAA854A85EF1098
:103BE00010586352A04A93071003138A1B002380C6
:103BF000F900938A1900E2852685EF106050050AC6
:103C000063060B00DA852685EF10804FCA8526856E
:103C1000EF10004F8327C4F923800A0023A0470137
:103C2000630F0D2223205D01664C965AD64CDDB6FB
:103C3000B307C740938C17000148E3C90BE25E98B5
:103C4000232874F9E5B11147E300EA066302FA1E7E
:103C500089476301FA768D47232404F8054BE30B6B
:103C6000FACE39BDFD1B232C04F8E5BB958F331B21
:103C7000FB0039B9A9679387775A9389495A23205A
:103C8000FD0049BE29671307071693973B00BA97B3
:103C90009823FD5A93871900873704FA873604FA68
:103CA0008545D3F7E71A539707C2D30707D2930680
:103CB00007032380D900CBF7E76AE38EBA0487B500
:103CC0000186530600D29D8D15A0D3F6E71A85070D
:103CD000B386B700539706C2D30607D2130607036D
:103CE000A38FC7FECBF7E67AE3875603D3F7B71265
:103CF00053A7C7A279DB138A1B00BE8A01BFCA85FE
:103D00003A862685232004F9EF101033032804F89F
:103D10002A8979B5E2854A85232CF4F8EF103044DE
:103D2000832784F9E35E05E82320F4F8CA859387A6
:103D3000FBFF814629462685232CF4F8EF10C03E70
:103D40008327C4F82A8913A71700832704F8B3FA36
:103D5000E700832704FA639B0748E3920A065E8A1A
:103D6000832AC4F8832B84F9854D09A8CA85814626
:103D700029462685EF10403B850D2A89E2854A8534
:103D8000EFF0BF83930C0503B387B901A38F97FFAF
:103D9000E3CE5DFD814D63545001938DFAFF93870F
:103DA0001900BE9D8146CA85054626852324D4FA7E
:103DB000EF109028E2852A89EF10703A832684FA62
:103DC0006351A0081307900319A0638E3D6B83C74E
:103DD000FDFFEE8AFD1DE38AE7FE85072380FD00D7
:103DE000E28526852324D4FAEF108031E3000BE22C
:103DF000832684FAE38806E0E38666E1B6852685B5
:103E0000EF10003001B5832704F913073743FD5A3B
:103E10003A98232654F966972320F4F86286814D58
:103E200045B9832704FA6390073E138A1B002DBF10
:103E3000054B232464F939BE8547014B2324F4F84C
:103E400011BE09E593FC1C00E39E0CF6130700036A
:103E5000EE8A83C7FDFFFD1DE38CE7FE51B7965A3E
:103E6000664CD64C45BAD3F7E71A832784F999C72D
:103E700007B78185D397E7A2639C0756538706D27D
:103E800087B68186B706C0FC4377F76A2730E4F827
:103E9000032704F8832744F83A83B383F600638F3B
:103EA0000A0C5E865685539707C2A9669385061647
:103EB000530707D2832684F89317350013070703A7
:103EC000AE972380E90087B687FFD3F7E70A938789
:103ED00019006380062A07B78182232064F8232211
:103EE00074F85377D71A873604F85377D70A53975D
:103EF000E7A2631D075C87B5818507B60186814609
:103F00003DA0850663D5A618D3F7C7125377C7120D
:103F10008507539707C2D30607D213070703A38F5A
:103F2000E7FED3F7D70A5397E7A26311075AD3F6F0
:103F3000F50A5397E6A271D79306900319A0638EF2
:103F40003757BE8A03C7F7FFFD17E30AD7FE0507F9
:103F50002380E700130A160055B9538706D287B6A7
:103F60008186B706C0FC4377F76A2730E4F8032759
:103F700004F8832744F83A83B383F60007B7018730
:103F8000232064F8232274F8D3F7E70A073704F8EC
:103F9000D317F7A26392071C5317E722D397E7A220
:103FA000639107128327C4FB63C6070093A7FB0036
:103FB0006392075C832784F8A9E7635A903B6358B0
:103FC000003BE68763539801C2873387FC40330880
:103FD000F8406348805D85452685232004F9232029
:103FE000E4FAEF10E04D832704F9032704FA0328CD
:103FF00004F82A8C6393074E232004FABA8C014BF1
:10400000B5BE1386FAFF6346CC46832704F9330610
:10401000CC402320F4F863CD0A48569833875C01DE
:1040200045BCF1473E97BE9C3E98E35BE0B6C1B904
:10403000638F0B3EB307704113F7F700A9660E07B5
:10404000938506162E971C23073704FA9187D3779A
:10405000F712638C0756296713070725894619A0AD
:104060008587210713F6170011E68587210713F6C8
:1040700017007DD6182385878506D3F7E712E386D8
:1040800007DE2107EDB713CAFDFFCE8AADB6832741
:10409000C4FBE3C807F693A7FB00A5D793973B00A3
:1040A000AE979823E3D80DBEE34650BF639B0A004A
:1040B00087B701875377F712873704FAD387E7A2C8
:1040C000C1CF81452685EF10A003330AB041CE8AC7
:1040D00035BE2328F4F885472320F4FA032604F993
:1040E000E2852685232404F92320E4F8EF10E06418
:1040F0008547232804F8032704F8032884F82A8C2A
:1041000063C44703832684FA85E28326C4FAB20691
:1041100081EE0326C4FA9356460193F6F67F89C6CC
:10412000050705082328F4F883270C01232404F944
:104130002320E4F88A07E297884BEF10A02093072A
:104140000002032704F8032884F8898F0DBC873701
:1041500004FA89466FF03F88930710032380F90023
:1041600081452685938A1900EF009079138A2B00E8
:1041700071BC232064F8232274F8073704F805473C
:1041800053F6E612630BE54287B60186BE86B38816
:10419000A900D3F7D7128506539707C2530707D252
:1041A00013070703A38FE6FED3F7E70AE393D8FECE
:1041B0001387F7FF2A9707B78182D376E602D39653
:1041C000F6A2639A06305377C70AD396E7A263979D
:1041D00006380327C4FBE34207DE13A7FB00E30E08
:1041E00007DC13973B002E9718237DB4DA858146B0
:1041F00029462685EF0050732A8B832B84F963921E
:104200000A3C832AC4F863589001DA8566862685BD
:10421000EF1080622A8B832704F9232064FB6393C9
:10422000072C9387F9FFD6972326F4F8832784FA7F
:10423000CE8A858B2324F4F8E2854A85EFF0EFB728
:104240002320A4F8DA85930C05034A85EF1020712A
:10425000032604FAE285AA8D2685EF1040755C4599
:10426000AA85ADEF232CA4F84A85EF10406F832573
:1042700084F92328A4F82685EF009068832704F9A1
:104280003367FA0045EF832784F86381073263C7F9
:104290000D088327C4F823809A01938D1A00638840
:1042A000572BCA85814629462685EF00F06783276C
:1042B00004FA2A89DA858146294626856309FB06A0
:1042C000EF009066832504FA2A8B814626852946CD
:1042D000EF0090652320A4FAEE8AB9BF2685EF008F
:1042E000306263CA0D00832784FAB36DBA01858BEF
:1042F000B3E7B701B9EFCA8505462685EF10C0536D
:10430000E2852A89EF10A0656354A02C93079003DF
:10431000638CFC26832704F8938C1703DA862380AA
:104320009A01032B04FA850A138A1B0055BCEF007F
:10433000B05F2A8B2320A4FAEE8AFDBD63C50D264B
:10434000832684F83367BA01558F630E0724E3523E
:10435000F0F4930790036389FC22850C23809A0173
:10436000DA86850A032B04FA138A1B0095BC635C6A
:104370008015CA8562862685232004FBEF10E03B6A
:104380002A8985452685EF10A013832704F9032881
:1043900004FA2A8C63900710232004FA6687014BE5
:1043A0006FF0CFFDF146638BD7FE9306C003B38752
:1043B000F6408DB9054B232404F86358B001232639
:1043C000B4F9EE8A6E866FF02FDA854D2326B4F9A4
:1043D00023AE0402EE8A81456FF0AFDA118F930CA1
:1043E00017005E88232874F9232C04F86FF00FD48B
:1043F000E3850AB60325C4F8E356A0BA87B601865A
:104400008506D3F7D712538706D287B68186B706BB
:10441000C0FC1386FBFF43F7E76A2730E4F8032765
:1044200004F8832744F83A83B383F600ADBC87379A
:1044300004FA89461DBCDA852685232404F923283D
:10444000E4F8EF10802F4A86AA852A8B2685EF1084
:1044500040112320A4FACA852685EF00704A03275D
:1044600004F9032904FA032884F863050CEC6FF0BF
:10447000AFEA832704F9B3878741B297328C2320B0
:10448000F4F8014649BE93071003138A2B002380DA
:10449000F900B9B26687232004FA014B81B1854740
:1044A000014B2324F4F811BF054B232464F931B7E1
:1044B0006687B38C5C416FF0AFE11307100305060C
:1044C0002380E70041BC232004FB65BD130A1600CE
:1044D000BE8A6FF0AFF3BA8785B4BA8C232004FA92
:1044E000014BEDBE83254B002685EF001039AA8CC9
:1044F000630B051003260B019305CB00310509065C
:104500000A06EFB0FFDEE68526850546EF10C032CD
:104510002320A4FA39B3D3F7F702138A1B00D3166A
:10452000F7A289EAD3A6E7A2BE8A638106EE058BCD
:10453000630E07EC5E8609B4A96629659386865AE0
:104540001305C55B01469305F01AEF202015DA86A6
:10455000138A1B00032B04FA6FF0FF8493060003F9
:104560008347F7FFBA8A7D17E38CD7FE130A16003C
:104570006FF0CFE92967930507160DB62320F4FAEB
:10458000232804F86FF00FDF93079003DA86238067
:10459000FA00032B04FA938D1A00138A1B006FF0A4
:1045A0007F82BA8CF9B3E348F0D48DBB93079003B4
:1045B000E38CFCFCE340B0D795B33E87EDBE832B84
:1045C00084F9832AC4F86FF02FE089466FF0FF89E1
:1045D000E31605D493F71C00E39A07D281B3832630
:1045E000C4FA93D7460193F7F77F638507D88547C9
:1045F000050705082328F4F86FF0CFD723AE04028F
:1046000081456FF00FB8A96629659386865A130510
:10461000C55B01469305F02EEF2040089389895928
:104620006FF04F9F011122CC26CA4AC84EC652C411
:1046300006CE0010B7090020AE842A8A9389C914D7
:10464000EF00F02083A78900056703A947001379CD
:10465000C9FF9307F97F9387077FB3849740B180A1
:10466000FD14B20463CBE40081455285EF10506D18
:1046700083A78900CA976303F5025285EF00901E55
:10468000F2406244D2444249B249224A014505619E
:10469000814501468146014781478280B3059040AC
:1046A0005285EF10F069FD576300F50483A6890079
:1046B00083A7019F33099940136919005285858F9B
:1046C00023A2260123A8F19EEF00D019F2406244F4
:1046D000D2444249B249224A054505618145014615
:1046E000814601478147828081455285EF105065A0
:1046F00003A78900BD46B307E540E3D0F6F803A65B
:10470000C18093E71700118D5CC323A8A19EB5B7A4
:10471000FDC5011122CC26CA001006CEAA8423268C
:10472000B4FEEF00D0128325C4FE37050020130528
:10473000C51403A8C5FF138785FF832885009377D9
:10474000E8FF3306F700544213731800F19A638DA3
:10475000C81254C2B308D60083A8480093F81800C2
:104760006319030603A385FFB7050020938545154C
:1047700033076740032887009A97630AB80E03231C
:10478000C70023266800232403016387081293E6E9
:10479000170054C31CC29306F01F63E5F60893F696
:1047A00087FFA1064C41AA96904213D8570085472F
:1047B000B3970701CD8F938586FF10C74CC75CC1A7
:1047C00098C258C66244F2402685D24405616F0003
:1047D000700963900804B7050020B69793854515C6
:1047E000144693E817003308F7006383B610504669
:1047F000D0C614C6232217012320F80069BF014345
:10480000014581450146814601478147014881486C
:1048100082801368180023AE05FF1CC29306F01FA8
:10482000E3FFF6F693D6970011466369D60893D650
:104830006700938596038E0513868603AA95944197
:10484000E1156396D50075A894466386D500D042DD
:10485000719AE3EBC7FECC464CC714C76244F240E2
:1048600098C52685D244D8C605616F00A07F63969F
:1048700008064C461046BE9693E716004CC690C5F7
:104880005CC3369714C33DBFBE96631A030083A76B
:1048900085FF1D8F1047BE965C475CC690C713E628
:1048A000160083A7018150C318C5E3EDF6F083A578
:1048B000418B2685853B39B7B6971DB75146637343
:1048C000D602130640056368D60493D6C7009385C5
:1048D000F6068E051386E60695B793E6170054C3D1
:1048E0001CC2CDB59385C6058E051386B605B9B72E
:1048F00058C918C94CC70CC7232217012320F80038
:10490000D1B50328450009868547B397C700B3E7AB
:1049100007015CC191B713064015636AD60093D6B0
:10492000F700938586078E051386760701BF130669
:104930004055636AD60093D627019385D6078E0526
:104940001386C607E5BD9305803F1306E007FDB556
:10495000397122DC26DA06DE80009387B5005947DC
:10496000AA84636BF708C14663E4B606CD25C14649
:1049700061478948370800201308C81442975C43F0
:10498000130687FF638FC73AD843D0478C47719B84
:104990003E975443D0C52326F4FE0CC693E616007A
:1049A000268554C3C1258327C4FEF2506254D254D5
:1049B00013858700216101438145014681460147F6
:1049C000814701488148014E814E014F814F8280CD
:1049D000B1479CC00145F2506254D2542161014359
:1049E0008145014681460147814701488148014E82
:1049F000814E014F814F828093F687FFE3CA07FC07
:104A0000E3E8B6FC2326D4FE99258326C4FE93074B
:104A1000701F63F4D73E93D79600638D071011473C
:104A20006366F73693D7660093889703138E8703E0
:104A300013953800370800201308C81442955C41CC
:104A400061156301F5023D4339A0CC47635A062A3C
:104A5000630AB500AE87D843719B3306D740E3564F
:104A6000C3FEF28883270801930E88006385D7254B
:104A7000D843BD45719B3306D74063C3C53A232A4B
:104A8000D8012328D801635F06361306F01F0323DD
:104A90004800636DE62A137687FF210642960C4292
:104AA0001355570005473317A7003363E300130777
:104AB00086FF8CC7D8C7232268001CC2DCC593D7E9
:104AC000284005453315F500636DA306B3776500EF
:104AD00089EF060593F8C8FFB3776500910891E761
:104AE0000605B37765009108E5DF3D4E139F38005A
:104AF000429F7A830327C300C68F6309E32A50438A
:104B0000BA875847719AB305D640634ABE2AE3C6AE
:104B100005FE3E9654428C47268593E6160054C205
:104B2000D8C50CC72326F4FE352B8327C4FE138576
:104B3000870055B51305002093080004130EF003F9
:104B4000D5BD83278800D8431373C7FF3306D340EE
:104B50006366D300132706016302071683A5418B02
:104B600003A6C1807D57B6956305E63605673D0708
:104B7000BA957D77F98D2685232E04FD2320F4FE3A
:104B80002322D4FE232464FE2326B4FEEF10501B00
:104B90007D578325C4FE032384FE832644FE83279A
:104BA00004FE0328C4FD2A8E6300E52C33876700CA
:104BB000636AE52A938E019F03A60E002E9623A01A
:104BC000CE006303A73C03AFC1807D556309AF3CB2
:104BD0003307EE40329723A0EE00137F7E0063057B
:104BE0000F30137E8EFF8568210EA1083306BE00AC
:104BF000B385E841918DD205D18126852326D4FD48
:104C0000232804FD232AF4FC232CD4FC232E64FC4B
:104C10002320C4FF2322E4FF2324C4FE2326B4FE62
:104C2000EF1010122A877D558325C4FE032684FECB
:104C3000032F44FE032E04FE0323C4FD832684FDBC
:104C4000832744FD032804FD832EC4FC6309A73891
:104C500003A60E003307C7412E97136717002324BE
:104C6000C8012E962322EE0023A0CE0063870703FF
:104C70003D4563796532CC43130743FF619B8589CA
:104C8000D98DCCC39548B385E70023A2150123A491
:104C90001501636BE53403274E0083A5018B63F494
:104CA000C50023A8C18A83A5C18A63F4C50023A6D1
:104CB000C18AF2876DAA0323480011B513E71600D5
:104CC000D8C3BE96136616002324D8002685D0C20A
:104CD0002326F4FE412E8327C4FEF2506254D254A0
:104CE00013858700216101438145014681460147C3
:104CF000814701488148014E814E014F814F82809A
:104D000090473E9754434CC62326F4FE93E6160084
:104D100090C5268554C3B9268327C4FEF250625439
:104D2000D2541385870021610143814501468146A4
:104D30000147814701488148014E814E014F814F13
:104D400082805C478908E30FF7D03DB9135697007E
:104D5000914563F1C510D14563E7C51E1305C6052E
:104D60000E059305B6054295104161156316C50001
:104D70009DA210466306C5004C42F199E36BB7FE55
:104D80004846C8C790C71CC55CC615BB5147637C65
:104D9000F70E130740056364F71C93D7C60093888A
:104DA000F706138EE7061395380069B1850F93F760
:104DB0003F0021036385070E0327C3003DBB8847DF
:104DC00093E8160023A2170158C508C7BE96232AE8
:104DD000D8002328D80013E715003E9623A6D60155
:104DE00023A4D601D8C226850CC22326F4FE9D2C0E
:104DF0008327C4FE13858700F9BE93D83600138736
:104E000086008DBE3E9754432326F4FE268593E606
:104E1000160054C3812C8327C4FE1385870065BE0A
:104E200093E51600CCC3BE96232AD8002328D800C9
:104E3000936516003E9723A6D60123A4D601CCC2C3
:104E4000268510C32326F4FE312C8327C4FE138548
:104E5000870051B613566700130596030E05930598
:104E6000860311B7638A071183278800D843719B93
:104E70003306D7406366D70013270601E30007E433
:104E80002685CD2281BE9388C705138EB70513955D
:104E900038004DB683278F00FD186397E71B93F703
:104EA0003800611FE5FB032748009347F5FFF98FA2
:104EB0002322F80006051307F5FFE374F7C83377DC
:104EC000F50011E706053377F500910F65DFFE88E1
:104ED00031B9C1054DB1898505473317B700336333
:104EE000E3002322680071BD3306BE00B305C04055
:104EF000D205D18126852328D4FD232A04FD232C25
:104F0000F4FC232ED4FC232064FE2322C4FF23269A
:104F1000B4FE2324C4FEEF10A0622A877D558325AA
:104F2000C4FE032E44FE032304FE8326C4FD832710
:104F300084FD032844FD832E04FDE31BA7D0032733
:104F400084FE814531B39305400563E1C5061356E0
:104F5000C7001305F6060E059305E60629B51307E7
:104F600040156361F70693D7F60093888707138E81
:104F70007707139538007DBC938E019F03A60E0022
:104F80002E9623A0CE0081B15205E31E05C2032E4A
:104F900088009A9513E715002322EE00FDB923A699
:104FA000C18125B985472322FE00D9BD930540154F
:104FB00063E4C5061356F700130586070E0593052F
:104FC000760755B3130740556364F70693D7260158
:104FD0009388D707138EC70713953800A1BC611FAC
:104FE0003307E6018145ADB19385870026852322ED
:104FF000D4FF232404FF2326D4FEEFF06FF103280F
:1050000084FE832E44FE8326C4FE032E880003A65E
:105010000E0003274E0051B19305405563E1C502D0
:10502000135627011305D6070E059305C60725BBA2
:105030001305803F9308F007130EE007E5BA130548
:10504000803F9305E00705B383274800A5B54111CC
:1050500022C406C600082244B2401385C18941011A
:105060006FE0AFB4411122C406C600082244B2402A
:105070001385C18941016FE08FB7011122CC06CEA3
:1050800000107C412A87AE868DC713962600B29702
:10509000884331C1184198C3232805002326050001
:1050A000F2406244056181450146814601478147DE
:1050B00082802324B4FE1306100291452326A4FE09
:1050C000EF1060620327C4FE832684FEAA8768C3AC
:1050D0004DFD0145F1B78545B397D50013865700BF
:1050E0003A850A062324D4FE2326F4FEEF10A05F9F
:1050F0006DD1832684FE8327C4FE54C11CC569BFBD
:10510000411122C406C6000881C9D8417C410A0762
:10511000BA97984398C18CC3B240224441010145DB
:10512000814501478147828003AE0501AE8E3683FB
:1051300013884501814883270800110885081397C3
:105140000701418393D60701B307C702B386C6029E
:105150009A9713D70701C207C183BA96139706011E
:10516000BA97232EF8FE13D30601E3C6C8FD630FDA
:10517000030083A78E006357FE0213172E00769755
:10518000232A670093071E0023A8FE0076850143AB
:105190008145014681460147814701488148014ECA
:1051A000814E8280011122CC26CA001006CE83A532
:1051B0004E00232264FE2324C4FF85052326D4FF4A
:1051C000AA84653D832EC4FE032E84FE032344FE81
:1051D0002A872DCD03A60E019385CE003105090641
:1051E0000A06232064FE2322C4FF2324D4FF23269F
:1051F000E4FEEFB0EF8F832E84FEFC40032E44FECE
:1052000083A64E00032304FE13172E008A06B697CA
:105210009443F240D24423A0DE0023A0D701832E82
:10522000C4FE624493071E007697232A670023A8D2
:10523000FE007685056101438145014681460147AF
:10524000814701488148014E814E8280A9662965C7
:105250009386865A1305055E01469305A00BEF1051
:10526000E043011122CC26CA4EC652C456C25AC0CF
:1052700006CE0010368A93878600C546B28AAA8970
:105280002E8BBA8463D2F60AB796E338938696E3F8
:10529000B396D70213D7F741814585478586998E06
:1052A00086078505E3CED7FE4E85C13BAA853DCD59
:1052B00085471CC944C9A54763D4570793049B007D
:1052C0004AC8569B26898346090029464E859386FF
:1052D00006FD0509913DAA85E31769FF4249D69469
:1052E000E11463D04A03330A5A41269A83C6040064
:1052F00029464E85938606FD85043D35AA85E397AC
:1053000044FFF2406244D244B249224A924A024BDC
:105310002E8505618145014681460147814782808E
:105320009304AB00BE8A75BF8145BDBFA9662965E0
:105330009386865A1305055E01469305300D4AC8CB
:10534000EF10C035411122C406C60008AA87416784
:10535000014563F4E700C20741453707000163F4E4
:10536000E7002105A2073707001063E2E7023707CD
:10537000004063F0E70613972700634E0704B2402E
:1053800022440D05410181460147814782801397E0
:105390004700B70600401105636DD700B2402244B4
:1053A0001347F7FF7D833A954101814601478147C5
:1053B00082809A0763C1070213971700E34107FC35
:1053C000B240224413050002410181460147814752
:1053D00082803E87E1B7B2402244090541018146FF
:1053E000014781478280411122C406C600081C4142
:1053F00013F7770005C793F61700014799E613F7EF
:10540000270059C785831CC10547B24022443A850D
:105410004101014681460147814782801397070178
:1054200041830DEFC18393F6F70F414799E261473E
:10543000A18393F6F700B9C693F637009DCA93F699
:10544000170099E2050785831CC1B24022443A85C2
:1054500041010146814601478147828013F7F70FDA
:105460000DC713F7F70031E71147918393F6370023
:10547000F9F693D6270013F616001DC6B68709075E
:105480001CC1E1B711079183D5B72147A18355B757
:10549000B240224489831CC109473A854101014633
:1054A00081460147814782808D8381EB130700028B
:1054B000A9BF8D830D471CC149BF0D071CC171B722
:1054C000011122CC06CE00107C412A87AE869DC3F6
:1054D000C84321CD1841F2406244D8C385472326F2
:1054E000050054C91CC90561814501468146014733
:1054F000814782802324B4FE13061002914523269F
:10550000A4FEEF10401E0327C4FE832684FEAA8754
:1055100068C35DFDA96629659386865A1305055EF5
:10552000014693055014EF1060173A857146854582
:105530002326D4FEEF10201B71DD8326C4FEF2402B
:10554000624489471CC50547854758C12326050085
:1055500054C91CC9056181450146814601478147FF
:105560008280011122CC4AC84EC652C456C206CE11
:1055700026CA001083A90501032A0601AE8A3289D2
:1055800063C7490152872E894E8AB28ABA89832716
:10559000890083254900B3043A01B3A79700BE955B
:1055A000E93C6301051893084501139824004698C7
:1055B000C68763F7080123A007009107E3ED07FF03
:1055C00093854A01139329002E9363FC651093166B
:1055D0002A00930E4901F696130E590133BEC601F7
:1055E00033862641134E1E002D1609A893DF0F01A6
:1055F00063950F089105910863F5650E83AF05006B
:1056000093930F0193D30301E38203FEC682F68FC7
:10561000014983A70F0003AF02009102139707010E
:10562000418333077702C18393190F0193D909018D
:10563000135F0F01910FB38777024E974A97FA973E
:10564000135F0701FA9742074183139F07013367EE
:10565000EF0023AEE2FE13D90701E3ECDFFA814746
:1056600063040E009377C6FFC69723A2270183AF7A
:10567000050093DF0F01E38F0FF683A70800C682B2
:10568000768F3E89814303570F00135A0901C207E1
:105690003307F703C183110F03A942009102931945
:1056A000090193D909011E97529793130701B3E794
:1056B000F30023AEF2FE8357EFFF4183B387F70376
:1056C000CE97BA9793D30701E36FDFFA01476304DC
:1056D0000E001377C6FF46975CC391059108E3EF70
:1056E00065F06345900039A0FD1489C48327C8FF85
:1056F0007118FDDBF240624404C94249D244B24908
:10570000224A924A05618142014381438145014613
:1057100081460147814701488148014E814E014F32
:10572000814F8280A96629659386865A1305055E96
:10573000014693052016EF007076011122CC26CA8F
:105740004EC652C406CE001093773600B2842A8A21
:10575000AE89D1EF8984BDCC4AC803290A0463030A
:10576000090A93F71400858489EB0325090005CD08
:105770002A8993F714008584EDDB4A86CE8552850D
:10578000CD33638D090003A7490083274A040A0724
:10579000BA97984323A0E90023A0370199CCAA899E
:1057A0000325090071F54A86CA8552855D3B232091
:1057B000A900232005002A896DBFF24062444249B6
:1057C000D244B249224A05618145014681460147DA
:1057D00081478280F2406244D244224A4E85B249D7
:1057E00005618145014681460147814782802967DD
:1057F000130707158A07BA9703A6C7FF81462D32FC
:10580000AA8989BF854552858D382A8919C9130708
:105810001027854758C91CC92320AA042320050046
:1058200089B7A96629659386865A1305055E0146E0
:1058300093055014EF009066797122D426D24AD095
:105840004ECE52CC56CA06D6001883A905019C45F7
:10585000935A5640D699938419002E892A8ACC41AE
:1058600063D6970086078505E3CE97FE5285232EE3
:10587000C4FCEFF09F800326C4FD79C59305450164
:10588000635E500113875A000A072A97AE87910773
:1058900023AE07FEE39DE7FE8A0AD6950328090199
:1058A000930749017D8A0A083E9841C2130300020A
:1058B0003303C340AE88814698439108910733175C
:1058C000C700558F23AEE8FE83A6C7FFB3D6660098
:1058D000E3E407FF9307590101476367F8003308C2
:1058E00028412D181377C8FFBA95D4C191E2CE8410
:1058F0000327490083274A04B2500A07BA979843FE
:1059000004C922542320E90023A0270192540259FC
:10591000F249624AD24A45610143814501468146C6
:10592000014781470148814882809843910791054A
:1059300023AEE5FEE3FD07FB98439107910523AEF7
:10594000E5FEE3E407FF65B7A96629659386865AF5
:105950001305055E01469305E01DEF00305441112B
:1059600022C406C6000818499C492A863305F74018
:105970006316F7028A075106D105BE95B29719A0A2
:10598000637EF60083A6C7FF03A7C5FFF117F115D5
:10599000E388E6FE054563F3E6007D55B240224408
:1059A00041018145014681460147814782800111BD
:1059B00022CC06CE001098491C4A2E8FB308F7401F
:1059C000631AF702939627001388450113074601CF
:1059D000B307D800369719A06375F81483A5C7FFDD
:1059E0008326C7FFF1177117E388D5FE63F5D51637
:1059F000854839A0E3CE08FEB28781482E863E8FC7
:105A00004C422322E4FF232414FF2326C4FEEFF09C
:105A1000CFE60326C4FE832884FE032F44FE630BD7
:105A2000051403280601832F0F0193024601131763
:105A300028008A0F13064F01930345012326150101
:105A40003383E200B29F968E1E8E814803A70E001C
:105A50001442110E9317070193950601C183C1816A
:105A60008D8FC697C1824183158F93D60741369794
:105A7000C207C18393160701D58F1106232EFEFEA0
:105A8000910E93580741E363F6FD93065F010147CA
:105A900063E7DF00B38FEF41AD1F13F7CFFF338E06
:105AA000E200110E1E977286B3835340930E470097
:105AB000637F6E021442B305760011061397060148
:105AC00041834697B38716014187C1823697C20743
:105AD000C18393160701D58F9CC193580741E36B8F
