:100000006F000058130000001300000013000000F0
:100010001300000013000000130000001300000094
:100020001300000013000000130000001300000084
:08003000130000007300100032
:100038000000000000000000460300005603000016
:10004800000000000A050000000000000000000099
:100058000C0500000E050000000000000000000074
:10006800100500000000000012050000000000005C
:100078001405000016050000180500001A05000008
:100088001C0500001E0500002005000022050000D8
:100098002405000026050000280500002A050000A8
:1000A8002C0500002E050000300500003205000078
:1000B8003405000036050000380500003A05000048
:1000C8003C0500003E050000400500004205000018
:1000D8004405000046050000480500004A050000E8
:1000E8004C0500004E0500005005000052050000B8
:1000F8005405000056050000580500005A05000088
:100108005C0500005E050000600500006205000057
:100118006405000066050000680500006A05000027
:100128006C0500006E0500007005000072050000F7
:100138007405000076050000780500007A050000C7
:100148007C0500007E0500000000000000000000A3
:100158000000000000000000000000000000000097
:100168000000000000000000000000000000000087
:0801780000000000000000007F
:10018000011122CC06CE001085454145D12AA16738
:100190002322F4FE8D472324F4FE930544FEC14739
:1001A000371501402326F4FE0520A16537150140CF
:1001B0003D2A1305401FF92CA16537150140B12ACE
:1001C0001305401FC12CD5B7411122C406C6000833
:1001D0009C4513F7070113F8F70001C7D8413368AE
:1001E000E80037270240145B3717014013D6860119
:1001F0003D8A71EE8546170600202305D6E0631779
:10020000E50003D7050035832390E50083D505007D
:1002100013F7F50F39C318418146854E3D4F930FB3
:10022000800293028004214E3396DE00B3F8C500AD
:10023000631116039398260033131F011343F3FF32
:100240003377E300B318180133E7E8006399F7093F
:1002500050C98506E39AC6FD18C11307F00F6376EF
:10026000B70454410146854E3D4F930F80029302DF
:100270008004214E130786003397EE00B3F8E500A3
:10028000631117039318260033131F011343F3FF61
:10029000B376D300B3181801B3E6D8006395F70519
:1002A00058C90506E318C6FD54C1B24022444101B5
:1002B000814201430145814501468146014781470D
:1002C00001488148014E814E014F814F8280E31FDA
:1002D000E5F2170700200347E7D20DDB1DB7E39ACD
:1002E00057F610C9BDB7E39E57FA18C95DBF411153
:1002F00022C406C60008B71701406318F500970727
:10030000002083C727D091C3B581B24022440CC9D5
:1003100041010145814581478280411122C406C6C1
:100320000008B71701406318F5009707002083C73E
:1003300067CD91C3B581B24022444CC9410101450A
:10034000814581478280411122C406C60008B2401F
:10035000224441018280411122C406C6000801A046
:10036000411122C406C60008B7170240984F99C928
:10037000498F98CFB2402244410101458145014750
:10038000814782801345F5FF798D88CFE5B701114C
:10039000B717024022CC06CE00109843B706FFF8EC
:1003A000370602001367170098C3D843758FD8C368
:1003B0009843B706F7FEFD16758F98C39843B706A6
:1003C000FCFFFD16758F98C3D843B70681FFFD1655
:1003D000758FD8C337079F0098C7232404FE2326B0
:1003E00004FE9843C166558F98C385669843718F04
:1003F0002326E4FE032784FE05072324E4FE0327C7
:10040000C4FE09E7032784FEE312D7FE984385471D
:100410009316E70063DD06062326F4FE0327C4FED9
:10042000631FF704B7170240D843B706C1FFFD1694
:10043000D8C3D843D8C3D84313670740D8C3D843D9
:10044000758FD8C3D843B7062900558FD8C39843B2
:10045000B7060001558F98C3984393166700E3DDF4
:1004600006FED843B7160240719BD8C3D843136722
:100470002700D8C32147DC42B18BE39EE7FEF24060
:1004800062440561014681460147814782802326F7
:1004900004FE69B74111B7F700E022C406C60008A0
:1004A000D8438146799BD8C3170700200357A7B5C7
:1004B0003306A70290CBD4CB98431367070198C3A8
:1004C00098431367170298C3D843058B75DF984389
:1004D000B2402244799B98C34101014501468146BF
:1004E000014781478280411122C406C60008B240FC
:1004F000224441018280411122C406C60008B24054
:1005000022444101828001A001A001A001A001A01C
:1005100001A001A001A001A001A001A001A001A0D3
:1005200001A001A001A001A001A001A001A001A0C3
:1005300001A001A001A001A001A001A001A001A0B3
:1005400001A001A001A001A001A001A001A001A0A3
:1005500001A001A001A001A001A001A001A001A093
:1005600001A001A001A001A001A001A001A001A083
:1005700001A001A001A001A001A001A001A001A073
:10058000970100209381012817510020130181A7B2
:1005900013050061970500209385C5A61706002066
:1005A000130646A663FAC5008322050023A0550062
:1005B00011059105E3EAC5FE17050020130585A482
:1005C00097050020938545A46377B5002320050097
:1005D0001105E36DB5FEFD42739002BC8D42739030
:1005E00042809302800873A0023097020000938239
:1005F000E2A493E2320073905230EFF05FD9970299
:100600000000938222B873901234730020300000EF
:00000001FF
