:100000006F00806F13000000130000001300000059
:100010001300000013000000130000001300000094
:100020001300000013000000130000001300000084
:08003000130000007300100032
:1000380000000000000000002A0400003A0400004C
:10004800000000003E060000000000000000000064
:10005800400600004206000000000000000000000A
:1000680044060000000000004606000000000000F2
:10007800480600004A0600004C0600004E06000034
:100088005006000052060000540600005606000004
:10009800580600005A0600005C0600005E060000D4
:1000A80060060000620600006406000066060000A4
:1000B800680600006A0600006C0600006E06000074
:1000C8007006000072060000740600007606000044
:1000D800780600007A0600007C0600007E06000014
:1000E80080060000820600008406000086060000E4
:1000F800880600008A0600008C0600008E060000B4
:100108009006000092060000940600009606000083
:10011800980600009A0600009C0600009E06000053
:10012800A0060000A2060000A4060000A606000023
:10013800A8060000AA060000AC060000AE060000F3
:10014800B0060000B2060000B4060000B6060000C3
:10015800B8060000BA060000BC060000BE06000093
:10016800C0060000C2060000C4060000C606000063
:10017800C8060000CA060000CC060000CE06000033
:10018800D0060000D2060000D4060000D606000003
:10019800D8060000DA060000DC060000DE060000D3
:1001A800E0060000E2060000E4060000E6060000A3
:1001B800E8060000EA060000EC060000EE06000073
:1001C800F0060000F2060000F4060000F606000043
:1001D8000000000000000000000000000000000017
:1001E8000000000000000000000000000000000007
:0801F8000000000000000000FF
:10020000411122C406C600082244B240AA85814694
:1002100001460145410175A0011122CC26CA4EC6F6
:1002200006CE4AC80010814981449309807C93041A
:10023000807C638D9900B389994093D92940014905
:100240009C40050991048297E36C39FF8149814400
:100250009309C07C9304807C638D9900B389994095
:1002600093D9294001499C40050991048297E36C88
:1002700039FFF2406244D2444249B24905618147A4
:100280008280411126C2814781449307C07C930438
:10029000C07C22C44AC006C60008858F13D92740F7
:1002A000630A0900F114BE949C407D19F1148297F1
:1002B000E31C09FEB24022449244024941018147B5
:1002C0008280797122D426D200184AD04ECE52CCE8
:1002D00006D6B70400202A8903A54400232EB4FCC7
:1002E000B289368AF12883A781808325C4FDADCBEE
:1002F000D843FD4603A5440063C9E60693162700CC
:10030000631709020507D8C3B6978CC7E5280145CE
:10031000B250225492540259F249624A45618145D1
:100320000146814601478147014881488280B38860
:10033000D70023A4380903A8871805463316E6001A
:100340003368C80023A4071923A448110948E31BF4
:1003500009FB03A8C7183366C80023A6C7185DB7F2
:100360009387C18223A4F18061B769287D554DB779
:10037000411122C406C60008B240224441018280D5
:10038000411122C406C60008B240224441018280C5
:10039000411122C406C60008B240224441018280B5
:1003A000411122C406C60008B240224441018280A5
:1003B000411122C406C60008B24022444101828095
:1003C000411122C406C60008B24022444101828085
:1003D000411122C406C60008B2402244054541012D
:1003E0008280411122C406C60008B240224405455D
:1003F00041018280411122C406C60008B240224455
:1004000041018280411122C406C60008B240224444
:1004100041018280411106C622C400083D2A1D20E8
:10042000B2402244014541018280411122C406C6E6
:100430000008B240224441018280411122C406C614
:10044000000801A00111B717024022CC06CE00100F
:100450009843B706FFF8370602001367170098C3E2
:10046000D843758FD8C39843B706F7FEFD16758F2E
:1004700098C39843B706FCFFFD16758F98C3D84301
:10048000B70681FFFD16758FD8C39843B70600ECF9
:10049000FD16758F98C33707FF0098C723A607027C
:1004A000232404FE232604FE9843C166558F98C377
:1004B00085669843718F2326E4FE032784FE050793
:1004C0002324E4FE0327C4FE09E7032784FEE31286
:1004D000D7FE984385479316E70063DD060623267B
:1004E000F4FE0327C4FE631FF704B7170240D84386
:1004F000B706C1FFFD16D8C3D843D8C3D843136786
:100500000740D8C3D843758FD8C3D843B70629004E
:10051000558FD8C39843B7060001558F98C39843A9
:1005200093166700E3DD06FED843B7160240719BC1
:10053000D8C3D84313672700D8C32147DC42B18B07
:10054000E39EE7FEF24062440561014681460147B1
:1005500081478280232604FE69B7411122C406C662
:100560000008371702405443B7177A002146B18A72
:10057000938707206397C6065C4354434167C9834A
:10058000BD8BF98E1386270089CFBD476309F6021C
:1005900041476306E600B2876373C700BA87014725
:1005A00019A00147C94799EEB746024083A60680C5
:1005B000C18A85C2B7167A009386062039A80547F6
:1005C000B547D5B7B7160240D4421396E600E353B9
:1005D00006FEB7163D0093860690B387D70211C377
:1005E000858317070020232FF7A0371702405843B1
:1005F0009306807BB24011833D8B369703470700FB
:100600002244B3D7E70017070020232DF79E4101AE
:1006100001468146014781478280411122C406C6B6
:100620000008B240224441018280411122C406C622
:100630000008B24022444101828001A001A001A033
:1006400001A001A001A001A001A001A001A001A0A2
:1006500001A001A001A001A001A001A001A001A092
:1006600001A001A001A001A001A001A001A001A082
:1006700001A001A001A001A001A001A001A001A072
:1006800001A001A001A001A001A001A001A001A062
:1006900001A001A001A001A001A001A001A001A052
:1006A00001A001A001A001A001A001A001A001A042
:1006B00001A001A001A001A001A001A001A001A032
:1006C00001A001A001A001A001A001A001A001A022
:1006D00001A001A001A001A001A001A001A001A012
:1006E00001A001A001A001A001A001A001A001A002
:1006F00001A001A001A001A0970100209381811019
:1007000017810020130101901305C07C970500207C
:100710009385458F170600201306468F63FAC500A0
:100720008322050023A0550011059105E3EAC5FECB
:100730001385818097050020938585A86377B50090
:10074000232005001105E36DB5FEFD42739002BC48
:10075000AD427390428099629382820873A0023006
:10076000970200009382828D93E2320073905230A0
:1007700017050000130525B16134793CEFF09FCCDB
:1007800097020000938242C97390123473002030A4
:10079000411122C406C600089307000099C72244ED
:1007A000B240130520284101A1BCB24022444101BE
:1007B0000145814782800000000000000000000029
:0807C000010203040607080909
:0407C8009007000096
:0807CC0000D8B805240000204C
:00000001FF
