:100000006F001051130000001300000013000000E7
:100010001300000013000000130000001300000094
:100020001300000013000000130000001300000084
:08003000130000007300100032
:100038000000000000000000520C0000540C0000FA
:1000480000000000560C0000000000000000000046
:10005800580C00005A0C00000000000000000000CE
:100068005C0C0000000000005E0C000000000000B6
:10007800600C0000620C0000640C0000660C0000BC
:10008800680C00006A0C00006C0C00006E0C00008C
:10009800700C0000720C0000740C0000760C00005C
:1000A800780C00007A0C00007C0C00007E0C00002C
:1000B800800C0000820C0000840C0000860C0000FC
:1000C800880C00008A0C00008C0C00008E0C0000CC
:1000D800900C0000920C0000940C0000960C00009C
:1000E800980C00009A0C00009C0C00009E0C00006C
:1000F800A00C0000A20C0000A40C0000A60C00003C
:10010800A80C0000AA0C0000AC0C0000AE0C00000B
:10011800B00C0000B20C0000B40C0000B60C0000DB
:10012800B80C0000BA0C0000BC0C0000BE0C0000AB
:10013800C00C0000C20C0000C40C0000C60C00007B
:10014800C80C0000CA0C0000CC0C0000CE0C00004B
:10015800D00C0000D20C0000D40C0000D60C00001B
:10016800D80C0000DA0C0000DC0C0000DE0C0000EB
:10017800E00C0000E20C0000E40C0000E60C0000BB
:10018800E80C0000EA0C0000EC0C0000EE0C00008B
:10019800F00C0000F20C0000F40C0000F60C00005B
:1001A800F80C0000FA0C0000FC0C0000FE0C00002B
:1001B800000D0000020D0000040D0000060D0000F7
:1001C800080D00000A0D00000C0D00000E0D0000C7
:1001D8000000000000000000000000000000000017
:1001E8000000000000000000000000000000000007
:0801F8000000000000000000FF
:10020000397101436EC619A0397141536AC866CA73
:1002100062CC5ECE21A00100397101535AD056D272
:1002200052D44ED64AD826DA22DC06DE33016140AB
:100230008282010041114AC026C222C406C68282BF
:10024000B24D4101024D924C224CB24B4101010092
:10025000024B924A224AB2494101010002499244AA
:100260002244B240410182802A8309CA8383050067
:10027000230073007D16050385056DFA8280EFF279
:100280007FFBEF005011EF00A0777165130505208B
:10029000EF007016EF00D005C924592481450145AF
:1002A000092C8567138407F9228511241305401F43
:1002B000EF001011D5BFEFF2FFF72A841305800776
:1002C000112601459126130504FB1375F50F2D2EFC
:1002D00001451D2E41450D2E912649B7EFF29FF5A0
:1002E0002A89D13F13058007F12C13050004292E1C
:1002F00037040020935739009E071304C401930468
:1003000000083E9401450926B307940023800700A6
:10031000FD14EDF8212699B7EFF2DFF103C5E18076
:10032000753F83C7E1801305800785079D8B238771
:10033000F180492C0145C92C1305300DF12403C56A
:10034000E1800E051375850FC124C92C01BFEFF2A2
:10035000BFEC2A84154A3304440341111305800776
:10036000B309B040852413050004792C8567938771
:1003700087FBB70400203E9401499384C4010345E0
:1003800004F6050433C5A9001375F50F2AC6AD2C74
:1003900083C7C18003C7D18032458D839E07BA973A
:1003A000CA97C207C1833387F400050908A313174E
:1003B000090141833A89E31447FD8507C207C183D8
:1003C000BE940145238004008124892C410149B554
:1003D000EFF25FE6AA8793F707061375F507A5C73F
:1003E000BD3783C7F180D146850793F7F70F63E0E8
:1003F000F602A387F18083C7D1809306A0079907EF
:1004000093F7F70F63E9F602A386F18081BD83C7F6
:100410000181A38701801D47639BE700F53D03C56C
:10042000018183C7E1803E951D897135E9B7850754
:100430002388F180EDB7A386018083C7C180A1071F
:100440002386F180E1B7A947631DF502A3860180E9
:1004500083C7C180A1072386F180A387018083C75A
:1004600001811D47639BE700453D03C5018183C7AB
:10047000E1803E951D89813551BF85072388F18034
:10048000EDB7B547E314F5F8A387018003C50181F3
:10049000F9BFEFF23FDA41112A840305040019E1A4
:1004A00041016DBB2EC62D37B2450504FDB7814510
:1004B000CDB7EFF23FD841112386B180A386A1804A
:1004C0002A84130580072EC6F5280145352AB24532
:1004D00013E5050B152A1375F4003D22135544004E
:1004E0001365050115221D2A41018DBBEFF29FD432
:1004F000814501457D3F13058007E9203704002031
:10050000130500041304C4010122930404C001452F
:10051000E5287D1423000440E31B94FE01223DBB2B
:10052000EFF25FD11D281305800769280145856416
:10053000E1280144938484F913090002B30794006D
:1005400088230504D120E31B24FFC92823870180C9
:10055000713F81450145B13F11B3EFF2BFCD0111AC
:1005600085452545B52185450945792285453705C8
:1005700020009D293715014093050030130505C063
:10058000952A05644146130444F73305C100A2854A
:10059000E139375500400C08130505401124375543
:1005A0000040854513050540C924314693050401E3
:1005B00048005D39371501404C00130505C09D28E2
:1005C000056169B9B7570040938707409A2F098B97
:1005D00075FF9A23136707109AA3B75700409387B4
:1005E0000740DA2B058B75DFB756004037078200CE
:1005F0008AAB938606400D07DE2A922EC207D18F62
:10060000F98FE39BE7FE8280B7570040938707404E
:10061000DA2B137707086DDF8AAB8280B75700406B
:1006200093870740DA2B118B75DF9A231367072016
:100630009AA382809C4513F7070113F8F70001C7BE
:10064000D8413368E8008E2113F7F50F39C31841FC
:100650008146854E3D4F930F800293028004214EC8
:100660003396DE00B3F8C500631116039398260095
:1006700033131F011343F3FF3377E300B31818015B
:1006800033E7E8006390F70750C98506E39AC6FD93
:1006900018C11307F00F6376B70454410146854E25
:1006A0003D4F930F800293028004214E1307860072
:1006B0003397EE00B3F8E500631117039318260093
:1006C00033131F011343F3FFB376D300B31818019C
:1006D000B3E6D800639CF70158C90506E318C6FDC8
:1006E00054C18280E39357FA10C945B7E39757FE88
:1006F00018C9E5B70CC98280B707014063590502E4
:10070000DC4F935605011316050137073000BD8AEB
:1007100041823378E500635F0502631CE800C1068F
:100720000D473317D7001347F7FFF98F39A0DC4384
:10073000C9BF1317B500E34507FE89C91357550113
:1007400012073317E600D98F6354050237070140BB
:100750005CCF82806312E80237080140832648009C
:10076000370700F17D17F98F758F2322E800F9F51F
:10077000370701405CC382801317B500635C070034
:100780000D473317D7001347F7FF7D8FB707000FCB
:10079000D98FF1BF1357550112073317E600E5B79C
:1007A000EFF25FA946217971C1672A84938707FC1C
:1007B0006808FD8C2EC6E120925737470F001307BB
:1007C000072433D7E702B24541667916D98C46A093
:1007D0001620F18E16A0944161661306066A6364C2
:1007E000D6048606B3D6D7021146B687C206C182A2
:1007F00063F3C600B28705071AB05EAC1E204167DE
:10080000130757BF93E717001EA01E20B625F98FC8
:10081000DA21558FD98F1EA09A25DE25D98F1EA4E7
:1008200045616FF0BFA3EA2131667D166317C502EB
:100830000D46B386C602B3D7D7029396470199E215
:1008400093E71700E176D58F9306C0123307D702DE
:100850009306803E3347D70279BF6546B386C6020A
:10086000B3D7D7029166D58FC9BF1E2189C593E73B
:1008700017001EA1828041677917F98FDDBF3717F6
:1008800002405443B7177A002146B18A9387072064
:100890006394C6045C435843C166C983758FB7F639
:1008A000FF1F83A6C670BD8B890713961601634E82
:1008B0000606C54601466389D70845E73747024023
:1008C00003270780418B49CB37177A00130707208E
:1008D000B387E70211C285831CC137160240544218
:1008E0000567130787199182BD8ABA969422B3D7F8
:1008F000D7005CC15442A1829D8ABA969422B3D695
:10090000D70014C55442AD829D8A3697182393862A
:100910008180B3D7E7005CC5584239830D8B369789
:100920001823B3D7E7021CC982808946638DD7009C
:10093000BD45638DB700C146638DD70063F3F600F4
:10094000B68701469DBF0146C94785BF0546B547E5
:10095000ADB70146AE8795B737173D00130707902F
:1009600085BFB7150240D8559316F70063DA060421
:10097000D45537177A00130707209182BD8A850660
:100980003357D702D455A182BD8A89EE95463307E5
:10099000D7020583B7160240D456BD8A8506335761
:1009A000D7023DB785456394B600E546CDB7BD4552
:1009B0006396B600D1463387E602E9BF8906E5BFF4
:1009C000D45537177A0013070720BD8A8506C1BFA3
:1009D000B7170240984F81C5498F98CF8280134541
:1009E000F5FF798D88CF8280B7170240D84F81C537
:1009F000498FD8CF82801345F5FF798DC8CF82808B
:100A0000B717024098434111B706FFF81367170064
:100A100098C3D84337060200758FD8C39843B706EA
:100A2000F7FEFD16758F98C39843B706FCFFFD16B9
:100A3000758F98C3D843B70681FFFD16758FD8C34D
:100A40009843B70600ECFD16758F98C33707FF0073
:100A500098C723A6070202C402C69843C166558FF1
:100A600098C385669843718F3AC6224705073AC4F2
:100A7000324701E72247E317D7FE9843854793168D
:100A8000E70063D506063EC63247631FF704B71773
:100A90000240D843B706C1FFFD16D8C3D843D8C318
:100AA000D84313670740D8C3D843758FD8C3D843FA
:100AB000B7062900558FD8C39843B7060001558F54
:100AC00098C3984393166700E3DD06FED843B71634
:100AD0000240719BD8C3D84313672700D8C321476E
:100AE000DC42B18BE39EE7FE4101828002C669BF12
:100AF000371702405443B7177A002146B18A9387CB
:100B000007206397C6065C4354434167C983BD8B86
:100B1000F98E1386270089CFBD476309F602414746
:100B20006306E600B2876373C700BA87014719A05E
:100B30000147C94799EEB746024083A60680C18A9D
:100B400085C2B7167A009386062039A80547B547AF
:100B5000D5B7B7160240D4421396E600E35306FE1B
:100B6000B7163D0093860690B387D70211C38583DD
:100B7000370600202320F60037170240544305674C
:100B80001307871A9182BD8A36971823B3D7E700D7
:100B90002320F6008280B707002083A707003717BD
:100BA0007A0013070720B3D7E70293F7F70F238ADA
:100BB000F1801307803EB387E7022399F18082809A
:100BC000B7F700E0D8438146799BD8C303D721818A
:100BD0003306A70290CBD4CB98431367070198C381
:100BE00098431367170298C3D843058B75DF984362
:100BF000799B98C38280EFF2EFE32A84116501119B
:100C000085451105F133930700207C82371501409B
:100C10008D473EC44C00E147130505803EC6EFF00A
:100C20007FA137450140B70708000C081305058070
:100C30003ECC22C802CA231E01008D2A374501403E
:100C4000854513050580092C05616FF02FE1828031
:100C5000828001A001A001A001A001A001A001A02B
:100C600001A001A001A001A001A001A001A001A07C
:100C700001A001A001A001A001A001A001A001A06C
:100C800001A001A001A001A001A001A001A001A05C
:100C900001A001A001A001A001A001A001A001A04C
:100CA00001A001A001A001A001A001A001A001A03C
:100CB00001A001A001A001A001A001A001A001A02C
:100CC00001A001A001A001A001A001A001A001A01C
:100CD00001A001A001A001A001A001A001A001A00C
:100CE00001A001A001A001A001A001A001A001A0FC
:100CF00001A001A001A001A001A001A001A001A0EC
:100D000001A001A001A001A001A001A001A001A0DB
:100D100097010020938101AF177100201301812EEC
:100D2000170500001305854997F5FF1F9385852D4D
:100D300017F6FF1F1306C62D63FAC50083220500B0
:100D400023A0550011059105E3EAC5FE1385C18076
:100D500097F5FF1F938585756377B5002320050000
:100D60001105E36DB5FEFD42739002BCAD42739078
:100D7000428099629382820873A0023097F2FFFF4B
:100D80009382C22B93E23200739052301705000019
:100D900013050514E128C520EFF09FC697F2FFFF69
:100DA0009382224E7390123473002030EFF28FC87A
:100DB0001A29F577FD177D8FFE2179712A84D98F45
:100DC0001EA95A25FD779387379F7D8FDE212EC67A
:100DD000D98F9A25D98FBA25D98F5EA55A29DE25B4
:100DE0001377F7CFD98F5EA96808513CB747014008
:100DF00093870780B2456316F404A25756246547CB
:100E0000B387E702C206C186984163DE0602060781
:100E1000930640065224B3D7E7024206418633D7F1
:100E2000D702B3F7D7021207635106028E079387E2
:100E30002703B3D7D7029D8BD98F1EA445616FF0CE
:100E4000EFC1925765BF0A07E1B79207938727035F
:100E5000B3D7D702BD8BCDB75E2589C50967D98FBA
:100E60005EA5828079777D17F98FDDBFAA858146DF
:100E70000146014569A0411122C426C2056485646A
:100E80001304841B9384841B818C4AC006C6898406
:100E9000014963139902056485641304841B9384D8
:100EA000841B818C89840149631D9900B2402244CE
:100EB00092440249410182801C4005091104829735
:100EC000C9BF1C40050911048297F9BF411122C412
:100ED00026C2056485649384841B1304841B058CDB
:100EE00006C6098411E4B240224492444101828042
:100EF0007D1493172400A6979C438297E5B783A798
:100F000081812A8E81EF9387C1C123ACF1801305C3
:100F1000000009C50327000023A4E708D8437D4843
:100F20007D556347E804630E0E0203A8870863013A
:100F3000080493182700C29823A0C80003230810B0
:100F400005463316E6003363C3002320681023A050
:100F5000D80889466317DE0083264810D18E2322E5
:100F6000D810930617000A07D4C3BA978CC7014557
:100F7000828000008038010000000040080000046A
:100F80000040000000030000030000001C000000FF
:100F900048656C6C6F000000AED5F0A81FD3004010
:100FA0008D142000A1C8DA0281FFD922DB20A4A67B
:100FB0002EAF22001F21007F000000000000005F14
:100FC00000000007000700147F147F14242A7F2AE2
:100FD00012231308646236495522500005030000AD
:100FE000001C2241000041221C0014083E08140885
:100FF000083E080800503000000808080808006093
:1010000060000020100804023E5149453E00427F26
:10101000400042615149462141454B311814127F2D
:101020001027454545393C4A4949300171090503B6
:101030003649494936064949291E0036360000001E
:1010400056360000081422410014141414140041F0
:101050002214080201510906324979413E7E1111DC
:10106000117E7F494949363E414141227F4141221B
:101070001C7F494949417F090909013E4149497A93
:101080007F0808087F00417F41002040413F017FE9
:10109000081422417F404040407F020C027F7F04C1
:1010A00008107F3E4141413E7F090909063E4151FA
:1010B000215E7F09192946464949493101017F01CD
:1010C000013F4040403F1F2040201F3F4038403FED
:1010D0006314081463070870080761514945430009
:1010E0007F41410002040810200041417F000402BA
:1010F00001020440404040400001020400205454DA
:1011000054787F4844443838444444203844444860
:101110007F3854545418087E0901020C5252523E32
:101120007F0804047800447D40002040443D007F57
:101130001028440000417F40007C041804787C089B
:1011400004047838444444387C14141408081414F3
:10115000187C7C080404084854545420043F44403C
:10116000203C4040207C1C2040201C3C4030403C27
:1011700044281028440C5050503C4464544C4400C3
:101180000836410000007F000000413608001008CA
:101190000810080006090906000000000102030407
:1011A0000102030406070809000000000000000017
:0811B00001020304060708090F
:0C11B80000D8B805000000000204060882
:00000001FF
