:100000006F0060491300000013000000130000009F
:100010001300000013000000130000001300000094
:100020001300000013000000130000001300000084
:08003000130000007300100032
:100038000000000000000000EC030000EE030000D8
:1000480000000000F00300000000000000000000B5
:10005800F2030000F40300000000000000000000AC
:10006800F603000000000000F80300000000000094
:10007800FA030000FC030000FE0300000004000077
:100088000204000004040000060400000804000044
:100098000A0400000C0400000E0400001004000014
:1000A80012040000140400001604000018040000E4
:1000B8001A0400001C0400001E04000020040000B4
:1000C8002204000024040000260400002804000084
:1000D8002A0400002C0400002E0400003004000054
:1000E8003204000034040000360400003804000024
:1000F8003A0400003C0400003E04000040040000F4
:1001080042040000440400004604000048040000C3
:100118004A0400004C040000000000004E040000E7
:10012800500400005204000054040000560400006B
:10013800580400005A0400005C0400005E0400003B
:10014800600400006204000064040000660400000B
:10015800680400006A0400006C0400006E040000DB
:100168007004000000000000000000000000000013
:100178000000000000000000000000007204000001
:1001880000000000000000000000000074040000EF
:1001980076040000780400007A0400007C04000063
:1001A8007E04000080040000820400008404000033
:1001B80086040000880400008A0400008C04000003
:1001C8008E040000900400009204000094040000D3
:1001D8000000000000000000000000000000000017
:1001E8000000000000000000000000000000000007
:0801F8000000000000000000FF
:10020000411106C622C4000815223120B240224402
:100210000145410182800111B717024022CC06CE70
:1002200000109843B706FFF837060200136717005F
:1002300098C3D843758FD8C39843B706F7FEFD1609
:10024000758F98C39843B706FCFFFD16758F98C34A
:10025000D843B70681FFFD16758FD8C39843B706FC
:1002600000ECFD16758F98C33707FF0098C723A6CB
:100270000702232404FE232604FE9843C166558FFB
:1002800098C385669843718F2326E4FE032784FE76
:1002900005072324E4FE0327C4FE09E7032784FEA1
:1002A000E312D7FE984385479316E70063DD060601
:1002B0002326F4FE0327C4FE631FF704B71702408A
:1002C000D843B706C1FFFD16D8C3D843D8C3D84317
:1002D00013670740D8C3D843758FD8C3D843B70630
:1002E0002900558FD8C39843B7060001558F98C38E
:1002F000984393166700E3DD06FED843B716024025
:10030000719BD8C3D84313672700D8C32147DC4269
:10031000B18BE39EE7FEF2406244056101468146EF
:10032000014781478280232604FE69B7411122C418
:1003300006C60008371702405443B7177A00214613
:10034000B18A938707206397C6065C43544341678D
:10035000C983BD8BF98E1386270089CFBD476309FA
:10036000F60241476306E600B2876373C700BA87A7
:10037000014719A00147C94799EEB746024083A635
:100380000680C18A85C2B7167A009386062039A8EE
:100390000547B547D5B7B7160240D4421396E600D5
:1003A000E35306FEB7163D0093860690B387D70247
:1003B00011C38583170700202326F7C4371702408F
:1003C000584393060052B24011833D8B3697034742
:1003D00007002244B3D7E700170700202324F7C201
:1003E00041010146814601478147828001A001A069
:1003F00001A001A001A001A001A001A001A001A0F5
:1004000001A001A001A001A001A001A001A001A0E4
:1004100001A001A001A001A001A001A001A001A0D4
:1004200001A001A001A001A001A001A001A001A0C4
:1004300001A001A001A001A001A001A001A001A0B4
:1004400001A001A001A001A001A001A001A001A0A4
:1004500001A001A001A001A001A001A001A001A094
:1004600001A001A001A001A001A001A001A001A084
:1004700001A001A001A001A001A001A001A001A074
:1004800001A001A001A001A001A001A001A001A064
:1004900001A001A001A0970100209381A13617813E
:1004A0000020130121B61305005397050020938502
:1004B00065B517060020130666B563FAC5008322EA
:1004C000050023A0550011059105E3EAC5FE13853B
:1004D0008180938581806377B50023200500110515
:1004E000E36DB5FEFD42739002BCAD427390428055
:1004F00099629382820873A002309702000093826F
:10050000E2B393E2320073905230EFF0DFD0970203
:100510000000938222CF73901234730020300000C9
:1005200000000000000000000102030406070809A3
:0805300000D8B805000000002E
:00000001FF
